:020000041000EA
:1000000000B5324B212058609868022188439860DF
:10001000D860186158612E4B002199600221596106
:100020000121F02299502B49196001219960352056
:1000300000F044F80222904214D00621196600F024
:1000400034F8196E01211966002018661A6600F04E
:100050002CF8196E196E196E052000F02FF8012189
:100060000842F9D1002199601B49196000215960AB
:100070001A491B48016001219960EB211966A021F2
:10008000196600F012F800219960164914480160C1
:100090000121996001BC002800D000471248134993
:1000A000086003C880F30888084703B5996A0420EC
:1000B0000142FBD001200142F8D103BD02B5186610
:1000C0001866FFF7F2FF186E186E02BD00000240BE
:1000D000000000180000070000035F00212200005C
:1000E000F4000018222000A00001001008ED00E03C
:1000F00000000000000000000000000074B24E7A12
:1001000000200420F7010010CB010010CD010010E9
:10011000C9010010C9010010C9010010C901001077
:10012000C9010010C9010010C9010010CF01001061
:10013000C9010010C9010010D1010010D301001045
:10014000C1010010C1010010C1010010C101001067
:10015000C1010010C1010010C1010010C101001057
:10016000C1010010C1010010C1010010C101001047
:10017000C1010010C1010010C1010010C101001037
:10018000C1010010C1010010C1010010C101001027
:10019000C1010010C1010010C1010010C101001017
:1001A000C1010010C1010010C1010010C101001007
:1001B000C1010010C1010010C1010010C1010010F7
:1001C000EFF30580103800BE00BE00BE00BE00BECA
:1001D00000BE00BEF2EB88717C8E00109C8E001079
:1001E0003802001090A31AE71E481F49086006C88D
:1001F00081F3088810471D480068002801D019487D
:10020000F3E70DA40ECC002902D000F012F8F9E7B4
:100210001749184A002000E001C19142FCD116495B
:100220008847164988471649884700BEFDE701C937
:1002300001C29A42FBD370479C8E0010C000002080
:1002400068100020449E00100000042000000420DC
:10025000449E001000100420001004200000000044
:10026000704700000000000008ED00E0000000D032
:1002700068100020641F0020515800101504001061
:1002800049580010F8B5C04606480749091A8B10AE
:10029000C90FC91810B5491003D0044B002B00D06A
:1002A000984710BD68100020681000200000000072
:1002B000054B10B5002B03D00449054800E000BFF2
:1002C000FFF7E2FF10BDC04600000000001F002045
:1002D000F486001010B504001F2100F011FE00226A
:1002E0002000002100F024FE0021200000F032FE5A
:1002F00010BDC04670B5002684B0104D03AC503818
:1003000060702200267002233C212800009608F02D
:1003100027F92200268002233C212800009608F0BD
:100320001FF980235B012380220002233C21280047
:10033000009608F015F904B070BDC04658100020B2
:10034000F0B5C64600B58AB003AC22000E4B0026BD
:1003500023CB23C223CB23C21B780C4F137025233E
:100360006B44984602AD23782E706B702A000223EE
:100370003C2138000096013408F0F2F84445F2D1EF
:100380000AB080BCB846F0BDBC89001058100020EF
:1003900080235B01F0B5CE46994640234746B02600
:1003A0000025984680B51A4FA5B003AC66700223AD
:1003B00022003C2125703800009508F0D1F8022376
:1003C00022003C2125803800009508F0C9F84B46F2
:1003D000220023803C2102233800009508F0C0F859
:1003E00043467D220021236004A8013603F05EFE0F
:1003F000F6B2812322003C213800009508F0B0F8C5
:10040000B82ED3D125B0C0BCB946B046F0BDC04669
:1004100058100020F0B5DE46574645464E46E0B53A
:10042000BDB005F00DFB614B614918009B4608F01B
:100430006FF80321042000F063FD0321052000F084
:100440005FFD00220121042000F072FD0022012145
:10045000052000F06DFD07F025FF1A20FFF73AFF99
:100460001B20FFF737FF04210F2000F049FD9C23DC
:100470005049514AFA20D150504BC0001A6801230C
:1004800093434F4A136001F05BFBFFF759FFFFF7FF
:100490007FFF0020FFF72EFF1BAA9246494C4A4AD5
:1004A000270015000022432390460C3724E0212B1F
:1004B00076D01A00303A092A01D900F009FD2F3B05
:1004C0009A00D318E85CEB185A7899789446DA7851
:1004D0001B79564670705046664643714346C1705C
:1004E00002718670524600933C210623584608F05C
:1004F00037F82378BC4214D05246402101341160B1
:100500003A2B07D0D3D91A00413A192A00D9C0E1B1
:10051000363BD5E744200023844644224421002072
:10052000D7E70220FFF7E6FE284C002227004123F0
:1005300090460F3725E0212B00D19DE11A00303A7B
:10054000092A01D900F0CBFC2F3B9A00D318E85CB4
:10055000EB185A7899789446DA781B795646707079
:100560005046664643714346C170027186705246DA
:1005700000933C210623584607F0F2FF2378BC4243
:1005800026D052464021013411603A2B00D179E146
:10059000D1D91A00413A192A00D980E1363BD4E773
:1005A0000020002300225F21844692E7581000209B
:1005B000801A0600FFFF0000000005408C00054087
:1005C0008C100540F8860010F8880010088700108D
:1005D000A946BF4DBF4C2B68BF48DB431B0C1B0417
:1005E000236001F0ADFA2A68BC4BBD4853401B0C98
:1005F0001B04236001F0A4FA8023BA4C5B0122683B
:1006000080255340E02200200426D2011340B64A40
:10061000B6491360B64A6D00166023682B42FCD0C1
:10062000636801391B041B0CC0180029F4D1B14CBC
:10063000C8460F9403F08EFCAF4903F042FCAF496B
:1006400003F053FCFF21890503F04FFC011CAC486B
:1006500003F037FCFE21890503F02DFCA94903F0C6
:1006600044FCD9462060FFF793FEA74B19AF1093C7
:10067000A64B0A93A64B0D93A64B1193A64B129330
:10068000A64B1393A64B0B93A64B0E93A64B0C9322
:100690008F4B1A68914B53401B0C8E4A1B041360FE
:1006A0005A2305934B460393434602930025109A21
:1006B00014A913888D4E0B81937816AA8B72039C14
:1006C000032338212000009507F04AFF502001F055
:1006D00037FA062338212000009517AA07F04AFFB1
:1006E000E02214AB5B7B7F4D069314AB9B7BD20166
:1006F000079314ABDB7B0020089314AB1B8A042404
:1007000009932B687A491340774A1360802252007C
:100710000C602B681342FCD06B68013E1B041B0C61
:10072000C018002EF4D103F015FC734903F0C9FB87
:10073000724903F0DAFBFF21890503F0D6FB802321
:100740002A685B015340E02280210424D201134037
:10075000654A83461360654D6548624A49000460F6
:1007600013680B42FCD05368013D1B041B0CF618A8
:10077000002DF4D1300003F0EDFB5F4903F0A1FB45
:100780005E4903F0B2FBFF21890503F0AEFB011CBB
:100790005B4803F096FBFE21890503F08CFB594969
:1007A00003F0A3FB0F9B196803F08BFB03F03EFCE7
:1007B0005E4903F083FB5E4903F083FB03F0F2FB29
:1007C00002000B0000205B4902F016FD5246039C1C
:1007D000594B1490159113803C2102230095200061
:1007E00007F0BEFE534652461D803C210223009571
:1007F000200007F0B5FE802352465B0113803C21A8
:1008000002230095200007F0ABFE40229146002213
:10081000412390460A9D049421E0212B4BD01A00DD
:10082000303A092A4DD82F3B9A00D318029AD05C4F
:10083000D3185E789978DA781B7954466371434609
:100840006070E1702271A670524600933C2106232D
:10085000049807F085FE394A2B78954270D05246AD
:100860004946013511603A2B1FD0D6D91A00413ABA
:10087000192A26D8363BD7E70020002300225F2123
:1008800084466BE644200023844644224421002011
:1008900064E60020002300220021844619E600209F
:1008A000002300220021844658E6002344224421EC
:1008B00044260020C1E7002300225F2100260020FB
:1008C000BBE700230022002100260020B5E7C04638
:1008D000980005409810054060EA00000000AE470F
:1008E00050C3000000C0044000D004408813000042
:1008F00000E00440980F002000409C456740533AB8
:100900000000A040000020417C87001018870010E4
:10091000388700104C8700105C8700106C8700102F
:10092000208700104487001030870010F628DC3F35
:100930000AD7C33F0000244000B0FFFF1E8700100D
:10094000FE215846890503F0FFFA0E9D002808D1C4
:1009500080215846C90503F0F7FA0D9D002800D103
:100960000C9D069B089C1803079B1B011843230939
:10097000184303F0EFFAD24903F0B7FAD6218905FC
:1009800003F0B3FAF02304901B0320041840099BE2
:100990005BBA9BB2184303F0DDFACA4903F0A5FA2B
:1009A00003F000FB0022C84B01F0A7FF0022C74B59
:1009B00001F073FF02F060F806901498159902F0A8
:1009C0005BF85246C24B039E1380002398463C219D
:1009D000079000933000023307F0C2FD42465346B1
:1009E0001A8043463C21009202335246300007F001
:1009F000B7FD802352465B01138043463C210093A0
:100A00003000023307F0ACFD2B78984640239B461C
:100A1000002399464346B04620E0212B31D01A00EE
:100A2000303A092A33D82F3B9A00D318029AD05C67
:100A3000D3185C789978DA781B79564673714B46EF
:100A40007070F1703271B470524600933C210623ED
:100A5000404607F085FD2B78002B1ED052465946A4
:100A6000013511603A2B06D0D7D91A00413A192A1C
:100A70000DD8363BD8E700234422442144240020EB
:100A8000DBE7002300225F2100240020D5E70023BC
:100A90000022002100240020CFE70698984603F0AA
:100AA00081FA02000B005046119904F09FFE894B19
:100AB000039C3B8043463A003C21009320000223E4
:100AC00007F04EFD43463A003B803C210093200056
:100AD000022307F045FD80235B013B8043463A003B
:100AE00000933C210223200007F03AFD40225346A8
:100AF000914600221B7855469046002B3FD0039E1E
:100B00001FE0212B2FD01A00303A092A31D82F3B71
:100B10009A00D318029AD05CD3185C789978DA7866
:100B20001B797B7143467870F9703A71BC703A005A
:100B300000933C210623300007F012FD2B78002B98
:100B40001DD04A4601353A603A2B06D0D9D91A0051
:100B5000413A192A0DD8363BDAE700230020442217
:100B600044214424DDE700230022002400205F21EB
:100B7000D7E700230022002100240020D1E70498B9
:100B800003F010FA002502000B005046129904F001
:100B90002DFE039C504B3A003B803C2102230095E4
:100BA000200007F0DDFC3D8002233A003C21009547
:100BB000200007F0D5FC80235B013B803A00022334
:100BC00000953C21200007F0CBFC40225346914683
:100BD00000221B7855469046002B3FD0039E1FE015
:100BE000212B2FD01A00303A092A31D82F3B9A00F6
:100BF000D318029AD05CD3185C789978DA781B798C
:100C00007B7143467870F9703A71BC703A0000937A
:100C10003C210623300007F0A3FC2B78002B1DD0CD
:100C20004A4601353A603A2B06D0D9D91A00413AE2
:100C3000192A0DD8363BDAE700230020442244214C
:100C40004424DDE700230022002400205F21D7E7B1
:100C500000230022002100240020D1E7079803F0A0
:100C6000A1F9002502000B005046139904F0BEFDC7
:100C7000039C1A4B3A003B803C2102230095200044
:100C800007F06EFC3D8002233A003C2100952000D5
:100C900007F066FC80235B013B803A00022300954D
:100CA0003C21200007F05CFC402253469146002284
:100CB0001B7855469046002B50D0039E30E0C0462E
:100CC0000000C842000048430000B03E0000494018
:100CD00000B0FFFF00B2FFFF00B4FFFF00B6FFFF50
:100CE000212B2FD01A00303A092A31D82F3B029CF1
:100CF0009A00D218A31858789978A45CDA781B79EE
:100D00007B714346B870F9703A717C703A00009379
:100D10003C210623300007F023FC2B78002B1DD04C
:100D20004A4601353A603A2B06D0D9D91A00413AE1
:100D3000192A0DD8363BDAE7002300244422442147
:100D40004420DDE700230022002400205F21D7E7B4
:100D500000230022002400210020D1E7E6208000AB
:100D600000F0EEFE059B013B0593002B00D09DE4B7
:100D7000039B80269946029BB02598464023002479
:100D80009B467601534652465D701C703C210223FF
:100D90004846009407F0E4FB534652461C803C2131
:100DA00002234846009407F0DBFB534652461E8060
:100DB0003C2102234846009407F0D2FB53465A4692
:100DC00000211A601CA87D22013503F06FF9EDB2F5
:100DD000812352463C214846009407F0C1FBB82DC0
:100DE000D0D15246414B3C21138048460223009407
:100DF00007F0B6FB534652461C803C210223009468
:100E0000484607F0ADFB534652461E803C21022364
:100E10000094484607F0A4FB00220B9C5023934605
:100E20004546029426E0212B4CD01A00303A092A7C
:100E300042D82F3B9A0094469C4466466346AE5D7A
:100E4000E818B4460379C2788178407856466446FB
:100E500073715B46B070F17032713C215246747010
:100E600048460093062307F07BFB0299204A0B7843
:100E7000914214D0029A40210132029252461160EE
:100E80003A2B06D0CFD91A00413A192A14D8363B4A
:100E9000D0E7002344209C4644214422D6E7154B4A
:100EA000154A1B681548DB431B0C1B041360A8463E
:100EB00000F046FEFFF7ECFB002300209C460021DB
:100EC0000022C3E7002300209C4600225F21BDE7EB
:100ED00000231A0019009C461800FFF7FAFA0023B5
:100EE0001A0019009C461800FFF738FB00B2FFFFFC
:100EF0002F870010980005409810054060EA000018
:100F000010B54024074A83009A181268C000544064
:100F1000C0222240044C1B191A60044BC0184160C7
:100F200010BDC04604C0014004D001400040014053
:100F3000064B8000C3181B68C90092000A435A4040
:100F40000C231340024A80180360704704C001401C
:100F500004D001408000002904D0054BC018402374
:100F600003607047034BC01840230360F9E7C04695
:100F700004E0014004F001408023DB051868000F05
:100F80007047C0460FB400B5084883B004F0A6FD12
:100F9000049B002B07D005A91800019104F03AFC2E
:100FA000034804F09BFD012004F04CFC80870010F6
:100FB0009087001070B58C461600EFF3108472B65F
:100FC0000F490B68002BFCD0BFF35F8F6346DB0833
:100FD000C5180722C05C63461A40012393401A00DB
:100FE0000240034207D118432870BFF35F8F0A60A5
:100FF00084F3108870BD61463000FFF7C3FFC04620
:101000002C0100D0F8B5CE4647468C4680B51C0072
:10101000EFF3108872B61C490B68002BFCD0BFF3AD
:101020005F8FA24221D80723994602E00132944201
:1010300018D34946012611408E40D308C718C35C17
:101040001E42F3D1100033433B70BFF35F8F002289
:101050000D4B1A6088F3108800280EDBC0BCB9461F
:10106000B046F8BD01204042EFE7BFF35F8F002399
:101070000B6088F31088012040426346002BEDD0BE
:101080000898FFF77FFFC0462C0100D0044A107873
:10109000431CDBB2172B00D9102313707047C046D6
:1010A0009C0F002000B5054B83B00100009318226F
:1010B0001F230348FFF7A6FF03B000BD948700106D
:1010C000901A00200021044B044ABFF35F8F02C333
:1010D0009342FAD17047C046000100D0800100D091
:1010E000084B094A1360094A1360094A1360094A08
:1010F0001360094A1360094A1360094A1360094AD8
:10110000136070478080808000E400E004E400E029
:1011100008E400E00CE400E010E400E014E400E087
:1011200018E400E01CE400E01F2318401E3B83404D
:10113000002905D0C021044A49005350136070476C
:10114000802201498B50FAE700E100E00122824051
:10115000034B1B6813405A1E9341D8B27047C046D8
:1011600000E100E001238340014A13607047C0465C
:1011700000E200E0054B10309B688000C358044A31
:1011800000209B1A2F229A424041704700ED00E058
:10119000A00F002070B50D00EFF3108672B60F4A55
:1011A0001368002BFCD0BFF35F8F0D4B10309B6892
:1011B00084001B590B4A934203D09D4201D000F09A
:1011C000DDFF074B9B681D51BFF35F8FBFF35F8F40
:1011D0000022024B1A6086F3108870BD240100D0F3
:1011E00000ED00E0C1010010F0B5DE4657464E4666
:1011F0004546E0B5824683B08B461700EFF3108872
:1012000072B6604A1368002BFCD0BFF35F8F0025D5
:101210005D4B5D579946002D00DA9AE04A466B0017
:101220005A4C5E19B6000193A31900939B79137071
:10123000574B9A68534610339B00D15899460B1B65
:101240002F2B32D9534B994200D098E0019B0236A4
:10125000ED18514BAD006353504BA619043B9B1B3B
:101260004F4A1B055B0D651913436B804D4B0121E4
:10127000AB80FF23AB715B46AB60009BEF710B4310
:1012800019004A46424B9B689950BFF35F8FBFF3EA
:101290005F8F00223B4B1A6088F3108803B0F0BCCC
:1012A000BB46B246A946A046F0BD01200A008243D3
:1012B000D379B446BB422DD83B4BB51C1900130063
:1012C0001B1B5B415943090D8C46334B6519A353D6
:1012D000324B0099043B5B1B1B05314D5B0D2B43CF
:1012E00004364B80A619131F9B1B1B055B0D1D436A
:1012F00063468B715B468B602C4B8D80CF71136086
:101300000143BEE75800C01880002018C679BE42CD
:1013100025D902000623D356002BF3DA9A46131D73
:101320009C4623486346009E9571043EF61A360596
:101330001B4B760D1E43019B96805A195346920013
:10134000A418A3715B46194AA0802260E771A360CC
:1013500097E700F013FF00254B465D575EE76646B2
:101360009A46131D9C469088043640050015A61920
:101370006044801B00050A4E400D3043D2E700F068
:10138000FDFE63E7240100D05D1F0020A00F0020B8
:1013900000ED00E0C101001000A1FFFFD00F002010
:1013A00000E0FFFF01BDFFFFAAAA0000014880473F
:1013B00001BD00000123034370B59C46EFF3058196
:1013C000EFF3108572B6214A1368002BFCD0BFF3EF
:1013D0005F8F1F4B04001F4AE41A64416243120DE1
:1013E0001D4C8900A66852B2765866451CD006216D
:1013F000595691421CD012215956914222D01E2199
:101400005956914220D02A2159560324914210D096
:10141000124B19781A708171BFF35F8F00220B4B4A
:101420001A6085F3108870BDA3680D4C5C50EFE71F
:1014300000246100091989005B18FF21997109498D
:101440009980E5E70124F4E70224F2E7240100D0C3
:10145000A00F0020AAAA000000ED00E05D1F002000
:10146000C101001001BDFFFF00B5074B83B00100B3
:101470000093002205230548FFF7C4FD002801DB87
:101480001F23181A03B000BDB0870010611F002091
:10149000024BC918890001607047C0464000003403
:1014A00070B5114C114DAC420FD2FF262368002BB2
:1014B0000CD0FFF7EBFD01002000FFF7E9FFA6804D
:1014C000BFF35F8F0834AC42F0D370BDFFF7DEFD91
:1014D00001002000FFF7DCFF2671BFF35F8F0834A7
:1014E000AC42E3D3F1E7C046601000206810002052
:1014F00010B50400FFF7CAFD01002000FFF7C8FF88
:10150000FF232371BFF35F8F10BDC04610B50400E9
:101510000120FFF7C7FD034BC01880002060BFF318
:101520005F8F10BD40000034034BC9188900016073
:10153000BFF35F8F7047C046400000340A4B196804
:10154000EFF3108072B60A68002AFCD0BFF35F8FF9
:101550001B68BFF35F8F00221A6080F3108840BFC2
:10156000002000217047C0463C1F0020F0B5DE4639
:1015700057464E464546E0B585B0EFF30583032256
:101580001A40B34B91005F58012393409B4602924F
:101590005A468846AF4B1A60AF4B03935B46AF4841
:1015A00043630823FE5E002E37DABB881BB2002B94
:1015B00000DBA4E0BB79002B00D0E5E00823F95E56
:1015C000002920DB4B007A695B18DB00D3189D688B
:1015D000DC686B1C00D104E1A04801004144826A30
:1015E0000B69AE1A9B1A9E4215D30123026A029818
:1015F00083401A420FD0994800F0AAFB8C4202DCCB
:10160000CCD18542CAD940BF05B0F0BCBB46B2467A
:10161000A946A046F0BD0D61EDE77A6973009146D9
:101620009B19DB0099444B469C68DD6800F090FBF9
:101630008D42BADC00D1F6E0002D00DADBE04A464C
:101640004B4652691B699246039A934200D1CCE003
:101650004A460821785E5288000451461043984754
:10166000009001910099019A0B00134300D1C2E050
:1016700013000A00002B00DBD9E020002900801AAB
:1016800099414B469860D96000229B5E002B00DA9E
:101690008BE75D007C69EA18D200A2180094946878
:1016A000D268A2468A4200DD7FE702D1844200D997
:1016B0007BE70824A4463B81BC44009C00972F0094
:1016C0006546B4463E0006E05E00F218D200A2185D
:1016D0009768D268BA468A4207DC00D1B4E0F318B2
:1016E000DB00E518E35E002BEEDA66464A46009F13
:1016F00013802E80BB881BB2002B00DA5AE73A69B0
:10170000EFF3108172B61368002BFCD0BFF35F8F2C
:101710000123BE885B42BB8036B23B69BFF35F8F5B
:1017200000221A6081F31088002E00DA42E73B00A5
:1017300008333A0099467D6973009B190824115FAC
:10174000DB004846EB18002913DB9C680093A44695
:10175000DC6806E0A34240D00023F95E380000298F
:1017600006DB4F007F18FF00EF19FB68A342F1DD95
:10177000009B068000201E5E1980002EDCDA170018
:10178000BB79002B00D119E70023BB710823F95E58
:101790004B1C00D137E73D000835AC467C6903E0BF
:1017A00084464B1C00D109E74B005B18DB00E018B6
:1017B0000A00E15E43881BB2002BF1DA01256D427D
:1017C000EE178560C66008257B5F9342E9D06346CB
:1017D00019803B8903803A81E3E7BB686345BBD945
:1017E000C6E7631C00D0F7E605E7534650461B6981
:1017F0009847002823D14B461B883A693B81EFF379
:10180000108372B611680029FCD0BFF35F8F494680
:101810007A880A803A697E80BFF35F8F0021116069
:1018200083F31088C1E6844200D805E7BDE60B4883
:1018300000F08EFA009B019CC018614121E75346DD
:101840000CCB009201930DE7824500D847E74CE7A7
:10185000201F00203C7005406D1500100040054021
:1018600070B52D4C2569002D04D00A212B48FFF7B7
:101870000FFE70BD2A4E0321294800F05FFAE66092
:10188000FFF704FC274B0322C018D02322701B064D
:101890001B6801216370244B8000A3600F2320612B
:1018A0000220638063694942A18019800231198650
:1018B00047311D83585218315A5275325C3999524A
:1018C00018320131995218320131995218320131CE
:1018D0009952083518329D520231183299521832F5
:1018E000013199521832013199521832013199520D
:1018F0001832013199521832013199520B4B0C496F
:10190000DC6001303562FFF745FC01210320FFF761
:101910000BFC084B1D60A8E7E80F00203C1F0020CF
:101920000040054040000034FFFF1000201F002051
:101930006D1500103860054000487047E80F002022
:10194000F8B51F0008AB1B7804001600002B07D168
:1019500000F006FA32003B00121A8B41002B51DBDB
:101960002269EFF3108C72B61368002BFCD0BFF322
:101970005F8F0223E15E256900293ADB4B00606935
:101980005B18DB00C218C35A6380BFF35F8F00236C
:101990002B608CF31088069B9660D7601361079BC1
:1019A0005361538801335B045B0C181C002B1ED061
:1019B00083B25080080418432569EFF3108672B68D
:1019C0002B68002BFCD0BFF35F8FA3881380A1800E
:1019D0002369BFF35F8F00221A6086F31088237893
:1019E00001329A400849E3685B181A60F8BD01208B
:1019F000DEE7BFF35F8F00232B608CF3108801209C
:101A00004042F3E70020F1E73C20000070B582B0CF
:101A10000092019301000269EFF3108472B613681B
:101A2000002BFCD0BFF35F8F0223C85E0D69002836
:101A30003FDB4A69430016001B18DB00D218F35A3B
:101A40004B80BFF35F8F00232B6084F31088069BCD
:101A50001361079B5361009B019C9360D460538882
:101A600001335B045B0C1D1C002B20D0ACB20304C3
:101A7000558023430D69EFF3108C72B62C68002C4F
:101A8000FCD0BFF35F8F8C88148088800A69BFF315
:101A90005F8F002010608CF310880A78013090402E
:101AA000CA68084952181060180002B070BD0125BC
:101AB000DCE7BFF35F8F00232B6084F31088013BCA
:101AC000F2E7C0463C20000010B543890A14934257
:101AD0001ADD53009B184269DB00D3180469EFF349
:101AE000108C72B62268002AFCD0BFF35F8F5A8830
:101AF000090494B2090C8A4208D00369BFF35F8FCE
:101B000000221A608CF31088002010BD094A22437D
:101B10005A80012302698371BFF35F8F0021116036
:101B20008CF31088027804499340C268012052184F
:101B30001360EAE70080FFFF3C2000004078704718
:101B4000F0B5C64600B582B0040000F009F9FA22EB
:101B500006000F00200000230021920002F08EF901
:101B60008019794104000D1E02DA01242E4D6442D1
:101B700006267642F71736196F41AF4214D811D0B6
:101B800000F0EEF832003B00121A8B41002B15DCFE
:101B9000002B46D02000290000F0ECF802B080BCF9
:101BA000B846F0BDA642EBD90026002700F0D8F8D1
:101BB00032003B00121A8B41002BE9DD00F0D0F817
:101BC00032003B00121A8B41002B0ADB00230193E9
:101BD000164B3200009316483B00FFF717FF013009
:101BE000D8D000233900B0469C46124A1248536AA6
:101BF000994204D8966A4645CCD29942CAD1066821
:101C0000EFF3108772B63368002BFCD0BFF35F8F01
:101C10000368BFF35F8F66461E6087F3108820BF9E
:101C2000E5E7002AB6D0C9E7FFFFFF7F3D150010AA
:101C3000E80F0020004005403C1F0020F0B5CE46D4
:101C4000474680B504000D0085B0EFF30586894650
:101C5000002E10D0364900204B6AAB4206D38A6A68
:101C60005B1B591E8B41A2424041184305B0C0BCCA
:101C7000B946B046F0BD2F4FFB683A789846180039
:101C8000039200F065F8039A131D42469B009B588F
:101C900022001B1A9C462B00121A8B419E4210DC1C
:101CA0000DD020BF224A0020536A4B45DED3926AF2
:101CB0005B1B591E8B41A24240411843D6E7944515
:101CC000EFD900F04DF822002B00121A8B41002BA7
:101CD0001BDB00230193184B2200009338002B00DC
:101CE000FFF794FE002810DD114B5A6A4A451CD3B9
:101CF0009B6AA34217D301003800FFF7E5FE0C4AA8
:101D00000020536A4B45B1D3D1E7094A0020536AFA
:101D10004B45ABD30020926A5B1BA24240415A1E46
:101D200093411843A2E74A45E5D120BFE3E7C04607
:101D300000400540E80F00203D15001010B5024A94
:101D40000248FFF737F910BDCC870010941A002025
:101D50000300416A0A00986A596A8A42FAD17047B8
:101D6000034B596A0A00986A596A9142FAD170473E
:101D700000400540064A536A9942FCD807D1044BFB
:101D800002E05A6A914202D19A6A9042F9D87047A9
:101D900000400540F8B5DE464E4645465746E0B59C
:101DA00005008B4618000A99914600F03BFB0A9B00
:101DB0006C001E026419304BA400E418636880466E
:101DC0009E4200D966602F1FFBB29A46012B2FD985
:101DD000C0238022294FAD009B0179591201E318DD
:101DE0001A6000291BD14B4622685B015340E02258
:101DF000134080225201A21813605346012B2FD9A1
:101E0000802380229B01E31812011A60434666601A
:101E10007B51F0BCBB46B246A946A046F8BD7869E6
:101E200000F000FB013043001B18033BFDD2DAE752
:101E30005B46012BCCD1C02303229B01E3181A601F
:101E4000023AA3681A42FCD04A46236852015A401B
:101E5000E023134080225201A218084F1360AD0006
:101E600058460323216841400B4013600122824001
:101E7000A3681A42FCD0C3E700800040981A0020F3
:101E8000F0B5D6464F464646440098462418324B95
:101E9000A400E41863688A469146C0B5FF2B02D8B7
:101EA00080235B006360061FF6B2012E2FD9C0238A
:101EB00080222A4F85009B0179591201E3181A608C
:101EC00000291BD14B4622685B015340E02213409E
:101ED00080225201A2181360012E30D98023802263
:101EE0009B01E31812011A6080235B006360434684
:101EF0007B51E0BCBA46B146A846F0BD786900F017
:101F000091FA013043001B18033BFDD2DAE7534638
:101F1000012BCCD1C02303229B01E3181A60023AA3
:101F2000A3681A42FCD04A46236852015A40E02373
:101F3000134080225201A218084F136085005046BA
:101F40000323216841400B40136001228240A368B3
:101F50001A42FCD0C2E7C04600800040981A002018
:101F6000014B8000C0587047981A0020F0B5C64653
:101F7000040000B52348160098460D0000F052FA00
:101F80000100300000F04EFA4346069A1B0412038B
:101F900013439C4623680600002B22DB1A4B1B4888
:101FA000E218531E9A4180235242120B9B011203E6
:101FB000D218174B1A60174B1A60130001688B4335
:101FC000FBD12122144B2560E318A6601A60226819
:101FD000002AFCDA6246E26008221A6080BCB84639
:101FE000F0BD3F2322681340AB42D7D1A3681B0545
:101FF0001B0D8342D2D1EE22E368D2021340634527
:10200000CCD1EBE7001BB7000040FDBF08C000408B
:1020100000E0004000F000400430000010B58024D3
:102020001C4BE4051C6000281AD001231A4C1843ED
:102030001A4BDC611A4C44401C6259629862802140
:10204000144BC9051960174817490860E021C904F5
:102050001960002A07D18022144B12061A6010BDA5
:102060000E4BD861EBE753019B1A9B009A18802313
:1020700012015B049A4209D213000D490B60074B11
:102080005A608022094BD2051A60E8E7094B1A0012
:10209000F3E7C04600B00540D3C007B0008005405C
:1020A0002D3FF84FFCFF01000820014000A0054033
:1020B000F81E0020FFFFFF008023024A9B000B4315
:1020C000D362704700800540002310B50100988A54
:1020D0001B8B984710BDC046162310B50100188809
:1020E0005B88984710BDC046F8B54746CE4680B5D8
:1020F0000F1E18D01423994604330400002501262E
:1021000098464B461888434621681B88984701C467
:10211000431E984101350640AF42F2D13000C0BCA9
:10212000B946B046F8BD0126F8E7C046002370B5B1
:1021300004000D00988A05491B8B98470300002076
:10214000002C01DB0130A0402900984755420000D7
:10215000AA23064A1B0113608D235B00D360044948
:10216000044B19605368002BFCDA704700400240B2
:1021700000B0FA00006002407047C04610B5014848
:10218000FEF700FFF087001070B5074D074EB5420F
:1021900009D20024013E761BB608013608CD013471
:1021A0009847B442FAD170BDB0860010EC8600109A
:1021B000054B064A06491A60064A074B1A6010008A
:1021C0000B689843FBD1704700E00040BFCDFBFE99
:1021D00008C00040FE7F3C0000F00040044BDB6C78
:1021E000002B03D18022034BD2021A607047C046F5
:1021F000000011504C201150044A054B1A60054A4A
:102200001368DB018033FBD17047C046FFFFFF013D
:1022100000F0004008C000404022034B9A675A6714
:102220001A67DA667047C04600F0014010B5FEF745
:1022300049FF10BD70B52849284D294E6D1AAC10C4
:102240002200302C00D930223000920001F034FFFF
:10225000BC2D3DD823002A3B224A052B1DD9302016
:1022600075196D07A446001BEB0F002D03DA611CE6
:102270008C46A1007250C01AE3189B004108F31865
:10228000C900C9181A605A6008339942FAD101236B
:1022900003421DD0984360440400A300F250631C25
:1022A0002F2C15D09B00F250A31C2E2C10D09B007D
:1022B000F250E31C2D2C0BD09B00F250231D2C2C34
:1022C00006D09B00F250631D2B2C01D09B00F250D6
:1022D000054B9E6070BDC04600010010C00100109B
:1022E00000000020C101001000ED00E0002310B547
:1022F000294C82B0A367FFF72BFF0122274B1A60FE
:10230000636C012BFCD10322254B1A60224A936B8C
:10231000012BFCD1013300930121224A22480433CE
:10232000FFF724FE052301210093204A2048FFF7F0
:102330001DFE0022022104201E4BFFF7A1FD0022FA
:10234000012105201C4BFFF79BFD002200210720E7
:102350001A4BFFF795FD002200210820174BFFF7CD
:102360008FFD8023DB000093002200210920134B06
:10237000FFF710FD0022104B00210620FFF780FD23
:102380000420FFF7EDFD0E4900F04CF8010000209D
:10239000FFF792FE02B010BD008000403CB000404C
:1023A00030B00040002F685900800240008C864702
:1023B00000C00240001BB70040597307006CDC02EC
:1023C00040420F0001480421014B18470010002033
:1023D000E9200010124A936F9B0815D29066D166CF
:1023E000002905D0FFE7FFE7FFE7516F106F704747
:1023F00004B580210906C2175140002800D0C84307
:1024000006F016F9002104BDF0B5146E556E576F35
:10241000166FFFF7E3FF1466556657671667F0BD42
:10242000000000D0114A936F9B0813D210665166CA
:10243000002905D0FFE7FFE7FFE7516F106F7047F6
:1024400004B5002801D00020C04306F0F1F80021B7
:1024500004BDC046F0B5146E556E576F166FFFF78A
:10246000E5FF1466556657671667F0BD000000D09B
:1024700094464A4A926F9208624601D228E0C046CA
:10248000F0B5464E346E756E776F366F00F020F8FB
:102490009446424A14665566576716676246F0BD11
:1024A00094463E4A926F9208624601D254E0C0467A
:1024B000F0B53A4E346E756E776F366F00F04CF8AB
:1024C0009446364A14665566576716676246F0BDED
:1024D000002B24DB11D000293EDA00B5C94340426D
:1024E00000D1013100F038F8C943404200D1013138
:1024F000DB43524200D1013300BD002AEBD100285A
:1025000001D1002905D00020C90FC90701D1C0435E
:10251000410800B506F07CF80022002300BD00B59C
:1025200000290ADBDB43524200D1013300F014F8EA
:10253000C943404200D1013100BDC943404200D1EE
:102540000131DB43524200D1013300F005F8DB4397
:10255000524200D1013300BD002923D1002B18D1F4
:10256000002A0CD0BC460D4F38667A660021002345
:10257000FFE7FFE7FFE77A6F386F6746704700288D
:1025800001D00748010000B506F042F80022002300
:1025900000BD02000B00002000217047000000D0A9
:1025A000FFFFFFFF002B00D0BFE0130C28D1002A53
:1025B000E7D080B4114F39667A66FFE7FFE730B4A1
:1025C000040C7B6F396F1B0423433B667A66FFE77D
:1025D000FFE7FFE7C04684B27B6F3D6F1B042343D8
:1025E0003B667A66FFE7FFE7C04600232C042D0C0C
:1025F0007A6F386F00196941B0BC7047000000D095
:10260000F0B594460025140E01D112020835140FBE
:1026100001D112010435940F01D192000235D40F7B
:1026200001D152000135D40B0134254F7C66254C75
:102630003C660E0C93B2FFE7FFE7FFE73C6F664393
:10264000360C7703BE467343DF0B5B04C01AB941F7
:10265000130C7343DB18C91ACE086643360CB64414
:1026600093B273431F0F1B01C01AB941130C73437C
:102670001F0B1B05C01AB941860D8F023E436643EE
:10268000360C092D24DB520A7243801A7703460A5E
:102690006643360C16235B1BDE40DF40BF196446E1
:1026A0006643821B7046043506330100D940A840BA
:1026B000C01900D30131A24206D20023F0BD0000B0
:1026C000000000D0FFFFFFFF121B0130F3D3F1E742
:1026D00009277F1BFE406446A2B27243801A00D2D3
:1026E0000139220C7243130C1204821A99410B0017
:1026F0007046043513370100F940A840801900D313
:102700000131002B02D1A2420AD2F0BD013000D328
:102710000131121BFAD2013BF8D1A24200D2F0BD26
:10272000013000D30131121BF7E7F0B51C0C00D0CB
:1027300080E00CB400251C0A04D11B02160E3343A2
:10274000120208351C0B04D11B01160F3343120172
:1027500004359C0B04D19B00960F33439200023545
:10276000DC0B02D192185B4101351C0097186441C3
:102770000134464F7C66464C3C660E0CFFE7FFE793
:10278000FFE7C0463C6F6643360C7703BE4697B200
:102790007743C01B00D20139C01B00D201399FB260
:1027A0007743C91BC91B170C77437E04FF0B801BA3
:1027B000B941CE086643360C0C2D33DBB644120B00
:1027C0001F053A431B0B97B27743C01B00D2013958
:1027D0009FB27743C91B170C77433E043F0C801B05
:1027E000B941860D8F023E43664329277F1BFE4079
:1027F0000C3D7746AF40BF1930BCA2B2ABB27243BA
:102800007343801A9941220C7243130C1204801AEC
:10281000994102000B000137001BA941F9D2781E33
:102820000021F0BD0C277F1BFE4077467F0BAF4099
:10283000FF19E0E700245D1C07D0144F7D66396660
:10284000FFE7FFE7FFE7FFE73C6F95B29EB2654306
:102850006643401BB141150C1E0C654366433604AC
:102860002F0C3E432D04401BB141994204D202007B
:102870000B0020000021F0BD01D19042F7D3801A57
:10288000994101349942F2D3F6E70000000000D0EC
:10289000FFFFFFFF48404140484018B41B4B5B68B6
:1028A000FC46019308BD04DF7735001018B4174BC0
:1028B0001B68FC46019308BD00DF8135001094467B
:1028C000134A926F920809D2624618B40F4BDB6824
:1028D000FC46019308BD0CDF393800100C4AF0B5F6
:1028E000146E556E576F166F6246FFF7EEFF084A7B
:1028F0001466556657671667F0BD18B4034B9B689E
:10290000FC46019308BD08DFDD360010B812002038
:10291000000000D0FFB550404240504059404B406D
:10292000594000E0FFB5154F4C00640D03D0BC4288
:1029300004D10C0314D80020090D09055C00640DB6
:1029400003D0BC4204D11C030AD800221B0D1B0576
:1029500001264B4009D44B4003D58B4200D1824223
:10296000FFBD9942FCD19042FFBD0B43DB180343EE
:102970001343F5D0C9434918FFBD0000FF0700000D
:1029800000B5FFF7CFFF01D0002000BD012000BD42
:1029900000B5FFF7C7FF804100BDC04600B5FFF797
:1029A000C1FF01D9002000BD012000BD00B5FFF727
:1029B000B1FF01D9002000BD012000BD00B5FFF727
:1029C000A9FF804100BD012040054A00121804D82B
:1029D0005A00121801D800207047012070470000EB
:1029E0000021002805D17047C1174840401AFAD08D
:1029F000C90713B5064B1B6898470CBC441CA24082
:102A00001005120B0349091B09051943114310BD99
:102A1000381F00201F04000010B54C00620D8023F9
:102A2000D218DB00D21A5B057E2A10DD9E3A13DA3B
:102A3000CC170903490819435242D14064000134BC
:102A40001532202A05DAD0400843604310BD00202B
:102A500010BD0846604310BDC80FC018013810BD36
:102A600018B4044B5B6AFC46019308BD24DFE939C6
:102A700000100000B812002018B4044BDB6FFC46B5
:102A8000019308BD7CDF693A00100000B8120020F5
:102A900018B4044BDB6CFC46019308BD4CDF153CBD
:102AA00000100000B812002018B4044B1B6DFC4647
:102AB000019308BD50DFB13C00100000B8120020A7
:102AC000132370B51D78012D19D014DD1F48FFF7B1
:102AD00003FB06001E48FFF7FFFA1E4C8022310060
:102AE000200001F0E9FA022D2DD01B48FFF7ECFA87
:102AF0001A4B186070BD1A4B164CA364F5E7184BBF
:102B0000144C23606360A360E36023616361A3618D
:102B1000E36123626362A362E36223636363A3638B
:102B2000E36323646364A364E36423656365A3656B
:102B3000E36523666366A366E36623676367A3674B
:102B4000E367A364D1E7064BA364CEE753440000D8
:102B500053460000B81200204C330000381F0020FC
:102B600045350010F0B5CE46474680B589B0009295
:102B70000193924B4C009C46640DA444E146002C0A
:102B800051D08F4B9C424ED000228E4E361B3305C7
:102B900080185941FFF788FF8B4A8C4BFFF78FFE57
:102BA00000228B4B06000F00FFF708FF00280AD019
:102BB000002230003900874BFFF76FFE864A06007F
:102BC000A3180F0099464B46002B21D0009801997D
:102BD0000022824BFFF7EAFE00280DD100980199F0
:102BE00000227F4BFFF7DAFE002836D04B46002448
:102BF000002B05DB002504E04B460024002BF9DB0D
:102C0000784D2000290009B0C0BCB946B046F0BDDF
:102C1000009A019B30003900FFF76FFE00F08EFA3A
:102C200004000D00EDE7FFF73FFF674A674BFFF732
:102C300046FE0022664B06000F00FFF7BFFE00288D
:102C4000C4D0002230003900624BFFF726FE624AF2
:102C50000600A3180F009946B8E7009C019D2000CC
:102C6000290000F017FA0B00020029002000029250
:102C70000393FFF712FE1A220090019100F0E2F98F
:102C800000F008FA4B0004000D005B0D09D04C4A1F
:102C9000934206D01A2B00DC84E00022524BA41889
:102CA0005D4102980399FFF7B7FE80464846FFF75B
:102CB0009BFE2B00220002900391FFF71EFE0A00EC
:102CC000010004910592110000F0E4F902000B00EC
:102CD0000498059906920793FFF7DFFD22002B0069
:102CE0000490059100980199FFF7D7FD029A039B84
:102CF000FFF703FE049A059BFFF7D8FD04900591AA
:102D00004046FFF771FE32003B00FFF7F6FD04007E
:102D10000D0000F0BFF90A000100130002910392B8
:102D2000020029002000FFF7B8FD049A059BFFF779
:102D3000BDFD04000D000098019932003B00FFF733
:102D4000DCFD22002B00FFF7B1FD00F0F7F90400D5
:102D50000D004E0000940195760D00D151E7184BFF
:102D60009E4200D14DE70698079943464F465F4380
:102D7000FFF752FEC71902980399FFF74DFEC019DD
:102D80008619002E09DD194B9E420FDDEB0F154A07
:102D9000DB071A430024150033E7019B0024DB0FF7
:102DA000DD072EE7C90F0024CD077AE722002B00AC
:102DB00000240505A4185D4123E7C04601FCFFFF80
:102DC000FF070000FF030000EF39FAFE422EE63F46
:102DD0000000E03F0000F03F02FCFFFF0000B040B9
:102DE0000000B0C00000F07F000060FEFE070000A1
:102DF000F8B54E464546DE4657460400E0B50D00A0
:102E00001600012A5FD0D30F9B185B109846012B48
:102E10004FD0D31703221A40921992109146012ADB
:102E20003CD007221A409219D2109246012A2ED085
:102E30000F221A40921912119346012A1CD01F2208
:102E40001A4092195711012F0BD03F221A409219A4
:102E50009211FFF7CDFF0B000200FFF74EFDFB07BD
:102E60003CD40B000200FFF748FD5B46DB0703D5AF
:102E700022002B00FFF741FD0B000200FFF73DFD94
:102E80005346DB0703D522002B00FFF736FD0B006E
:102E90000200FFF732FD4B46DB071AD40B0002009D
:102EA000FFF72BFD4346DB0703D522002B00FFF77E
:102EB00024FD02000B00FFF720FDF60703D52200DA
:102EC0002B00FFF71AFDF0BCBB46B246A946A04650
:102ED000F8BD22002B00FFF710FDDFE722002B00DA
:102EE000FFF70BFDBDE7C046F0B583B004000D0051
:102EF00006000F0000920193002926DA4A4A5B007F
:102F00005B0D9B18342B1AD83422D21A1400203CA3
:102F100037D401214942A140012040429040009D08
:102F200085432800019D8D432900014307D1002BD3
:102F300030D0002C3ADB019BE340DB072AD480230E
:102F40001B06F9180F0034000D0000980199FFF7D7
:102F500063FD3B0D0200002B06D034498B4203D0A9
:102F60003903090B314335D0061E29D00300203325
:102F7000402B28D8002847DB20002900FFF738FF26
:102F800012E00121202049420D00801AC5409140E5
:102F90006918C1E78024009A019B24063000391982
:102FA000FFF7A2FF0B19190003B0F0BD2023009C0E
:102FB000019D29009B1A99402300D340CB18BCE700
:102FC00000201B49F0E72000009A019B2900FFF731
:102FD000C9FDE9E71749884200DA0A0080210901A2
:102FE0008A4200DB114A104959185143124BCB1841
:102FF000002B13DD114A934213DC002200200B0545
:103000000B4980185941CFE722002B0000200849C6
:10301000FFF755FC724204000D00ADE700200021CF
:10302000C2E700200649BFE701FCFFFFFF070000E1
:103030000000F03F00F8FFFFFF030000FE07000064
:103040000000F07F4B0070B55B0D04000D00002BFD
:103050000ED00D4EB3420BD0D318002B0BDD0B4C12
:10306000A3420CDD0A4ACB0FDB071A4300241500EC
:103070002900200070BDCB0F0024DD07F8E70024F5
:10308000150524184D41F3E7FF070000FE07000077
:103090000000F07F274A4B005B0D9B1870B55A1C4F
:1030A00028DB5A1C3FD004000D00332B1FDC3322D9
:1030B000D31A9C46203B21D401249C401E00654627
:1030C00023000124AC40220012184B41002E24DBC7
:1030D0000221B1400D006046022181400C00160023
:1030E00000216042A94106400B4034001D00290028
:1030F000200070BDCB0F0024DD07F8E71E00202460
:1031000063460125E41AE54001242B006546AC40E6
:10311000220012184B41002EDADA20210220491B2E
:10312000C8400500D7E7044ACB0FDB071A43002449
:103130001500DCE701FCFFFF0000F03F264B70B5F7
:103140000A0D04000D009A423AD00022234BFFF7EB
:1031500025FC002834D1002220002900204BFFF755
:1031600025FC002802D000201E4970BD2000290047
:10317000FFF790FFFFF750FC0600FFF735FC020059
:103180000B0020002900FFF788FB174B174AFFF7B9
:10319000B4FBFFF77DFC4B0004000D005B0DE4D099
:1031A000134A9342E1D09B19002B0CDD114A934244
:1031B0000DDDCB0F0B4ADB071A4300201100D4E7CB
:1031C00000200021D1E7CB0F0020D907CDE7002058
:1031D000310500196941C8E7FF0F00000000B0C0C9
:1031E0000000B0400000F07F422EE63FEF39FAFECB
:1031F000FF070000FE070000F0B5CE464746160068
:1032000080B51F000022BF4B83B004000D00009664
:103210000197FFF7B5FB22002B0000283DD13B0DA5
:1032200098465B055E0D37000022002B3DD0200044
:103230002900B54BFFF7A4FB002838D0B34B9E42C2
:1032400032D0984500D175E0B14AAF48B14B9845AE
:1032500000D16CE0B04ABA1800D503E1332A14DC7F
:1032600034239B1A1900203900D518E1012252425B
:103270008A40009E019F01214942994033008B43BF
:10328000390091430B4300D0ECE0009A019B2000F1
:103290002900FFF729FE02000B001000190003B0FF
:1032A000C0BCB946B046F0BD0022964BF5E72A0DEA
:1032B00053052800590D002B30D1974BF118019B75
:1032C000002B3ADB342926D83420401A0300203B57
:1032D0006CD49C46012362465B4293409846009E14
:1032E000019F012252428240330093439946424655
:1032F0003B0093434A4613430DD122002B00002983
:10330000CBD06346002B00DAB8E03900D940220068
:103310002B00C907C1D400220023BEE77B4B9A4291
:103320004FD1019B0022002B05DA0023B5E77B4B30
:103330009A42F0DC00227A4BAFE73429FAD83423E2
:103340005B1A1A00203A26D4944601226046524263
:1033500082409046009E019F0120404298403200EA
:103360008243914640463A00824348460243E1D1B7
:10337000002907D06246002A00DA87E03B00D340EC
:10338000DB07D7D5664AEB0FDB071A431100002095
:103390000B00020081E794460122202052421600D1
:1033A0009A40C01AC6409046B044D3E79C460123D9
:1033B00020225B421E008340121AD6409846B04439
:1033C0008DE7544EB24200D0AEE0534ABB18019A8A
:1033D000002A21DB342BADD83420C01A0400203C55
:1033E0006FD401225242A240009D019E0121494218
:1033F00081402F008F433900370097433A000A433A
:1034000098D1002B66D0002C73DB3300E340002200
:10341000DB0790D5434B40E7342B00D97BE73420C2
:10342000C01A0400203C43D401225242A240009D15
:10343000019E0121494281402F008F43390037000E
:1034400097433A000A4300D065E7002B45D0002C93
:1034500047DB3300E3400022DB0700D465E780232D
:103460001B061AE7002800DA64E7009A019B200097
:103470002900FFF777FB02000B000EE72023310045
:103480003E001B1A9E40C140711840E730002022C8
:103490003E000100D21A9640D940731870E701220D
:1034A000202152421600C91ACE409A40B218E0E6D6
:1034B0000122202152421500091ACD408240AA184B
:1034C000B5E70122202152421500091ACD40824061
:1034D000AA1889E70022134BDFE6802300221B068F
:1034E000DBE6202332001B1A9A402B00C340D3187E
:1034F000B1E7202332001B1A9A402B00C340D31897
:1035000085E7C0460000F03F0000F0BFFF07000065
:10351000FF030000FF0F000001FCFFFFFE0300009F
:103520000000F07F0000F0FF0A00984500D08DE613
:10353000034B0022994200DDFDE60023ADE6C046C4
:10354000FE03000007B5604601880A0A0230DF2A40
:10355000FAD1C9B2820804D302884088000410431B
:1035600000E00068014A5050039007BDB8120020E7
:103570000FB403BC0CBCF0B50124E407634000E0C9
:10358000F0B50C0DCF0F661E3605891B640503D3FD
:10359000C943404200D30131640D03D0661CF60AD2
:1035A00007D0E41B00207F00791C89078912803C2A
:1035B00024031D0DDF0F6E1E36059B1B6D0503D307
:1035C000DB43524200D301336D0D03D06E1CF60A6B
:1035D00007D0ED1B00227F007B1C9B079B12803DC8
:1035E0002D032F1B661B58D4A446202E46DA203705
:1035F0001400BC401D00BD40F24033412A438018F6
:103600005941CB0F05D0C943C04300226442504109
:10361000514162464D0D28D10D0D07D100281FD014
:10362000241940414941013A0D0DF9D0640006D3F7
:10363000013000D30131002C01D140084000013A93
:103640000BD4941CE40A04D112051144DB0719447D
:10365000F0BDD907204B194300E0D9070020F0BD89
:103660000029DDD1002CDBD1F0BD0132C6074008B6
:10367000CD0728434908002EE1D0D9E73C2E29DAAE
:10368000203E40371400BC4000D00124F2401443D7
:103690001A00BB401C43D317ACE7AC46202F08DA16
:1036A00020360400B4400D00B540F84039412843AD
:1036B000A5E73C2F0CDA203F40360400B44000D090
:1036C0000124F84004430800B1400C43C117EAE765
:1036D00010001900002494E70000F07FF0B50C0DF5
:1036E000661E3605891BE60A6405640D02D0651C5A
:1036F000ED0A04D0002001210905803C2403A446E2
:103700001C0D671E3F05DB1BE70A6405640D02D034
:10371000651CED0A04D0002201231B05803C240314
:103720007740644497B484B296B27443070C7E43E6
:10373000150C6F4380B26843361802D30120000491
:103740003F183004350C00197D41844688B29AB286
:1037500050430C0C62431F0C7C438EB27E43921983
:1037600002D301263604A4191604170C3618674133
:1037700001BC81B29AB25143040C62431B0C5C43FE
:1037800080B25843121802D30120000424181004F8
:10379000130C401863412D185E410020474106BCC0
:1037A00088B293B258430C0C6343120C544389B251
:1037B00051435B1802D301210904641819041A0C3F
:1037C000091862416D1856410020474118BCF902A2
:1037D000720D1143F0026A0D1043ED020A0D03D180
:1037E0006D1940414941013B124E9B1B7600B3428B
:1037F0000ED26D0007D30130002671416646354375
:1038000001D1400840001B05C918E4072144F0BD60
:103810000BDA013306D1013004D101314F0D01D053
:103820004908F2E7E1070020F0BD0136310500202C
:10383000EBE70000FF030000F0B51C0D671E3F051D
:10384000DB1BE70A6405640D02D0661CF60A04D08F
:10385000002201231B05803C2403D0252D060026D1
:10386000F6432E661E096E66CE0FF619B446490061
:103870004F0D02D07E1CF60A03D000200021403FED
:103880003F033E1BB600B444013F7F05C91B4908F6
:103890002E6F013676089C02950D25437543ED1376
:1038A0007543AD1301356D10F603761B0CB4CC02D5
:1038B000450D2C43A2B2B3B25A43270C7B43350CBF
:1038C0006F43A4B26C431B1902D3012424043F1993
:1038D0001C041D0CA4187D4124196D41009A91B25D
:1038E000ACB26143170C7C432B0C5F4392B25A433A
:1038F000A41802D301221204BF182204230C521868
:103900007B41019C6C431B19520ED9010A434401AF
:10391000A01A81B2B2B2514303145A43360C734316
:1039200087B27743D617D21900277E4136049B19F8
:103930001704160C7F185E417316ED18F30100266C
:1039400080337541A90F06D16400690AE8055B0A56
:10395000184309D22FE00422944480337541A90A08
:10396000A8059B0A184326D3404149412404009AE4
:10397000019B0D005543641B4343E41A95B286B284
:103980007543170C7E43030C5F4392B25A43B6183B
:1039900002D301221204BF183204330C52197B41A6
:1039A00052429C41002C02D4002201305141400877
:1039B000CA071043490802B06246D7079210084B65
:1039C000D218084B9A4203D212058918C919F0BDC2
:1039D0000020002A01DC3900F0BD01331905F5E7AC
:1039E000FD030000FE070000002200B5203200F0B9
:1039F00004F8080000BD000000220B150AD410B521
:103A0000944600F0A7F81414013400DA0021CB1713
:103A1000144C20470020002170476244343A0CD4F3
:103A20000C2A07DA04009140904052422032D440E0
:103A3000214310BDD843D94310BD203207D40C46D2
:103A40009440524220321141D040204310BD080022
:103A5000C917203203D452422032104110BD180041
:103A6000190010BD1B3A00104A00520D144BD21A17
:103A700013DDFF2A1EDAD205CB0FDB071A43C30082
:103A8000400F0903490A084310435B0001D301D0EA
:103A9000013070474308FBD2704702D0C80FC007FF
:103AA00070470A0312130132F8D1420F072AF5D1E9
:103AB000012200E0FF22C80F00028018C0057047F5
:103AC0008003000000210A00002104E000210A0018
:103AD000C11704E00022002306E0C0460022CB17F5
:103AE00058405940C01A994130B5184CA21A0029C3
:103AF00003D1010010D00020203A4C1512D104D27D
:103B0000013A001849414C0DFAD3114CA24204D29B
:103B100012058918DB07C91830BDD243520D0020A9
:103B20000021F5E703D4013A00184941FBD50B32D7
:103B30004405C00A4D052843C90A640003D0002487
:103B400060416141E1E7E0D34408F8E73204000056
:103B5000FE0700000A0DCC0F531E1B05C91A5205A3
:103B600003D3C943404200D30131520D03D0531C4B
:103B7000DB0A07D0121B00206400611C8907891230
:103B8000803A1203014BD21A70470000FF03000075
:103B9000023225D40C2A1CDA1125AD1A0B002B4158
:103BA000083207350600EE40904091403143F0CC9A
:103BB00063431A1500235A41554356435743BF02E6
:103BC000F412760576196741ED177F19801BB9410C
:103BD00070470C220020C917490001310905DBE7B5
:103BE0000902030E194300025342203208D40C008C
:103BF00019419440D8402043002250415141704720
:103C00000800C917203B2032F1D5002000210022F6
:103C100070470000F0B5FFF79DFF54A4FFF7B8FF11
:103C2000002904DA204C214D00196941013A04B4FD
:103C3000012752A6002201239B0730CEB446001B69
:103C4000A9410BD47E4220361D003D411C00B440EA
:103C50001600FE40344362416B4101E000196941A6
:103C600066460137212FE8D185B29EB2754307140D
:103C70007E43190C4F4384B24C43F117361900248C
:103C8000614109047F183404310C64197941A40F8F
:103C90008800204389178018594104BC52423E32A3
:103CA000FFF71DFFF0BD00006BDE73F4FD855C2C9B
:103CB000F0B54F0050D27F154ED001374FD0FFF7EF
:103CC00049FF04B44902C20D1143400201272BA64B
:103CD000B446002200237E4220360D003D410C00F8
:103CE000B4400600FE40344344414D41AE0F05D17F
:103CF00020002900664630CE121BAB410824A444A4
:103D00000137212FE7D18900891012184B4180BC5F
:103D100017A413CC0137784379437C434F05C9126C
:103D2000CD17C0196941A702A415CD17C9196C4157
:103D3000DD17801859416C413E22CD17AC4208D0A6
:103D400000090E0730430909260731432411043ABC
:103D5000F3E7FFF7C4FEF0BD02490020F0BD0249C1
:103D60000020F0BD0000F0FF0000F07FAAB80000C6
:103D70006BDE1300A3EF0F0021170B00F34B98BF6E
:103D8000EC23F319D6104DCDE3FB470E7AB9BC8A6C
:103D9000DBC18907CC542C021846E103053083E7C8
:103DA000B029F8011E1FE0874505FE00249E41ACA6
:103DB000A9807F008117624515E03F00E610ABA99E
:103DC00002F81F008858455500FE0F00C4AAA90A32
:103DD00080FF070056455501E0FF0300ABA92A000C
:103DE000F8FF010045550500FEFF0000AAAA00806B
:103DF000FF7F0000551500E0FF3F0000AB0200F818
:103E0000FF1F0000550000FEFF0F00000B0080FFA9
:103E1000FF0700000100E0FFFF0300000000F8FFC3
:103E2000FF0100000000FEFFFF0000000080FFFF18
:103E30007F00000000E0FFFF3F00000000F8FFFFF0
:103E40001F00000000FEFFFF0F00000080FFFFFFCB
:103E500007000000E0FFFFFF03000000F8FFFFFF86
:103E600001000000FEFFFFFF0000000000000080D6
:103E700000000000000000400000000051434343E8
:103E8000C9188C46110C83B24B4310B4040C614327
:103E900092B280B2504362431C041B0C001910BC48
:103EA00059411304120CC01851416144704700007D
:103EB0004840414048400E4B5B6818470C4B1B681C
:103EC00018470C4A936F9B0802D2094BDB681847CE
:103ED000F0B5146E556E576F166FFFF7F6FF054A73
:103EE0001466556657671667F0BD014B9B68184707
:103EF000B8130020000000D007B5484041404840BA
:103F000001E0C04607B54200120E03D0FF2A03D1DC
:103F1000420218D8C00DC0054A00120E03D0FF2A75
:103F200003D14A020FD8C90DC9050122414005D469
:103F3000414001D5814207BD884207BD0143491870
:103F400001D0C043001807BD00B5FFF7DBFF80417B
:103F500000BDC046491A002808D108467047000035
:103F6000C10FC90700D54042002817D0F44603B45A
:103F70000B4B1B68984706BC81409E3840428031FD
:103F800007D20B0607D04900490AC0051043084371
:103F900060470130F8E7490A8902F5E770470000F9
:103FA000381F0020034BDB6FFC4618477CDF6D4059
:103FB00000100000B8130020014B1B6D18470000D3
:103FC000B8130020132310B51C781348FEF784F8AB
:103FD000012C0BD004DD01008022104800F06CF8A9
:103FE0000F48FEF771F80F4B186010BD0B4C010025
:103FF0005422200000F060F80B4B6365A365E36575
:1040000023666366A366E36623676367A367E36764
:104010002362E361E4E7C04653460000B813002082
:104020004C330000381F00204140001010B5FFF74E
:10403000C3FF0249FFF759FF10BDC046D95BDE3E02
:1040400007B5604601880A0A0230DF2AFAD1C9B2F0
:10405000820804D3028840880004104300E000680E
:10406000014A5050039007BDB8130020C30FDB076F
:1040700041000A0E07D0FF2A08D00909054A89180D
:104080001943400770471900002070470249C918BA
:10409000FAE70000000000380000F07F014804212A
:1040A000014B184710100020E9200010014B1B683D
:1040B0001847000010100020014B5B6818470000F3
:1040C000101000209A4200D2885470477047C046B2
:1040D000F8B5DE4657464E464546E0B599460D9B37
:1040E0000700884693469B0728D00B9B002B3CD0AB
:1040F00016000B9C0A9D3619321B013C4B4641466B
:10410000285DB847002CF7D135000D9B9B070ED5D5
:104110005B46EC1A0C9BA34209D91E002A004B46B1
:10412000414620200134B8470135B442F6D3280077
:10413000F0BCBB46B246A946A046F8BD0B9B0C9A04
:10414000934214D213005D460C000B9A9E1A761906
:104150002A004B46013521002020B847B542F7D14F
:104160000B9BA046002BC4D1E1E71500CDE75E46CE
:10417000002BBED15D46DAE7F0B54F46D64646463F
:10418000C0B584B09C460EAB1F78129B9146BA46D0
:104190000D9C109E119D9B074CD4002D41D1B44223
:1041A00048D20123129F1F40B8460C9B5F1E30234C
:1041B00003E001343B55A64201D9202CF9D14346F6
:1041C000002B00D187E00C9B5F1E3023A54204D852
:1041D00030E001343B55AC422CD0202CF9D1129B5D
:1041E000DB060DD5129B5B0557D4A64267D0A542CE
:1041F00065D00F9B102B53D0022B5BD0202C36D1D7
:104200002023129C01930C9B4A460093039463461F
:104210000295FFF75DFF04B0E0BCBA46B146A84680
:10422000F0BD0123129A13409846012313422DD169
:10423000B442BAD3129BDB061ED5129B5B05D8D4C1
:10424000002CD2D10F9B102B60D00F9B022B71D072
:10425000302301240C9A13705346002B11D1129B6A
:104260005B0740D52B260C9A631C1655C9E7230023
:10427000013430260C9AD654202CC1D05346002B42
:10428000EDD02D260C9A631C1655BAE7002F34D0BA
:10429000013DB44200D288E795E70F9B102BAFD1C8
:1042A000129B9B063CD5202CAAD058230C9A135560
:1042B0000134A3E7202CA3D02300013407E0631EC0
:1042C000012CBFD00F9A102A36D0022AD1D16226F3
:1042D0000C9AD65492E7129BDB06CDD5129B5B0558
:1042E00000D482E785E7129A2300160700D488E7F6
:1042F00020260C9A0133165583E70C2313405F1ECA
:10430000BB41ED1AB44200D24FE75CE7129B9B061B
:104310000ED478230C9A02241370302353709BE739
:10432000202C00D16CE778230C9A1355013465E7F3
:104330005823EFE76033EDE70C9AA61EB618129AE1
:10434000920602D55822327093E77822327090E7B5
:1043500010B5002800D110BD01F076FBFBE7C04688
:10436000F0B54E46DE4657464546E0B595B0834625
:104370008946924698461E9A1F9B10001900209E5F
:10438000FEF721FB002800D0D2E11E981F990122E0
:10439000C44B5242FEF7FCFA002800D001E11E98FF
:1043A0001F990122C04B5242FEF708FB002800D0A3
:1043B000D6E01E981F990022BC4BFEF7FFFA00289A
:1043C00000D0B5E01E981F990022B94BFEF7E0FA25
:1043D000002800D0ACE01E981F9900220023FEF7B1
:1043E000D7FA002800D0D1E000230B93229B5B0575
:1043F00000D406260024302306E006AA0134173232
:104400001355013E202C01D0092EF6D81E981F9975
:10441000FEF702FBA74BF2009B180CCB050008929D
:104420000993FEF7E1FA02000B001E981F99FEF7B0
:1044300034FA089A099BFEF760FA06900791FEF796
:104440000FFB0700FEF7CCFA02000B000698079955
:10445000FEF723FA0022984B06900791FEF7AEFA7A
:10446000002800D1E9E001373800FEF7B9FA020070
:104470000B0008980999FEF791FA002801D000274F
:104480000135002E00D1B7E0069513E0172306AAE8
:104490009B180A21380001341D19FDF7C3FF303184
:1044A000297038000A21013EFDF7BCFF092F00D812
:1044B000E1E00700202CE9D1069D20240CAB0693F7
:1044C000172706ABFF180DE028000A21FDF782FF31
:1044D00001343031280039550A21FDF77BFF051ED4
:1044E00000D1B7E0202CEFD10323229A1340012BF7
:1044F00017D1219B002B14D00B9B002B00D1E3E0A4
:10450000219B013B2193202B0BD93023219A06E0DC
:1045100006A9013417310B55944200D3A0E0202C9A
:10452000F6D1229B01940393219B0293069B21E0E9
:10453000229B52460493219B4946039358461E9B57
:104540001F9C029600930194434600F043F9040037
:10455000200015B0F0BCBB46B246A946A046F0BD4F
:10456000229B5B070FD40322544B229901920391A3
:104570002199029100935246434649465846FFF717
:10458000A7FD0400E4E704224D4BEEE71E9A1F9BB3
:1045900000200021FEF781F901231E901F910B934B
:1045A00024E70223229A54461A40229B06929B0734
:1045B00000D1ACE02600434D08942F1F3200E8786C
:1045C00043464946013DD8470136BD42F6D1089CD5
:1045D000069B0434002BBBD05746219AE31B9A421A
:1045E000B6D9150022004346494620200134D84759
:1045F000E31BAB42F6D3ABE72800FEF7F5F9020068
:104600000B001E981F99FEF748F92B4B002206005D
:104610000F00FEF7BDF90CAB0693002800D04FE762
:10462000002230003900244BFEF7C8F9002800D0E2
:1046300046E7012301359D4342E70022069807998A
:104640001D4BFEF7A5F9002800D01AE7002F59D11D
:10465000013716E70323229A1340012B00D1A6E06D
:10466000202C00D15DE70B9B002B3AD02D23069A1E
:104670001355013455E7069D202C00D11DE730234A
:10468000361906E006AA013417321355202C00D142
:1046900013E7A642F6D12E230CAA013406929355B5
:1046A0000EE7C046FFFFEFFFFFFFEF7F65CDCD4177
:1046B00065CDCDC1C88B00100000E03F4C880010D4
:1046C00044880010548800100C23229A134257D0BB
:1046D000219B013B2193A34200D916E7202C00D156
:1046E0001FE7229B5B0704D52B23069A1355013441
:1046F00017E7229B1B0700D413E72023069A1355C4
:1047000001340EE7FB0700D4BBE60137B9E6219B75
:10471000042B00D84EE755464F46043CE4182A00C7
:104720004346013539002020D847AC42F7D141E754
:104730000227229B55461F409B0726D006975F46BF
:10474000234EEC1C2A00B078434649460135B84751
:10475000013EAC42F6D1069F002F00D1F8E6574645
:10476000219AE31B9A4200D8F2E615002200434644
:10477000494620200134D847E31BAB42F6D3E7E695
:10478000219BA34200D9C0E6CBE6219B032BD5D9C0
:10479000069754464F46033DED1822004346013428
:1047A00039002020D847A542F7D1069FC6E7219BB4
:1047B000002B00D154E70B9B002B85D0219B013BA4
:1047C00021939C4200D2A0E6202C00D04EE7A8E620
:1047D00050880010F0B54546DE4657464E46E0B5D7
:1047E0009BB0249C259D824688469346994622008C
:1047F0002B0020002900FEF7E6F8002800D0C1E0D9
:104800000122200029007C4B5242FEF7D7F80028F5
:1048100000D0B7E0012220002900784B5242FEF779
:10482000B7F8002800D0ADE00022002320002900C6
:10483000FEF7AEF8002800D0BBE10894099508986F
:1048400009998023289ADB001A400F928022289E23
:104850001201164032000E96289E0F000A901E424A
:1048600000D0A4E00B00034300D0CBE0002A00D02E
:1048700012E2320006332693022313400C930223E4
:10488000134200D00AE2279B042B00D215E2002736
:104890000426043B0E930022002320002900FEF78B
:1048A00077F8002800D0C8E1554B289A13400493AC
:1048B0000E9B0393269B0293089B099C00930194F3
:1048C00041464B465A465046FFF74AFD020020201B
:1048D000289B0025034059424B415B421840531C22
:1048E000089341464B464530D047FB17FC185C40C7
:1048F000FB0F1F270A93731E0E930AABFF1806E0E7
:1049000020000A21FDF78EFD0400202D08D00A2189
:104910002000FDF787FD013530317955092CEFD89E
:10492000052306930E9B56460593002304930A33F2
:1049300003930A9B4146029312AB009330004B460F
:10494000089A0195FFF718FC0C9B002B28D05F46B6
:10495000279BC41BA34223D982461D003A194B460C
:10496000414620200134B047A542F7D85046594669
:10497000279C421A01320023944200D395E1013072
:1049800018180DE0289B009401950493279B03932E
:10499000269B02934B465A4641465046FFF7E0FCA1
:1049A0001BB0F0BCBB46B246A946A046F0BD0143D1
:1049B0002AD10E9B3200002B00D15DE70027269BF9
:1049C0000026BB4200DD82E10022002320002900F6
:1049D000FDF7DEFF002800D04BE1289B084A029635
:1049E0001A408023DB0013430493279B0393089B07
:1049F000099C00930194CDE7FFFFEF7FFFFFEFFFDE
:104A0000FFF7FFFF06232693B24B7800400DC01836
:104A1000FDF7EAFFB04AB14BFDF76FFFB04AB14B6B
:104A2000FDF744FF3F03B04B3F0B3B430C900D9110
:104A300000220A981900AD4BFDF72FFFAC4AAD4B91
:104A4000FDF75BFF02000B000C980D99FDF72EFFA0
:104A5000FDF7E2FF0700FDF7C7FFA74AA74B0A9043
:104A60000B91FDF74AFF0022A54BFDF71FFFFDF755
:104A7000D3FFA44A06000A980B99A34BFDF73DFF0C
:104A80000A900B913000FDF7AFFFA04AA04BFDF755
:104A900034FF02000B000A980B99FDF7FEFE02009E
:104AA0000B000A900B91FDF728FF0C900D910A98CE
:104AB0000B9902000B00FDF7F9FE002210901191F6
:104AC0000C980D99934BFDF7FAFE0022924BFDF7DF
:104AD000EDFE02000B000C980D99FDF7F0FE002290
:104AE0008E4BFDF7E3FE02000B000C980D99FDF7CD
:104AF000E6FE0A9A0B9B0C900D9180210020C905BF
:104B0000FDF7CBFE02000B000C980D99FDF7CEFED1
:104B100002000B0010981199FDF7D1FE0022724B94
:104B2000FDF7C4FE7E4B0022F6183305FDF7E5FEC7
:104B300002000B000A900B9108980999FDF728FFD5
:104B4000002808D00A980B990022734BFDF7B7FE96
:104B50000A900B91013F0A990B9A0B0011003A0041
:104B60006332C62A12D802222898042610400E9AD0
:104B70000C90002A26D1279B042B05D9002800D0B1
:104B8000A1E0279B043B0E93042642E002222898D2
:104B900010400E9A0C90002A13D1279B052B00D8A9
:104BA00089E0002800D084E0279B0526053B0E9372
:104BB00032E080231B069C46AC446346089409936C
:104BC0003DE605260B4300D1F9E608980999554AB8
:104BD000554BFDF7EBFE002808D0089809990022F4
:104BE000524BFDF7D5FE002800D0E8E6269B002BAF
:104BF00034D00F9B002B31D0269B013B2693279B63
:104C0000B34204D90C9B002B59D002230C930023F0
:104C10000E93002F00D13EE60A9A0B9B0898099943
:104C2000FDF74DFE00220890099100232000290085
:104C3000FDF7AEFE002800D136E6089C099D289AB3
:104C400080203B4B00061340220004930E9B0393ED
:104C5000269B02932B180092019331E6279BB342C7
:104C6000D5D90C9B002B2AD000230E9302330C9332
:104C7000CFE7289B2E4A8020089C099D1A4080235C
:104C8000DB00134322000493279B000603932B1899
:104C90000092019302967DE6052695E600230E9389
:104CA0000233002704260C93F5E54B1E1B191B1A33
:104CB00065E602230C930526AEE70423E7E5279B70
:104CC0009B1B0E93A5E7022304260C93A1E7DB1B95
:104CD0005E1E79E601FCFFFFFB799F501344D33F32
:104CE000B3C8608B288AC63F0000F03F0000F83F41
:104CF00061436F63A787D23F71A379094F930A403D
:104D00000000E03F1655B5BBB16B0240EF39FAFE2B
:104D1000422EE63F00002C400000244000001840D6
:104D2000FF0300002D431CEBE2361A3F80842E4126
:104D3000FFF7FFFFF0B55746DE464E464546E0B565
:104D4000A3B01F002C9B92460C93C94AC94B8B46BB
:104D50000B901A60002900D1BFE1002338789946F2
:104D6000002800D1C1E1C44B4C460993C34B0E93BC
:104D70005B460A9308E0220053460A990B9DA84718
:104D800001343878002876D001372528F3D1102354
:104D90009B46083B9946043B9846033B0026022568
:104DA0009C463878791C0300203BDBB2102B03D8DB
:104DB000099A9B00D3589F460300303B092B36D9F4
:104DC00000252A2800D1A7E000230D932E283FD0EC
:104DD0000300683BDBB2122B1BD80E9A9B00D35802
:104DE0009F4663460F001E43DBE70F002E43D8E7C4
:104DF00043460F001E43D4E75B460F001E43D0E737
:104E00004B460F001E43CCE7802378785B001E439F
:104E100001310F00672845D82428ACD90300253B71
:104E2000DBB2422BA7D896499B00CB589F46002562
:104E3000AB005D196D002D1808780F000300303BA2
:104E4000303D0131092BF3D900230D932E28BFD11A
:104E50003022802052429046C000064378780B00F2
:104E600080444246092A00D851E12A2800D15EE157
:104E70000F000131ACE70A9BA1469B46CA4503D807
:104E800001235B425344994653464A465946002003
:104E90000B9DA847200023B0F0BCBB46B246A946F4
:104EA000A046F0BD0300693BDBB20F2B00D962E7DF
:104EB000012199408846734A11408B4611004246B1
:104EC0000A4200D013E10A2B2FD0072B00D052E763
:104ED0000C9D01CD002800D134E121231E43B046B2
:104EE0001F260D9A12ABF618A14694465946340077
:104EF00002E0000920290AD00F260640320037328E
:104F0000092E00D8073A013162540F28F1D86346C0
:104F10004C468B460D9322E10C9B20CB002D52DB9F
:104F200078780C930F0001314EE70C9B0D9904CB60
:104F300090469B46002900D128E143461878414419
:104F4000002801D100F029FC0D9A94460A0004E0E3
:104F500059780133002900D195E19A42F8D163468E
:104F60000D934346D31A0F93730500D46CE10F9B46
:104F70000D9A934200D90F9202231A0032400C92EC
:104F8000334200D191E20C930D9BB9461E19434662
:104F90001B1BA84622001F000B9D08E0541C534613
:104FA0000A99A847385D002800D163E122009642A3
:104FB000F4D145464F4634000C9B002B00D097E1BE
:104FC0005B460C93DDE60222787816430F006D42B3
:104FD0000C930131F8E678786C2800D159E18023F0
:104FE0005B001E43013114E780239B0078781E4349
:104FF00001310EE77878682800D150E18023013133
:105000001E4306E7672800D1C2E0472800D134E1FB
:10501000452800D134E107210C9B0D9A07338B43BF
:1050200019000496039502920CC90B980092019303
:105030000C91220053460A99FFF7CCFB0400A0E62E
:10504000462800D1A8E007210C9B0D9A07338B431B
:1050500019000496039502920CC90B9800920193D3
:105060000C91220053460A99FFF77AF9040088E66A
:10507000354D0010F41E00202C8A0010708A00109C
:10508000BC8A0010419000002200534625200A9956
:105090000B9DA847013474E60C9B04339B46631CAC
:1050A0009846B60700D4FFE00C9B220018780A99B6
:1050B00053460B9EB0476419012D00D849E245467E
:1050C0000B9EB8460A9F2A0053460135390020201E
:1050D000B047A542F7D1474672E7DB4B38780B93D0
:1050E00000239946002800D03DE60024C6E66F283C
:1050F00055D000D8BCE21023782800D19EE09E4312
:105100000A239C4600230F930A339B464DE000215F
:105110008A005218520001331118187830390200F1
:10512000303A092AF4D90D911F00591C50E60C9B06
:10513000B87804CB0237D143C9170A400D920C93BB
:10514000791C45E61023300098431133184380231F
:1051500080463000DB0018401E4200D1C0E64346C6
:105160000693082305930D9B2200049310230393B9
:10517000002302935B4601931AAB00930A995346AE
:105180000B98FEF7F9FF0C950400FAE50139D4E617
:1051900080231B011E433EE720231E4353E70823C1
:1051A0009C4600230F9308339B4680233000DB008E
:1051B00018401E4200D11AE10D233100994380238B
:1051C0000A009B001A409146194200D0C3E1802397
:1051D0000A005B001A4090460C9A04320F92194262
:1051E00000D08FE24B0600D597E10B0600D4E5E234
:1051F0000C9B1B8899464B46002B00D005E21033D0
:105200009943002800D100E2002398460D9B0691A7
:1052100004935B4603930023059502934346D9E02C
:10522000582808D0622878D102239C4600230F9387
:1052300002339B46B9E720231E43103B9C460023C4
:105240000F9310339B46B0E702231A0032400C92B2
:10525000334200D105E20C934346B9460B9E0A9FA8
:10526000A8461D1B2200534639000134B047285D73
:105270000028F7D145464F469EE680231B011E437A
:1052800020231E43C7E662460D9242469B1A0F93A7
:105290006AE6C0239B00B8781E43F91CB9E5C02319
:1052A000B8781E43F91CB4E5012D00D84AE1631E0D
:1052B0009946A9444B4652462600A146BA461C00D0
:1052C0001700A8460B9D32003B00013620200A99AA
:1052D000A847A642F7D13B0057469A464C460C9B3E
:1052E000320018780A9953460B9D4444A84767E654
:1052F000A0460F9B9D4200D862E62C190B9E4546A6
:10530000B8460A9FE41A2A00534601353900202086
:10531000B047A542F7D1474652E680233200DB0072
:105320001A4090461E4200D1F3E011218E43B4464C
:105330009846802362469B001A40934662461A4272
:1053400059D180235B001A4091460C9A04320F9287
:1053500062461A4200D0A0E163465B0600D5D4E065
:1053600063461B0600D412E20C9B00229B5ED817FA
:105370001918414089B2DA0F0C92002B00D187E155
:1053800088461F2612ABBB461495F71845464E4675
:10539000E046A14606E028000A21FDF743F8050093
:1053A000202E08D00A212800FDF73CF801363031C4
:1053B000B955092DEFD84C46C446B1465F46149DF9
:1053C000634606930D9B059504930A2303930C9B58
:1053D00002934B4601931AAB220000930A9953465D
:1053E0000B98FEF7C9FE0F9B04000C93C9E40C2335
:1053F00031009943E3E60822072191460C9B0733CD
:105400008B4399444A460ACB08000C92DA0F934624
:10541000184300D085E0002399464346002B2FD146
:10542000002200231092119300231F26994612ABED
:10543000F6185B461495BB46E04637000F934E4680
:10544000A146109C119D05E0CD40001004000D0008
:10545000202E0CD00A22002320002900FDF720F87E
:1054600001363032BA55002DF0D1092CEED80F9B01
:10547000109411955F464C46C446B1469B46149D18
:10548000634606930D9B059504930A2303935B469D
:1054900002934B4601931AAB220000930A9953469C
:1054A0000B98FEF769FE04006BE40F9B9D4200D849
:1054B00096E18023DB000C930F9B2E19F61A4346CE
:1054C0000F930D9BA84699465346BA461F000B9D65
:1054D00022003B00013420200A99A847B442F7D1AA
:1054E0000F9B454698464B460D933B0057469A46C0
:1054F00043461878002800D162E56B1C0F930C9B83
:10550000002B00D1A8E600233DE50C9B1B78190079
:1055100031E710239E43B4460BE70C9B1B7899465A
:1055200069E6DA17129213924A4010921298139970
:105530000A005A401192109A119B121A8B41109234
:10554000119371E70C9B220018780A9953460B9C23
:10555000A047444634E50822072690460C9B0733B3
:10556000B343984442460C921A685B6814920893BD
:105570001300089A134305D110339943002398462A
:10558000002838D161208B0600D5412000231F263A
:1055900098465A4612ABF618030018920F9A0A3B27
:1055A000B1461695179419974446664690469B4611
:1055B000149F089D159103E007000D00202C13D0C7
:1055C0003200002338002900FCF76AFF5B46D2B2A4
:1055D000D318092A01D8130030334A460134135531
:1055E000A845E9D1BE42E7D9189BA0469B4615992C
:1055F000169D179C199F0D9B069104935B46039380
:10560000002305950293434644E761208B0600D5AD
:1056100041201F2612ABF21803000A3B0C934B46A5
:105620004646A146A8461C005D461491BB4617009D
:1056300002E00400202E0DD029002000FCF7F2FE2D
:105640000C9BCB18092901D80B0030330136BB5510
:10565000AC42EED25F464C46AB4614994546B04646
:10566000D4E50F9B9D4200D926E701330F93F3E564
:10567000102332009A439446692800D0A2E0802388
:105680003200DB001A4090461E4200D151E64CE643
:105690004346002B00D093E673E60C9B1B68DA0FA1
:1056A000002B70D0D9175B184B4098461F2612ABC1
:1056B000F618A14614955C464546BB46E0463700C1
:1056C0000C9206E028000A21FCF7ACFE0500202C15
:1056D00008D00A212800FCF7A5FE013430313955E5
:1056E000092DEFD85F46C446A3464C46149D0C9A3C
:1056F000634606930D9B059504930A230292039338
:105700005B4667E60C9B1B689846002B03D1103361
:10571000994300282DD161208B0600D541201F26FA
:1057200012ABF61803000A3B4A460C931491434609
:105730003100A846A1465E461400BB461D000F007E
:1057400002E00500202C0DD031002800FCF76AFE95
:105750000C9BCB18092901D80B00303301343B5581
:10576000B542EED223005F464C464546B3469946C5
:1057700014990D9B069104935B46039300230595B2
:1057800002934B4626E64346002BB1D18EE70C9B95
:105790001B68D81719184140EDE580233200DB0063
:1057A0001A400F921E420FD00230020032400F9278
:1057B000304219D00023A0460F939AE50C9B1B683A
:1057C000994618E516009BE402231A0032400C9219
:1057D000334200D08CE5002D00D06DE6FFF7F0FBE2
:1057E00001330F93FFF7D0FB0C93F4E70EB410B521
:1057F000012485B007AA08CA010003920092044858
:105800006242FFF797FA05B010BC08BC03B0184716
:10581000C540001010B5094A0300146884B0002C7C
:1058200008D0012200910648524203A9A047012056
:1058300004B010BD00F052F90020F9E7F41E00207A
:105840005143001000BEFDE710B5FFF7FBFFC04657
:1058500070B5FCF799FC074D074EB54209D20024FC
:10586000013E761BB608013608CD01349847B44294
:10587000FAD170BDEC860010F4860010030010B55C
:10588000080011001B68984710BDC046F8B5437D5D
:1058900007000D001600002B38D0002A1ADD0B7807
:1058A0000A2B18D00020012E09D0012421006B5CA6
:1058B00001340A2B1AD0B442F8D1864203DD311AE2
:1058C0003B6828189847AD19013D2B780D3B5A428B
:1058D00053413B75F8BD037D002BE3D102210E48F7
:1058E0003B689847012EEED00120DEE76B1E5B5C23
:1058F0000D2BE0D0884203DA091A3B682818984734
:10590000054802213B6898472000D4E7036811004E
:1059100028009847DEE7C046188C0010F0B54646D0
:10592000D6464F46C0B582B090461C0006000D001A
:10593000FCF716FA00232F4A12184B41002B02DA0B
:1059400001222D4B52422D4908008A4602F090FE5A
:1059500081466B1C03D1300002F016FE0500002CBE
:1059600027D0274F274B1C68002C18D04346002B0C
:1059700021D1254B984602E02469002C0FD02368E2
:10598000002BF9D043461B68002B01D09C42F3D179
:1059900020002A003100B8472469002CEFD14B4683
:1059A000002B23D1280002B0E0BCBA46B146A8467D
:1059B000F0BD164FD6E7144B984602E02469002C40
:1059C000EDD02368002BF9D043461B68002B01D093
:1059D000A342F3D12A0031002000B8476B460A22C7
:1059E0002000DA71D91D093AB847E7E7504602F0BE
:1059F00007FED7E740420F00FFFFFF7F6010002047
:105A00008D580010E81A0020F01A00207D58001070
:105A10000A4A1368002B05D10CE01A001B691032EA
:105A2000002B07D08342F8D1002902D118691060F9
:105A3000196170470029FCD01060FAE7E81A0020CD
:105A400010B500F07BFA10BDF0B5CE46474680B5E4
:105A500083B06B460600DD1D2870FCF781F900233A
:105A6000194A12184B41002B02DA0122174B5242FD
:105A700017490800894602F0FBFD164B80461C685A
:105A8000002C14D0144F02E02469002C0FD023689E
:105A9000002BF9D03B68002B01D09C42F4D12000B0
:105AA00001222900FFF7F2FE2469002CEFD14346C2
:105AB000002B05D1300003B0C0BCB946B046F0BDE4
:105AC000484602F09DFDF5E740420F00FFFFFF7FD3
:105AD00060100020E81A0020F01A002070B50400C1
