:020000041000EA
:1000000000B5324B212058609868022188439860DF
:10001000D860186158612E4B002199600221596106
:100020000121F02299502B49196001219960352056
:1000300000F044F80222904214D00621196600F024
:1000400034F8196E01211966002018661A6600F04E
:100050002CF8196E196E196E052000F02FF8012189
:100060000842F9D1002199601B49196000215960AB
:100070001A491B48016001219960EB211966A021F2
:10008000196600F012F800219960164914480160C1
:100090000121996001BC002800D000471248134993
:1000A000086003C880F30888084703B5996A0420EC
:1000B0000142FBD001200142F8D103BD02B5186610
:1000C0001866FFF7F2FF186E186E02BD00000240BE
:1000D000000000180000070000035F00212200005C
:1000E000F4000018222000A00001001008ED00E03C
:1000F00000000000000000000000000074B24E7A12
:1001000000200420F7010010CB010010CD010010E9
:10011000C9010010C9010010C9010010C901001077
:10012000C9010010C9010010C901001089DB0110CC
:10013000C9010010C9010010B5DA011005DC011079
:10014000C1010010C1010010C1010010C101001067
:10015000C1010010C1010010C1010010C101001057
:10016000C1010010C1010010C1010010C101001047
:10017000C1010010C1010010C1010010C101001037
:10018000C1010010C1010010C1010010C101001027
:10019000C1010010C1010010C1010010C101001017
:1001A000C1010010C1010010C1010010C101001007
:1001B000C1010010C1010010C1010010C1010010F7
:1001C000EFF30580103800BE00BE00BE00BE00BECA
:1001D00000BE00BEF2EB8871A8940510C89405100B
:1001E0003802001090A31AE71E481F49086006C88D
:1001F00081F3088810471D480068002801D019487D
:10020000F3E70DA40ECC002902D000F012F8F9E7B4
:100210001749184A002000E001C19142FCD116495B
:100220008847164988471649884700BEFDE701C937
:1002300001C29A42FBD37047C8940510E000002029
:10024000FC110020E4A5051000000420000004209B
:10025000E4A5051000100420001004200000000098
:10026000704700000000000008ED00E0000000D032
:10027000FC1100203024012019570010F102001059
:1002800011570010F8B5C04606480749091A8B10E7
:10029000C90FC91810B5491003D0044B002B00D06A
:1002A000984710BDFC110020FC1100200000000048
:1002B000054B10B5002B03D00449054800E000BFF2
:1002C000FFF7E2FF10BDC0460000000038E200204A
:1002D00040ED011010B5002903D0034805F016FCCD
:1002E000FEE70249F9E7C04644ED011040ED011078
:1002F00010B505F03BFB054802F04AFB044805F049
:1003000083FB01F0ABF901F0B3FAFEE7DC05000076
:1003100060ED011000B5052283B004210F4B104899
:1003200000F07CF86A46BA233821D3700C48B93BF8
:10033000033200F0C7F8142002F02AFB094B01AA8F
:100340001988074811809B7838219370032300F0A7
:10035000B9F8142002F01CFB03B000BD801A06009F
:100360000040044090ED0110F0B5274B85B019888E
:1003700001AA11809B78060093703821032323483B
:1003800000F0A0F8002803D10024200005B0F0BD43
:10039000502002AD02F0FCFA06220021280003F0F2
:1003A000D1FD06232A003821184800F0A3F8041EC6
:1003B000EAD0F023EA781B0311041940AB8868786F
:1003C0005BBA9BB21943AB7800031B0118431209B7
:1003D00010430F0003F062FB0D4903F01AFBD62116
:1003E000890503F016FB7060380003F057FB0949DC
:1003F00003F00FFBD621890503F00BFB064903F040
:10040000EEFA3060C1E7C04694ED011000400440B0
:100410000000C8420000484300004842F0B5C6460C
:100420001E00244B8C460400110000B5984235D0C4
:100430001022214803681343036003689343036059
:1004400083681A42FCD0634603201C4ADB009B18D9
:100450005860634615001A4A9B009B1848225A6050
:10046000CB005B195860164B8900C91800234A60FD
:10047000E36645332360023002F09AFC710002F01B
:10048000FFFE082800D208200023E0612062A36359
:10049000E3630133E36680BCB846F0BD0820064A3A
:1004A000136803431360136883431360936818420F
:1004B000FCD0C8E70040044000C0004000400140BC
:1004C00000C001404160002B05D0D31811780132E3
:1004D00001619A42FAD10421054B02E0013B002B55
:1004E00004D0026F1142F9D0012070470020FCE7D0
:1004F00020A1070030B54160002B16D080240021D8
:100500006400013104618B42FBD11400D51808222C
:10051000084902E00139002909D0036F1A42F9D0D5
:10052000036923700134AC42F2D1012030BD0020B8
:10053000FCE7C04620A107000121144A70B51368EA
:100540000B43136013688B43136093681942FCD00C
:1005500000250C200E4B8446DD66DA6E1F24824394
:10056000DA66D4220B4884501D6765461A6FAA4389
:100570001A67DC23C450084C0820216002F018FCE4
:10058000064902F07DFE0002206170BD00C00040FF
:1005900000C001400040014000C00440006CDC028B
:1005A000094A0A49136800030B40012103430B4326
:1005B0001360136803310B431360FC3113680B4263
:1005C000FCD0506880B2704700C00440FF8FFFFF2E
:1005D000F8B5141C1E1C0F1C03F066FA114903F039
:1005E00004FA211C03F015FA0F49051C03F048FA20
:1005F000002800D00C4D0C49301C03F0F0F9291CE8
:10060000041C03F03DFA211C002800D1291C301CD9
:1006100003F0EBF9FE21890503F0E1F9391C03F041
:10062000F8F9F8BD00F07F450AD7233C70B50C1CE3
:10063000FE21051C8905201C03F022FA002804D1A4
:10064000211C281C03F0D1F970BD0020FCE7C04636
:1006500070B50E1C0021041C151C03F017FA0028AD
:1006600007D1291C201C03F099FB311C03F0D1F9A0
:1006700070BD0020FCE7C0460522074B8021DA67E9
:10068000064B3B321A64D0220020054B12060902A9
:1006900051621870916170470040014000C00140F4
:1006A0001D240120054B80221870D02312021B0646
:1006B000002801D05A6170479A61FCE71D2401208F
:1006C000014B18787047C0461D240120002310B547
:1006D000102200210361838203F034FC10BDC04668
:1006E000030070B5027D046950001D5A19520819A3
:1006F000072101320A40597D401B18611A750729EC
:1007000002D80131C9B2597502F0BAFD80B270BD8C
:1007100010B56C462489A446012910D0022905D0C1
:10072000984214D882428041404210BD0100614489
:1007300002209942F9DA002091424041F5E701197F
:10074000914206DB6344984201DC0120EDE7022080
:10075000EBE70020E9E7C046F0B557464E46454670
:10076000DE460400E0B592460D00C54B8BB0C54E89
:10077000099353461B78002B00D1E0E0203BD9B20F
:100780009B225E2901D89A00D218099B9A18531D02
:100790003F2D00D9FCE0012107200F0004936B1CC2
:1007A000DBB228409846AB1CDBB287409C46F8B2CF
:1007B00006906046EB1CDBB202932B1DDBB201936B
:1007C0006B1DDBB20093AB1DDBB20390504605936B
:1007D000AC46230007940890180600D59AE06446BA
:1007E000E408E4011C191078A4B2375D014200D17D
:1007F000B1E0069D2F43B9464F4637554446402C3D
:1008000014D007250F002C40A740FCB2A246444656
:10081000E408E4011C19A4B2375DB9464710394217
:1008200000D1ABE04F4655462F433755039C3F2C34
:1008300014D8250007240F002C40A740FCB2A24684
:10084000EC08E4011C19A4B2375DB946871039429F
:1008500000D184E04F4655462F433755029C3F2C2C
:1008600014D8072725003C400F00A740EC08E401FE
:100870001C19FFB2A4B2BA46375DB946C710394257
:1008800000D171E04F4655462F433755019C3F2C10
:1008900013D8072725003C400F00A740EC08E401CF
:1008A0001C19FFB2A4B2BA46375DB94607113942E6
:1008B0005FD04F4655462F433755009C3F2C13D8E9
:1008C000072725003C400F00A740EC08E4011C1955
:1008D000FFB2A4B2BA46375DB9464711394235D0A6
:1008E0004F4655462F433755059C3F2C12D80727B6
:1008F0003C400F00A740059CFFB2E408E4011C192E
:10090000A4B28011BA46375D01423CD03800574648
:1009100038433055049801330132DBB2824200D0B3
:100920005AE7079C089B0634E4B265469A467A2C3F
:1009300000D9A1E001239A44382D00D819E70BB063
:10094000F0BCBB46B246A946A046F0BD4F46554650
:10095000AF433755C8E7069DAF43B9464CE74F460E
:100960005546AF43375579E74F465546AF43375560
:100970008CE74F465546AF4337559EE74F465546A1
:10098000AF43375552E738005746B8433055C1E7B3
:1009900007219B466B1CDBB20493AB1CDBB20393B9
:1009A000EB1CDBB202932B1DDBB201936B1DDBB2A0
:1009B000A81D0093C3B2084006390F008740D946EE
:1009C0000693A3462300F8B205900795180647D46E
:1009D000049814783F2857D867103000F55C3942E6
:1009E00072D18D43F5540D00039FBD40A710EDB2A9
:1009F000AC46C55C394278D16746BD43C55407272C
:100A0000029D3D400F00AF40FDB2E710AC46C55C13
:100A1000394266D16746BD43C5540727019D3D4015
:100A20000F00AF40FDB22711AC46C55C394254D12E
:100A30006746BD43C5540727009D3D400F00AF40AA
:100A4000FDB26711AC46C55C394242D16746BD4331
:100A5000C554A411C55C214232D1059CA543C5549F
:100A600001330132DBB29145B0D15C460634E3B2CA
:100A7000079D7A2B00D862E708350024EDB259E7CC
:100A8000EC14021038AD002003983F2816D90298C4
:100A90003F2836D901983F2831D900983F282CD9D2
:100AA00006983F2827D901329145DED0581CC3B2A1
:100AB00000061ED4039814783F28E8D8124892E71D
:100AC000059C2543C554CBE70127BC4667463D43FB
:100AD00088E767462F433D00BAE767462F433D004E
:100AE000A8E767462F433D0096E767462F433D0042
:100AF00084E78023B4E70448ABE703489BE7024858
:100B00008BE701487BE7C04638AD00200023F0B5F5
:100B10004746CE469846503B80B59946002787B059
:100B20001D4E01AD43462B704B463B432A003C21F2
:100B30006B701A480223FFF7C5FC43462A003C218C
:100B40002B8016480223FFF7BDFC80235B012B801E
:100B50002A0002233C211148FFF7B4FC3400402353
:100B6000803C2B706B4621001022581D03F0F0F9D9
:100B7000103411232A003C210848FFF7A3FCB4429B
:100B8000F0D101378034FFB22600082FCAD107B058
:100B9000C0BCB946B046F0BDB8AD0020004004402E
:100BA00030B5052283B00421884B8948FFF736FC15
:100BB000322001F0EDFE6A46864B3C21938084484A
:100BC00001AA0223FFF77EFC80236A469B019380E3
:100BD0003C2101AA02237E48FFF774FC00246B46E7
:100BE00001AA9C803C2102237948FFF76BFC6A46EE
:100BF000794B3C219380764801AA0223FFF762FCDF
:100C00006A46764B3C219380714801AA0223FFF784
:100C100059FC6B4601AA9C803C2102236C48FFF7DB
:100C200051FC80236A465B0193803C2101AA022388
:100C300080256748FFF746FC6B46ED019D8001AAC1
:100C400002233C216248FFF73DFC6A46644B3C218D
:100C500093805F4801AA0223FFF734FCFE236A4613
:100C6000DB0193803C2101AA02235948FFF72AFCAB
:100C70006A465C4B3C219380554801AA0223FFF74A
:100C800021FC6A46584B3C219380514801AA02231B
:100C9000FFF718FC6A46554B3C2193804C4801AA4B
:100CA0000223FFF70FFCFC236A469B0193803C2143
:100CB00001AA02234648FFF705FC6A464C4B3C213B
:100CC0009380434801AA0223FFF7FCFB6A46494B85
:100CD0003C2193803E4801AA0223FFF7F3FB6B46B9
:100CE00001AA9C803C2102233948FFF7EBFB6A46AE
:100CF000414B3C219380364801AA0223FFF7E2FBD7
:100D00006A463E4B3C219380314801AA0223FFF7FB
:100D1000D9FB6A463A4B3C2193802D4801AA022315
:100D2000FFF7D0FB6A46374B3C219380284801AA45
:100D30000223FFF7C7FB6A46334B3C2193802448CC
:100D400001AA0223FFF7BEFB90236A465B01938052
:100D50003C2101AA02231E48FFF7B4FB6A462B4B35
:100D60003C2193801A4801AA0223FFF7ABFB6B4694
:100D700001AA9D803C2102231548FFF7A3FB6A4688
:100D8000234B3C219380124801AA0223FFF79AFBD0
:100D9000A0236A465B0193803C2101AA02230C48F0
:100DA000FFF790FB6A461B4B3C21938008480223C7
:100DB00001AAFFF787FB80220021D200164803F02A
:100DC000C1F8FFF7A3FE03B030BDC046801A06008D
:100DD0000040044000AEFFFF00B0FFFF00C8FFFF6F
:100DE0000081FFFF00A1FFFF00A6FFFF00A8FFFF9B
:100DF00000A4FFFF00D3FFFF00D5FFFF0080FFFF2F
:100E000000D9FFFF00F1FFFF00DAFFFF00DBFFFF6B
:100E1000008DFFFF00AFFFFF38AD0020802230B50E
:100E200004008BB0D2000021284803F08BF8E06961
:100E300002F090FE02900391A06902F08BFE244A1A
:100E400000900191182104A804F024FC0021002046
:100E500004AAFFF781FCA06802F07CFE2379022B34
:100E60002ED0012B2AD01B4B0293009001911A4ADD
:100E7000182104A804F00EFC1021002004AAFFF79A
:100E80006BFC606902F066FE237C022B1AD0012BFA
:100E90001AD0104D2023E35C104A00900191039377
:100EA0001821029504A804F0F5FB2021002004AAD3
:100EB000FFF752FCFFF72AFE0BB030BD084BD3E71B
:100EC000084BD1E7074DE5E7054DE3E738AD0020D6
:100ED000A4ED011098ED0110B8ED0110CCED01105A
:100EE000A0ED01109CED011010B5044C5F22200014
:100EF0001DF05EFB5F230022E25410BD40B10020D4
:100F0000F0B5C64600B54E4BDCB01B78002B00D1C7
:100F100091E04C4E3368002B00D18CE017F08EF935
:100F2000494B6021494A04A8984604F0B3FB48495C
:100F3000484B00918021484A49001CA81F0004F03A
:100F4000A9FB1CA8002501241DF0CAFD1CAA83B220
:100F500004A93068039502950194009418F068FC88
:100F6000434660213D4A04A804F094FB80213C4B99
:100F70003C4A490000931CA83B0004F08BFB1CA8D2
:100F80001DF0AEFD1CAA83B204A93068039502953A
:100F90000194009418F04CFC43466021324A04A8A6
:100FA00004F078FB80213B00304A49001CA804F083
:100FB00071FB1CA81DF094FD1CAA83B204A9306823
:100FC000039502950194009418F032FC4346602189
:100FD000274A04A804F05EFB80213B00254A490013
:100FE0001CA804F057FB1CA81DF07AFD1CAA83B2B4
:100FF00004A93068039502950194009418F018FC38
:1010000032221D4904A802F0A3FF80211B4B1C4A79
:1010100049001CA804F03EFB1CA81DF061FD1CAAA1
:1010200083B204A93068039502950194009418F0E6
:10103000FFFB17F00DF95CB080BCB846F0BDC046B0
:101040001E24012038B10020E0ED011004EE011053
:10105000BCEE011014EE01103CEE0110C8EE0110C0
:1010600058EF0110D8EE011064EF011074EF011079
:10107000E4EF0110F4EF011064F0011098F001109A
:10108000C0F0011070B50E4B0400150082B0002AAC
:1010900010D101260B4A0C491E70002318F036FFB0
:1010A00000230122200009490196009518F05EFDF9
:1010B00002B070BD00221A7019F064FBF8E7C04658
:1010C0001E240120D1100010E90E001098F001102C
:1010D00070B50D00140090B0DB0719D50D490E480E
:1010E0001DF0BAFC002813D10C4B1B681E1E0FD03C
:1010F000231C3F2C00D93F239AB2290068461400D4
:1011000002F026FF6946002368460B552100B047D0
:1011100010B070BD98F0011040B100203CB100202B
:1011200070B58AB012F060FC002802D000200AB02E
:1011300070BD12F0FBFB1A491A481B4B1B4A12F0F8
:1011400003FC041EF2D118F0EDFE194E30600028A9
:10115000ECD0184B1822002104A8029302F0F2FEF2
:10116000154B164D03932C7017F068F803AA3068DE
:10117000134B01920094134A02A918F0DBFE643469
:1011800017F066F805E03220013C01F001FC002C6C
:1011900002D02B78002BF6D0FFF7B2FE2878C6E7F6
:1011A0000CF1011018F1011030750000040040002E
:1011B00038B10020C0A8010A20F101101E2401202E
:1011C000851000105B070000014B18787047C0467F
:1011D0001E240120014B18607047C0463CB100201E
:1011E00030B5254B04001878D1B000283FD0234DEE
:1011F0002B68002B3DD02023E35C0C93237C0B93C6
:1012000023790A93A389099323880893606902F0DC
:10121000A1FC06900791A06802F09CFC0490059147
:10122000E06902F097FC02900391A06902F092FC41
:10123000009001918021124A490010A804F02AFA76
:1012400016F0FCFF10A81DF04BFC002283B22868AA
:1012500003920292019201320A49009210AA18F0F8
:10126000E7FA040016F0F4FF60426041C0B251B0EA
:1012700030BD0020FBE7C0461E24012038B100200D
:1012800034F1011014EE0110012200B50A4B83B0B5
:101290001A600A4B186800280CD00023002101AA0C
:1012A00001931BF0DFFE019B002B03D08022044B37
:1012B00052051A6003B000BD34700540A0B1002093
:1012C00004ED00E030B58BB02422002101A802F02B
:1012D00039FE0C4C0C4D2068002800D1FEE701229D
:1012E00001A9524219F0BAFD0128F4D1FFF76CFFB1
:1012F000002803D001A8FFF773FFECE7280004F0F3
:1013000083FBE8E7A8B10020BCF1011010B5041E72
:1013100009D0002907D009491DF0DEFA002803D0C2
:101320000122074B1A7010BD200006491DF0D4FAA7
:101330000028F8D00122024B1A70F4E7D0F1011016
:101340001C240120DCF10110F0B5DE46454657466D
:101350004E46E0B5A94BA1B018000993FFF7B6F9C6
:10136000A74B0EAC18000893FFF7B0F90822002134
:101370000CA802F0E7FDA34BA34D0693A34B0A93E1
:10138000A34B9946A34B0793A34B9B46A34B0B93AD
:10139000A34B9A46A34B0393A34B98465346DA4676
:1013A0009B469EE0079B1B78002B00D01DE101238C
:1013B000079A0020137059332B60FFF773F9002050
:1013C000FFF7EEF807000120FFF7EAF83900060002
:1013D00009980497FFF784F93100070008980596EB
:1013E000FFF77EF95B4619780C2396220093FA23C7
:1013F0000600DB003800D200FFF78AF95A46039B4B
:10140000107019780C20FA2396220090D200300038
:10141000DB00FFF77DF9039B18700CA8FEF7A4FF13
:101420000498039A20805846037805992371002375
:101430001278A18122740CA9082214A8A360636108
:101440006780E68102F084FDFFF73AF92023774AAE
:10145000E05477493800774BFFF7BAF8734A071C16
:10146000744B30007249FFF7B3F84B46061C1968FD
:10147000381CFFF7DBF85346071C1968301CFFF7D0
:10148000D5F86D4A6D49061C381CFFF7E1F86C4A27
:10149000A0606C49301CFFF7DBF8434660611868B8
:1014A000002813D000230022210019F031FA01286E
:1014B0000CD043460022186817A919F0CFFC434608
:1014C000002218682100002319F022FA2000FFF7FB
:1014D000A5FC01F06DFB00235B4A801859415B4B72
:1014E000186101220121002052421BF007FC069BDB
:1014F0001B78002B09D12B68002B00D152E7013B50
:101500002B60002B00D05AE74CE70023069A0A987C
:101510001370402604F078FA00270020FFF740F807
:10152000444B424A4249FFF753F8011C381C02F071
:1015300059FA013E071C642001F02AFA002EECD172
:10154000F221381C890502F064FA414902F04DFA93
:101550004B4618600120FFF7A5F83C36FA20013E03
:10156000800001F015FA002EF8D10020FFF79AF85C
:10157000384801F00DFA002740360120FFF710F837
:101580002C4B2A4A2A49FFF723F8011C381C02F089
:1015900029FA013E071C642001F0FAF9002EECD173
:1015A000F221381C890502F034FA2B4902F01DFAA9
:1015B0000123079A137059332B60534618604B462A
:1015C000196800F085F94B46186802F0C3FA5346D3
:1015D000060018680F0002F0BDFA32000090019179
:1015E0003B000B9804F092FA85E70023079A01204C
:1015F00013703C332B60FFF755F8E0E604AD002094
:101600001CAD00201C240120E8100020E8F101108E
:10161000F01000201F240120EC10002008F201101F
:101620002824012029240120A8B10020333353406D
:1016300000401C460000A040000080BF0000204188
:10164000D34DC2BF8115C64240420F000040054045
:1016500066666640307500000000D841F0B5242170
:1016600083B00022082019F0EFF8654B1860FEF7F0
:1016700063FFFFF701F80120FFF714F8FEF74AFEB9
:10168000FFF78EFA5F4F604E3900300000F0F4F83B
:10169000002800D09BE05D4804F0B6F94025002406
:1016A0000020FEF77DFF5A4B5A4A5B49FEF790FF38
:1016B000011C201C02F096F9013D041C642001F07D
:1016C00067F9002DECD1F221201C890502F0A1F967
:1016D000524902F08AF9386002F03CFA02000B002D
:1016E0004F4804F013FA4F4804F08EF90120FEF73A
:1016F000D9FF3C24FA20013C800001F049F9002C7C
:10170000F8D10020FEF7CEFF474801F041F940250F
:1017100000240120FEF744FF3D4B3E4A3E49FEF7C0
:1017200057FF011C201C02F05DF9013D041C6420E0
:1017300001F02EF9002DECD1F221201C890502F0D8
:1017400068F93A4902F051F90122394B30601A70B8
:10175000384B59321A6002F0FDF902000B0036488E
:1017600004F0D4F93968306800F0B2F8FFF7D8FC1B
:10177000002840D03148FFF72DFD314B80220193E6
:10178000022330490093D20000232F481AF012FCA4
:101790000124C0222D4BD20001932D490023009437
:1017A0002C481AF007FC00202B4900F0BFFA012159
:1017B000002000F085FA294B1C6001F0F9F90023A4
:1017C000274A80185941274B186103B0F0BD38688B
:1017D00002F0C0F9040030680D0002F0BBF9224F9E
:1017E0000090019122002B00380004F08FF9FFF7E0
:1017F00097FC0028BED11D4804F006F9BAE7C046A0
:10180000A8B10020F0100020EC10002030F20110F0
:101810000000A0403333534000401C4666666640DB
:101820004CF2011064F20110307500000000D84144
:101830001F240120E810002080F201100D13001079
:10184000A0B10020F8F2011049130010A4B100204B
:10185000FCF20110C512001089120010386005401A
:1018600040420F000040054094F20110C8F2011000
:1018700010B51AF091FD10BD114B70B51A680E002D
:101880001049050000208A4202D15968012900D080
:1018900070BD0C000C4909684C400C490968614056
:1018A0004A4019699142F3D1002D01D09B682B6009
:1018B000002E02D0024BDB6833600120E8E7C0460F
:1018C00000F01F100DF0C0A10CF01F1008F01F1049
:1018D000012310B5134AC6B000920193124B039135
:1018E00041404B400290EC22FF210BA8049302F0F0
:1018F00029FB1422694606A802F02AFBEFF31084A4
:1019000072B68021094849011DF0BEF980220748BE
:10191000520006A91DF0A0F984F31088012046B0FA
:1019200010BDC0460DF0C0A10CF0C0A100F01F001A
:1019300010B54024074A83009A181268C00054402A
:10194000C0222240044C1B191A60044BC01841608D
:1019500010BDC04604C0014004D001400040014019
:10196000064B8000C3181B68C90092000A435A4006
:101970000C231340024A80180360704704C00140E2
:1019800004D001408000002904D0054BC018022378
:1019900003607047034BC01802230360F9E7C04699
:1019A00004E0014004F00140D0231B061B6810B581
:1019B00014005A4253412F225B4293430D4A9B1815
:1019C000C2089446072210406246800081403C32A3
:1019D000094892001150604680001B18002C04D06A
:1019E000802292019B18196010BDC02292019B18A1
:1019F0001960F9E73041014000400140F0B5D026C0
:101A0000C646360633680C4D9B009046EA580400E3
:101A10000F0000B5104209D1390014430D20424691
:101A2000EC5000F0ADF980BCB846F0BD01F0CEFA44
:101A300033689B00EA58EFE78422012010B50400C8
:101A40000D2000F083FAD0231B061B6802499B007F
:101A50005A58A2435A5010BD842201200123D0229B
:101A60008340120693629361084A83009A181168B2
:101A70004022514080320A400549C0005B181A607C
:101A8000044BC018052343607047C04604C00140A2
:101A900004D00140004001408023DB051868000F9E
:101AA0007047C0460FB400B5084883B003F0ACFFE0
:101AB000049B002B07D005A91800019103F00EFE2E
:101AC000034803F0A1FF012003F020FE04F30110FE
:101AD000D410021010B50148FFF7E4FF14F3011011
:101AE000EFF3108072B6034A1368002BFCD0BFF3EB
:101AF0005F8F70472C0100D0BFF35F8F0022024B35
:101B00001A6080F3108870472C0100D070B58C46A5
:101B10001600EFF3108472B60F490B68002BFCD04F
:101B2000BFF35F8F6346DB08C5180722C05C6346BE
:101B30001A40012393401A000240034207D1184380
:101B40002870BFF35F8F0A6084F3108870BD614610
:101B50003000FFF7A7FFC0462C0100D0F8B5CE46F5
:101B600047468C4680B51C00EFF3108872B61C49BE
:101B70000B68002BFCD0BFF35F8FA24221D8072354
:101B8000994602E00132944218D349460126114099
:101B90008E40D308C718C35C1E42F3D110003343F4
:101BA0003B70BFF35F8F00220D4B1A6088F31088E3
:101BB00000280EDBC0BCB946B046F8BD012040424B
:101BC000EFE7BFF35F8F00230B6088F310880120DD
:101BD00040426346002BEDD00898FFF763FFC046F4
:101BE0002C0100D010B584460A00EFF3108472B6C1
:101BF0000B490B68002BFCD0BFF35F8F0723D00885
:101C0000134001229A4063461B5C9343624613547F
:101C1000BFF35F8F00230B6084F3108810BDC046B4
:101C20002C0100D0044A1078431CDBB2172B00D9DA
:101C3000102313707047C046F410002000B5054B08
:101C400083B00100009318221F230348FFF786FF8B
:101C500003B000BD24F30110249E00200021044B9A
:101C6000044ABFF35F8F02C39342FAD17047C04664
:101C7000000100D0800100D0084B094A1360094AD6
:101C80001360094A1360094A1360094A1360094A3C
:101C90001360094A1360094A13607047808080808E
:101CA00000E400E004E400E008E400E00CE400E00C
:101CB00010E400E014E400E018E400E01CE400E0BC
:101CC0001F2318401E3B8340002905D0C021044A31
:101CD0004900535013607047802201498B50FAE746
:101CE00000E100E001228240034B1B6813405A1EB2
:101CF0009341D8B27047C04600E100E00123834021
:101D0000014A13607047C04600E200E0054B103006
:101D10009B688000C358044A00209B1A2F229A42D5
:101D20004041704700ED00E0F810002070B50D0054
:101D3000EFF3108672B60F4A1368002BFCD0BFF386
:101D40005F8F0D4B10309B6884001B590B4A9342E8
:101D500003D09D4201D001F039F9074B9B681D511A
:101D6000BFF35F8FBFF35F8F0022024B1A6086F3D1
:101D7000108870BD240100D000ED00E0C10100100A
:101D8000F0B5DE4657464E464546E0B5824683B03E
:101D90008B461700EFF3108872B6604A1368002B69
:101DA000FCD0BFF35F8F00255D4B5D579946002D3A
:101DB00000DA9AE04A466B005A4C5E19B60001936D
:101DC000A31900939B791370574B9A6853461033AD
:101DD0009B00D15899460B1B2F2B32D9534B99425C
:101DE00000D098E0019B0236ED18514BAD006353D3
:101DF000504BA619043B9B1B4F4A1B055B0D6519F5
:101E000013436B804D4B0121AB80FF23AB715B46CD
:101E1000AB60009BEF710B4319004A46424B9B6835
:101E20009950BFF35F8FBFF35F8F00223B4B1A6067
:101E300088F3108803B0F0BCBB46B246A946A04662
:101E4000F0BD01200A008243D379B446BB422DD8AD
:101E50003B4BB51C190013001B1B5B415943090D7B
:101E60008C46334B6519A353324B0099043B5B1BE3
:101E70001B05314D5B0D2B4304364B80A619131FF8
:101E80009B1B1B055B0D1D4363468B715B468B6083
:101E90002C4B8D80CF7113600143BEE75800C018F2
:101EA00080002018C679BE4225D902000623D356E9
:101EB000002BF3DA9A46131D9C4623486346009E86
:101EC0009571043EF61A36051B4B760D1E43019B99
:101ED00096805A1953469200A418A3715B46194A7A
:101EE000A0802260E771A36097E701F06FF80025FA
:101EF0004B465D575EE766469A46131D9C469088A2
:101F0000043640050015A6196044801B00050A4EE2
:101F1000400D3043D2E701F059F863E7240100D0C7
:101F200020240120F810002000ED00E0C101001085
:101F300000A1FFFF2811002000E0FFFF01BDFFFF0F
:101F4000AAAA00000148804701BD0000F0B545463F
:101F5000DE4657464E46E0B50D0083B0EFF31088DD
:101F600072B6604A1368002BFCD0BFF35F8F5E4BE4
:101F70005E499A68030010339F00D45999468C42F9
:101F80003ED0AC424FD05A4EA21B2F2A38D8594BC4
:101F90001A689C4613000122824013401F2202400F
:101FA00001209A4690406346802283469850BFF3B2
:101FB0005F8FEFF305830193002B36D0994501D055
:101FC00001F004F8012322009A439068854208D169
:101FD00076E04B005B189B00F3189868854236D07A
:101FE0001A00062151560029F3DA854254D053468F
:101FF000002B27D0C02259463E4B52009950196001
:10200000394B9B68DC51BFF35F8FBFF35F8F0022BA
:10201000344B1A6088F3108803B0F0BCBB46B2465C
:10202000A946A046F0BD0C00EAE7220001339A431E
:1020300090688542D5D106201056130000280ADA90
:102040000C0031E0802359462A4AD150D8E70620B7
:102050001856002821DB420011188900751889469E
:10206000A9689960E979D9710621695699710029A1
:1020700024DBAD88F11A6D052D154D44491909056C
:102080001D4D490D2943998013181C4A9B00117856
:10209000F31899711070AAE713000199002914D15F
:1020A000FF3191711649918014490A789A71154A45
:1020B0009B1B5B415A43120D0A7098E71049E2E7F7
:1020C0000620105613000028C5DA0F4A0F49D21A0D
:1020D000083A5002400D014399800D4952080A43C5
:1020E000DA8084E7240100D000ED00E0C101001097
:1020F000F810002000E100E000E0FFFF20240120B4
:1021000001BDFFFFAAAA00003211002000F0FFFF6E
:1021100000F8FFFF084A83089B009B181A6810B557
:10212000140003221040C000FC328240944322007D
:1021300081400A431A6010BD00E400E0012303431C
:1021400070B59C46EFF30581EFF3108572B6214A16
:102150001368002BFCD0BFF35F8F1F4B04001F4A96
:10216000E41A64416243120D1D4C8900A66852B204
:10217000765866451CD00621595691421CD0122132
:102180005956914222D01E215956914220D02A21DF
:1021900059560324914210D0124B19781A7081714C
:1021A000BFF35F8F00220B4B1A6085F3108870BD60
:1021B000A3680D4C5C50EFE7002461000919890009
:1021C0005B18FF21997109499980E5E70124F4E73B
:1021D0000224F2E7240100D0F8100020AAAA00008F
:1021E00000ED00E020240120C101001001BDFFFF2F
:1021F00000B5074B83B0010000930022052305487A
:10220000FFF7ACFC002801DB1F23181A03B000BD48
:1022100040F301102D240120024BC91889000160F0
:102220007047C0464000003470B5114C114DAC42AF
:102230000FD2FF262368002B0CD0FFF7F3FC010020
:102240002000FFF7E9FFA680BFF35F8F0834AC42A0
:10225000F0D370BDFFF7E6FC01002000FFF7DCFFC4
:102260002671BFF35F8F0834AC42E3D3F1E7C04679
:10227000F4110020FC11002010B50400FFF7D2FC7F
:1022800001002000FFF7C8FFFF232371BFF35F8F1A
:1022900010BDC04610B504000120FFF7CFFC034B72
:1022A000C01880002060BFF35F8F10BD4000003475
:1022B000034BC91889000160BFF35F8F7047C046A8
:1022C000400000340A4B1968EFF3108072B60A68B8
:1022D000002AFCD0BFF35F8F1B68BFF35F8F002223
:1022E0001A6080F3108840BF002000217047C0466C
:1022F000A4230120F0B5DE4657464E464546E0B5DC
:1023000085B0EFF3058303221A40B34B91005F5869
:10231000012393409B4602925A468846AF4B1A606F
:10232000AF4B03935B46AF4843630823FE5E002E2A
:1023300037DABB881BB2002B00DBA4E0BB79002B93
:1023400000D0E5E00823F95E002920DB4B007A6924
:102350005B18DB00D3189D68DC686B1C00D104E1BE
:10236000A04801004144826A0B69AE1A9B1A9E4242
:1023700015D30123026A029883401A420FD099486C
:1023800000F00EFC8C4202DCCCD18542CAD940BFA1
:1023900005B0F0BCBB46B246A946A046F0BD0D61F3
:1023A000EDE77A69730091469B19DB0099444B462F
:1023B0009C68DD6800F0F4FB8D42BADC00D1F6E0E9
:1023C000002D00DADBE04A464B4652691B69924613
:1023D000039A934200D1CCE04A460821785E5288A5
:1023E0000004514610439847009001910099019ACA
:1023F0000B00134300D1C2E013000A00002B00DBE6
:10240000D9E020002900801A99414B469860D96094
:1024100000229B5E002B00DA8BE75D007C69EA18E6
:10242000D200A21800949468D268A2468A4200DDC5
:102430007FE702D1844200D97BE70824A4463B8190
:10244000BC44009C00972F006546B4463E0006E061
:102450005E00F218D200A2189768D268BA468A4283
:1024600007DC00D1B4E0F318DB00E518E35E002BD5
:10247000EEDA66464A46009F13802E80BB881BB268
:10248000002B00DA5AE73A69EFF3108172B613684D
:10249000002BFCD0BFF35F8F0123BE885B42BB8063
:1024A00036B23B69BFF35F8F00221A6081F3108858
:1024B000002E00DA42E73B0008333A0099467D6976
:1024C00073009B190824115FDB004846EB180029B4
:1024D00013DB9C680093A446DC6806E0A34240D06E
:1024E0000023F95E3800002906DB4F007F18FF004B
:1024F000EF19FB68A342F1DD009B068000201E5E01
:102500001980002EDCDA1700BB79002B00D119E707
:102510000023BB710823F95E4B1C00D137E73D0057
:102520000835AC467C6903E084464B1C00D109E7C2
:102530004B005B18DB00E0180A00E15E43881BB229
:10254000002BF1DA01256D42EE178560C660082583
:102550007B5F9342E9D0634619803B8903803A81CF
:10256000E3E7BB686345BBD9C6E7631C00D0F7E669
:1025700005E7534650461B699847002823D14B4630
:102580001B883A693B81EFF3108372B6116800290A
:10259000FCD0BFF35F8F49467A880A803A697E8013
:1025A000BFF35F8F0021116083F31088C1E684427E
:1025B00000D805E7BDE60B4800F0F2FA009B019C4D
:1025C000C018614121E753460CCB009201930DE7FF
:1025D000824500D847E74CE758E200203C700540B0
:1025E000F52200100040054070B52D4C2569002DE6
:1025F00004D00A212B48FFF70FFE70BD2A4E03219D
:10260000294800F0C3FAE660FFF70CFB274B0322D2
:10261000C018D02322701B061B6801216370244B55
:102620008000A3600F232061022063806369494218
:10263000A18019800231198647311D835852183103
:102640005A5275325C399952183201319952183206
:1026500001319952183201319952083518329D5280
:10266000023118329952183201319952183201311F
:102670009952183201319952183201319952183257
:10268000013199520B4B0C49DC6001303562FFF788
:102690004DFB01210320FFF713FB084B1D60A8E74A
:1026A00040110020A42301200040054040000034D8
:1026B000FFFF100058E20020F522001038600540AE
:1026C0000048704740110020F8B51F0008AB1B7888
:1026D00004001600002B07D100F06AFA32003B001C
:1026E000121A8B41002B51DB2269EFF3108C72B66A
:1026F0001368002BFCD0BFF35F8F0223E15E2569D6
:1027000000293ADB4B0060695B18DB00C218C35A32
:102710006380BFF35F8F00232B608CF31088069BD0
:102720009660D7601361079B5361538801335B0444
:102730005B0C181C002B1ED083B250800804184379
:102740002569EFF3108672B62B68002BFCD0BFF31F
:102750005F8FA3881380A1802369BFF35F8F00225E
:102760001A6086F31088237801329A400849E3689A
:102770005B181A60F8BD0120DEE7BFF35F8F00230E
:102780002B608CF3108801204042F3E70020F1E732
:102790003C20000070B582B00092019301000269F4
:1027A000EFF3108472B61368002BFCD0BFF35F8F79
:1027B0000223C85E0D6900283FDB4A69430016000A
:1027C0001B18DB00D218F35A4B80BFF35F8F002336
:1027D0002B6084F31088069B1361079B5361009B59
:1027E000019C9360D460538801335B045B0C1D1C17
:1027F000002B20D0ACB20304558023430D69EFF3C6
:10280000108C72B62C68002CFCD0BFF35F8F8C88C4
:10281000148088800A69BFF35F8F002010608CF3FA
:1028200010880A7801309040CA6808495218106030
:10283000180002B070BD0125DCE7BFF35F8F0023F5
:102840002B6084F31088013BF2E7C0463C20000077
:1028500010B543890A1493421ADD53009B1842694C
:10286000DB00D3180469EFF3108C72B62268002ADB
:10287000FCD0BFF35F8F5A88090494B2090C8A42D6
:1028800008D00369BFF35F8F00221A608CF31088B1
:10289000002010BD094A22435A8001230269837136
:1028A000BFF35F8F002111608CF310880278044918
:1028B0009340C268012052181360EAE70080FFFFCE
:1028C0003C20000040787047F0B506000F00062459
:1028D0006442E517A4197D4183B08D4212D80FD010
:1028E00000F066F922002B00121A8B41002B13DC3A
:1028F000002B41D03000390000F064F903B0F0BD86
:102900008442EDD90024002500F052F922002B006A
:10291000121A8B41002BEBDD00F04AF922002B004C
:10292000121A8B41002B0ADB00230193144B220067
:10293000009314482B00FFF72DFF0130DAD0290057
:10294000114A1248536A994204D8956AA542D1D2D5
:102950009942CFD10568EFF3108C72B62B68002B2B
:10296000FCD0BFF35F8F0368BFF35F8F00251D604E
:102970008CF3108820BFE5E7002ABBD0CCE7C04627
:10298000C52200104011002000400540A423012072
:10299000F0B5C64600B582B0040000F009F9FA228D
:1029A00006000F00200000230021920000F0FAFF33
:1029B0008019794104000D1E02DA01242E4D644273
:1029C00006267642F71736196F41AF4214D811D058
:1029D00000F0EEF832003B00121A8B41002B15DCA0
:1029E000002B46D02000290000F0ECF802B080BC9B
:1029F000B846F0BDA642EBD90026002700F0D8F873
:102A000032003B00121A8B41002BE9DD00F0D0F8B8
:102A100032003B00121A8B41002B0ADB002301938A
:102A2000164B3200009316483B00FFF7B3FE01300F
:102A3000D8D000233900B0469C46124A1248536A47
:102A4000994204D8966A4645CCD29942CAD10668C2
:102A5000EFF3108772B63368002BFCD0BFF35F8FA3
:102A60000368BFF35F8F66461E6087F3108820BF40
:102A7000E5E7002AB6D0C9E7FFFFFF7FC5220010B7
:102A80004011002000400540A4230120F0B5CE46AF
:102A9000474680B504000D0085B0EFF305868946F2
:102AA000002E10D0364900204B6AAB4206D38A6A0A
:102AB0005B1B591E8B41A2424041184305B0C0BC6C
:102AC000B946B046F0BD2F4FFB683A7898461800DB
:102AD000039200F065F8039A131D42469B009B5831
:102AE00022001B1A9C462B00121A8B419E4210DCBE
:102AF0000DD020BF224A0020536A4B45DED3926A94
:102B00005B1B591E8B41A24240411843D6E79445B6
:102B1000EFD900F04DF822002B00121A8B41002B48
:102B20001BDB00230193184B2200009338002B007D
:102B3000FFF730FE002810DD114B5A6A4A451CD3BE
:102B40009B6AA34217D301003800FFF781FE0C4AAD
:102B50000020536A4B45B1D3D1E7094A0020536A9C
:102B60004B45ABD30020926A5B1BA24240415A1EE8
:102B700093411843A2E74A45E5D120BFE3E7C046A9
:102B80000040054040110020C522001010B5024A47
:102B90000248FEF7BBFF10BD5CF30110289E002029
:102BA0000300416A0A00986A596A8A42FAD170475A
:102BB000034B596A0A00986A596A9142FAD17047E0
:102BC00000400540064A536A9942FCD807D1044B9D
:102BD00002E05A6A914202D19A6A9042F9D870474B
:102BE00000400540F8B5DE464E4645465746E0B53E
:102BF00005008B4618000A99914600F041FB0A9B9C
:102C00006C001E026419304BA400E418636880460F
:102C10009E4200D966602F1FFBB29A46012B2FD926
:102C2000C0238022294FAD009B0179591201E3187E
:102C30001A6000291BD14B4622685B015340E022F9
:102C4000134080225201A21813605346012B2FD942
:102C5000802380229B01E31812011A6043466660BC
:102C60007B51F0BCBB46B246A946A046F8BD786988
:102C700000F006FB013043001B18033BFDD2DAE7EE
:102C80005B46012BCCD1C02303229B01E3181A60C1
:102C9000023AA3681A42FCD04A46236852015A40BD
:102CA000E023134080225201A218084F1360AD00A8
:102CB00058460323216841400B40136001228240A3
:102CC000A3681A42FCD0C3E700800040309E002079
:102CD000F0B5D6464F464646440098462418324B37
:102CE000A400E41863688A469146C0B5FF2B02D859
:102CF00080235B006360061FF6B2012E2FD9C0232C
:102D000080222A4F85009B0179591201E3181A602D
:102D100000291BD14B4622685B015340E02213403F
:102D200080225201A2181360012E30D98023802204
:102D30009B01E31812011A6080235B006360434625
:102D40007B51E0BCBA46B146A846F0BD786900F0B8
:102D500097FA013043001B18033BFDD2DAE75346D4
:102D6000012BCCD1C02303229B01E3181A60023A45
:102D7000A3681A42FCD04A46236852015A40E02315
:102D8000134080225201A218084F1360850050465C
:102D90000323216841400B40136001228240A36855
:102DA0001A42FCD0C2E7C04600800040309E00209E
:102DB000014B8000C0587047309E0020F0B5C646D9
:102DC000040000B52348160098460D0000F058FA9C
:102DD0000100300000F054FA4346069A1B04120327
:102DE00013439C4623680600002B22DB1A4B1B482A
:102DF000E218531E9A4180235242120B9B01120388
:102E0000D218174B1A60174B1A60130001688B43D6
:102E1000FBD12122144B2560E318A6601A602268BA
:102E2000002AFCDA6246E26008221A6080BCB846DA
:102E3000F0BD3F2322681340AB42D7D1A3681B05E6
:102E40001B0D8342D2D1EE22E368D20213406345C8
:102E5000CCD1EBE7001BB7000040FDBF08C000402D
:102E600000E0004000F000400430000010B5802475
:102E70001C4BE4051C6000281AD001231A4C18438F
:102E80001A4BDC611A4C44401C62596298628021E2
:102E9000144BC9051960174817490860E021C90497
:102EA0001960002A07D18022144B12061A6010BD47
:102EB0000E4BD861EBE753019B1A9B009A188023B5
:102EC00012015B049A4209D213000D490B60074BB3
:102ED0005A608022094BD2051A60E8E7094B1A00B4
:102EE000F3E7C04600B00540D3C007B000800540FE
:102EF0002D3FF84FFCFF01000820014000A00540D5
:102F0000DCB50020FFFFFF008023024A9B000B433B
:102F1000D362704700800540002310B50100988AF5
:102F20001B8B984710BDC046162310B501001888AA
:102F30005B88984710BDC046F8B54746CE4680B579
:102F40000F1E18D0142399460433040000250126CF
:102F500098464B461888434621681B88984701C409
:102F6000431E984101350640AF42F2D13000C0BC4B
:102F7000B946B046F8BD0126F8E7C046002370B553
:102F800004000D00988A05491B8B98470300002018
:102F9000002C01DB0130A040290098475542000079
:102FA000AA23064A1B0113608D235B00D3600449EA
:102FB000044B19605368002BFCDA70470040024054
:102FC00000B0FA00006002407047C04610B50148EA
:102FD000FEF768FD80F3011070B5074D074EB5424E
:102FE00009D20024013E761BB608013608CD013413
:102FF0009847B442FAD170BDF8EC011034ED0110DD
:10300000054B064A06491A60064A074B1A6010002B
:103010000B689843FBD1704700E00040BFCDFBFE3A
:1030200008C00040FE7F3C0000F00040044BDB6C19
:10303000002B03D18022034BD2021A607047C04696
:10304000000011504C201150044A054B1A60054AEB
:103050001368DB018033FBD17047C046FFFFFF01DF
:1030600000F0004008C000404022034B9A675A67B6
:103070001A67DA667047C04600F0014010B5FEF7E7
:10308000EDFD10BD70B52849284D294E6D1AAC10C4
:103090002200302C00D930223000920000F058FF7E
:1030A000BC2D3DD823002A3B224A052B1DD93020B8
:1030B00075196D07A446001BEB0F002D03DA611C88
:1030C0008C46A1007250C01AE3189B004108F31807
:1030D000C900C9181A605A6008339942FAD101230D
:1030E00003421DD0984360440400A300F250631CC7
:1030F0002F2C15D09B00F250A31C2E2C10D09B001F
:10310000F250E31C2D2C0BD09B00F250231D2C2CD5
:1031100006D09B00F250631D2B2C01D09B00F25077
:10312000054B9E6070BDC04600010010C00100103C
:1031300000000020C101001000ED00E0002310B5E8
:10314000294C82B0A367FFF72BFF0122274B1A609F
:10315000636C012BFCD10322254B1A60224A936B2E
:10316000012BFCD1013300930121224A2248043370
:10317000FFF724FE052301210093204A2048FFF792
:103180001DFE0022022104201E4BFFF7A1FD00229C
:10319000012105201C4BFFF79BFD00220021072089
:1031A0001A4BFFF795FD002200210820174BFFF76F
:1031B0008FFD8023DB000093002200210920134BA8
:1031C000FFF710FD0022104B00210620FFF780FDC5
:1031D0000420FFF7EDFD0E4900F052F80100002039
:1031E000FFF792FE02B010BD008000403CB00040EE
:1031F00030B00040002F685900800240008C8647A4
:1032000000C00240001BB70040597307006CDC028D
:1032100040420F0001480421014B18476011002073
:10322000392F0010014B9B681847000060110020E7
:10323000124A936F9B0815D29066D166002905D07B
:10324000FFE7FFE7FFE7516F106F704704B580217C
:103250000906C2175140002800D0C8431BF004FDE6
:10326000002104BDF0B5146E556E576F166FFFF751
:10327000E3FF1466556657671667F0BD000000D07F
:10328000114A936F9B0813D210665166002905D02E
:10329000FFE7FFE7FFE7516F106F704704B50028A5
:1032A00001D00020C0431BF0DFFC002104BDC0465C
:1032B000F0B5146E556E576F166FFFF7E5FF146685
:1032C000556657671667F0BD000000D094464A4A1D
:1032D000926F9208624601D228E0C046F0B5464E91
:1032E000346E756E776F366F00F020F89446424A60
:1032F00014665566576716676246F0BD94463E4AA7
:10330000926F9208624601D254E0C046F0B53A4E40
:10331000346E756E776F366F00F04CF89446364A0F
:1033200014665566576716676246F0BD002B24DBAE
:1033300011D000293EDA00B5C943404200D1013125
:1033400000F038F8C943404200D10131DB4352421A
:1033500000D1013300BD002AEBD1002801D10029A2
:1033600005D00020C90FC90701D1C043410800B5ED
:103370001BF062FC0022002300BD00B500290ADB1F
:10338000DB43524200D1013300F014F8C9434042FC
:1033900000D1013100BDC943404200D10131DB43BE
:1033A000524200D1013300F005F8DB43524200D114
:1033B000013300BD002923D1002B18D1002A0CD0E5
:1033C000BC460D4F38667A6600210023FFE7FFE711
:1033D000FFE77A6F386F67467047002801D00748CB
:1033E000010000B51BF028FC0022002300BD0200F4
:1033F0000B00002000217047000000D0FFFFFFFFFE
:10340000002B00D0BFE0130C28D1002AE7D080B4F5
:10341000114F39667A66FFE7FFE730B4040C7B6F23
:10342000396F1B0423433B667A66FFE7FFE7FFE73C
:10343000C04684B27B6F3D6F1B0423433B667A66B4
:10344000FFE7FFE7C04600232C042D0C7A6F386F8E
:1034500000196941B0BC7047000000D0F0B5944637
:103460000025140E01D112020835140F01D11201EA
:103470000435940F01D192000235D40F01D15200CE
:103480000135D40B0134254F7C66254C3C660E0C6F
:1034900093B2FFE7FFE7FFE73C6F6643360C770325
:1034A000BE467343DF0B5B04C01AB941130C734370
:1034B000DB18C91ACE086643360CB64493B2734380
:1034C0001F0F1B01C01AB941130C73431F0B1B05BF
:1034D000C01AB941860D8F023E436643360C092D52
:1034E00024DB520A7243801A7703460A6643360C7D
:1034F00016235B1BDE40DF40BF1964466643821B18
:103500007046043506330100D940A840C01900D3E5
:103510000131A24206D20023F0BD0000000000D01D
:10352000FFFFFFFF121B0130F3D3F1E709277F1BD9
:10353000FE406446A2B27243801A00D20139220CC6
:103540007243130C1204821A99410B007046043521
:1035500013370100F940A840801900D30131002B36
:1035600002D1A2420AD2F0BD013000D30131121BB8
:10357000FAD2013BF8D1A24200D2F0BD013000D313
:103580000131121BF7E7F0B51C0C00D080E00CB441
:1035900000251C0A04D11B02160E33431202083503
:1035A0001C0B04D11B01160F3343120104359C0B75
:1035B00004D19B00960F334392000235DC0B02D1FD
:1035C00092185B4101351C00971864410134464F45
:1035D0007C66464C3C660E0CFFE7FFE7FFE7C04603
:1035E0003C6F6643360C7703BE4697B27743C01BE9
:1035F00000D20139C01B00D201399FB27743C91BE9
:10360000C91B170C77437E04FF0B801BB941CE0802
:103610006643360C0C2D33DBB644120B1F053A43C0
:103620001B0B97B27743C01B00D201399FB277437F
:10363000C91B170C77433E043F0C801BB941860D14
:103640008F023E43664329277F1BFE400C3D774691
:10365000AF40BF1930BCA2B2ABB272437343801A01
:103660009941220C7243130C1204801A99410200F2
:103670000B000137001BA941F9D2781E0021F0BDD3
:103680000C277F1BFE4077467F0BAF40FF19E0E71A
:1036900000245D1C07D0144F7D663966FFE7FFE705
:1036A000FFE7FFE73C6F95B29EB265436643401B60
:1036B000B141150C1E0C6543664336042F0C3E4386
:1036C0002D04401BB141994204D202000B0020009E
:1036D0000021F0BD01D19042F7D3801A9941013405
:1036E0009942F2D3F6E70000000000D0FFFFFFFF91
:1036F00048404140484018B4134B5B68019308BDF3
:1037000018B4114B1B68019308BD94460F4A926F81
:10371000920805D2624618B40B4BDB68019308BDD2
:103720000A4AF0B5146E556E576F166F6246FFF772
:10373000F2FF064A1466556657671667F0BD18B45F
:10374000014B9B68019308BDD0140020000000D0FD
:10375000FFB550404240504059404B40594000E076
:10376000FFB5154F4C00640D03D0BC4204D10C03CF
:1037700014D80020090D09055C00640D03D0BC427B
:1037800004D11C030AD800221B0D1B0501264B4047
:1037900009D44B4003D58B4200D18242FFBD9942F0
:1037A000FCD19042FFBD0B43DB1803431343F5D01C
:1037B000C9434918FFBD0000FF07000000B5FFF72F
:1037C000CFFF804100BDC04600B5FFF7C9FF01D95A
:1037D000002000BD012000BD00B5FFF7B9FF01D9F1
:1037E000002000BD012000BD00B5FFF7B1FF804102
:1037F00000BD012040054A00121804D85A001218D2
:1038000001D80020704701207047000000210028E7
:1038100005D17047C1174840401AFAD0C90713B5FF
:10382000064B1B6898470CBC441CA2401005120BA9
:103830000349091B09051943114310BDA0220120AA
:103840001F04000010B54C00620D8023D218DB006D
:10385000D21A5B057E2A10DD9E3A13DACC170903D3
:10386000490819435242D140640001341532202ADC
:1038700005DAD0400843604310BD002010BD084663
:10388000604310BDC80FC018013810BD18B4024BFA
:103890005B6A019308BD0000D014002018B4024BED
:1038A000DB6F019308BD0000D014002018B4024B58
:1038B000DB6C019308BD0000D014002018B4024B4B
:1038C0001B6D019308BD0000D014002010B5014805
:1038D000FEF7E8F88CF30110132370B51D78012D65
:1038E00019D014DD1D48FFF71FFB06001C48FFF729
:1038F0001BFB1C4C80223100200000F029FB022D14
:1039000006D01948FFF708FB184B186070BD154C1E
:10391000174BA364F5E7174B124C23606360A36059
:10392000E36023616361A361E36123626362A36275
:10393000E36223636363A363E36323646364A36455
:10394000E36423656365A365E36523666366A36635
:10395000E36623676367A367E367D9E7534400001F
:1039600053460000D01400204C330000A022012058
:1039700079390010CD38001007B5604601880A0A71
:103980000230DF2AFAD1C9B2820804D30288408803
:103990000004104300E00068014A5050039007BD46
:1039A000D014002051434343C9188C46110C83B2F4
:1039B0004B4310B4040C614392B280B25043624353
:1039C0001C041B0C001910BC59411304120CC01824
:1039D00051416144704700004840414048400E4B0F
:1039E0005B6818470C4B1B6818470C4A936F9B0881
:1039F00002D2094BDB681847F0B5146E556E576F4D
:103A0000166FFFF7F6FF054A146655665767166787
:103A1000F0BD014B9B681847A4220120000000D094
:103A200007B548404140484001E0C04607B5420064
:103A3000120E03D0FF2A03D1420218D8C00DC005D0
:103A40004A00120E03D0FF2A03D14A020FD8C90D33
:103A5000C9050122414005D4414001D5814207BD3D
:103A6000884207BD0143491801D0C043001807BD73
:103A700000B5FFF7DBFF01D0002000BD012000BD35
:103A800000B5FFF7D3FF804100BDC04600B5FFF78A
:103A9000CDFF01D9002000BD012000BD491A00283A
:103AA00008D1084670470000C10FC90700D5404241
:103AB000002817D0F44603B40B4B1B68984706BC8C
:103AC00081409E384042803107D20B0607D0490022
:103AD000490AC0051043084360470130F8E7490A26
:103AE0008902F5E770470000A022012041000A0E7C
:103AF00080231B067E2A0BDD9E3A0BDAC11740029B
:103B0000400818435242D0404900013148437047B1
:103B100000207047C00FC01801387047C0420DD355
:103B200000B540004008002100F00EF8002801D444
:103B3000404200BD8020000600BD0000014BDB6953
:103B400018470000A4220120014B5B6A18470000BF
:103B5000A4220120014BDB6F18470000A4220120A2
:103B600010B50148FDF79EFFC4F20110132310B5F4
:103B70001C781148FFF7D8F9012C0BD004DD0100A7
:103B800080220E4800F0E4F90D48FFF7C5F90D4B0F
:103B9000186010BD094C01005422200000F0D8F933
:103BA00022002000084980320368002B00D1016008
:103BB00004309042F8D1E7E753460000A4220120E8
:103BC0004C330000A0220120613B0010F0B5D64626
:103BD0004F4646460C00C0B5051C012954D0CB0FFA
:103BE0005B185B101F00012B46D00323CA1713403C
:103BF0005B189B109846012B36D0072313405B18A7
:103C0000DB109946012B29D00F2313405B181B11A1
:103C10009A46012B19D01F2313405B185E11012E09
:103C20000AD03F21114009198911FFF7CFFF011C6C
:103C3000FFF7EFFEF30730D4011CFFF7EAFE53460F
:103C4000DB0702D5291CFFF7E4FE011CFFF7E1FEAC
:103C50004B46DB0702D5291CFFF7DBFE011CFFF7F3
:103C6000D8FE4346DB0714D4011CFFF7D2FEFB0746
:103C700002D5291CFFF7CDFE011CFFF7CAFEE407A1
:103C800002D5291CFFF7C5FEE0BCBA46B146A846DE
:103C9000F0BD291CFFF7BDFEE6E7291CFFF7B9FEC2
:103CA000CAE7C046F8B50400061C0D1C002816DA49
:103CB0004B001B0E7F3B172B0DD801201722010054
:103CC000D21A91400139294205D1002B21D02B0075
:103CD000D34018421DD180231B06E418261C281C43
:103CE000FFF704FFFF232200DB0501001A401C42FE
:103CF00003D09A4201D063022BD0041E13D00300DC
:103D00002033402B12D8002835DB301CFFF75EFF34
:103D100008E080231B06E018291CFFF7C3FF80235F
:103D20001B06C018F8BDFE208005FBE7301CFFF71E
:103D300011FFFFF7C3FD06000F00281CFFF70AFF65
:103D400032003B00FFF7FBFCFFF7B0FDFFF7A6FDDD
:103D5000E8E7114B984216DA1800E40D7F3C604307
:103D600003007F33002B12DDFE2B12DCFE23C00587
:103D70009B05C018D6E7FE20311C8005FFF735FEF5
:103D80006142061CC1E7FF28E7DDFF20E5E70020D0
:103D9000C8E7FF20C005C5E700FFFFFFF0B50D1C19
:103DA000FE2183B08905061CFFF762FE341C002843
:103DB00028D1FF27FF053B002B4001932F4224D041
:103DC0005949301CFFF754FE002821D0019BBB420B
:103DD0001BD0EB0DFF2B52D0534CFF210A001A4091
:103DE00019420AD07F3A52D4162A06DC17239A1AAF
:103DF000163B9340013B2B4249D1291C301CFFF755
:103E000051FF041C201C03B0F0BDFE24A405F9E7FB
:103E1000374214D1EB0D002D19DB7F3B172B0CD84B
:103E2000012017220100D21A91400139294204D100
:103E3000002BE7D0D5402842E4D10024E2E7F20D80
:103E4000FF2A3AD1002DF8DBFF24E405DAE7FF2250
:103E500013407F3B172BF7D801200100E83AD21A14
:103E6000914001392942EFD1002B02D0D5402842A0
:103E7000EAD0FF24F60FF607E4053443C2E78022B8
:103E8000FF32FF2313407E2BDED80024BAE7002C3C
:103E9000DADB301CFFF75EFEFFF710FD06000F00B7
:103EA000281CFFF757FE32003B00FFF748FCFFF7E6
:103EB000FDFCFFF7F3FC041CA4E71C49EB0D8A4250
:103EC00009D0FF2BDDD08B4200D086E7FF231340C3
:103ED0007E2BB9D9B1E7002D11DB7F3B172BB3D86F
:103EE0000122E939FF39C91A8A40013A2A42ABD185
:103EF000002B02D0CD40ED07A6D50D4C82E7FF2266
:103F000013407F3B172B98D81721FE3AC91A8A40D5
:103F1000013A2A4291D1002B02D0CD40ED078CD539
:103F2000802424066EE7C046000080BFFF01000029
:103F3000000080FF01480421014B18477011002048
:103F4000392F0010014B1B6818470000701100202A
:103F5000014B5B6818470000701100209A4200D2A4
:103F6000885470477047C046F8B5DE4657464E46FF
:103F70004546E0B599460D9B0700884693469B074A
:103F800028D00B9B002B3CD016000B9C0A9D3619A9
:103F9000321B013C4B464146285DB847002CF7D107
:103FA00035000D9B9B070ED55B46EC1A0C9BA3427C
:103FB00009D91E002A004B46414620200134B8474B
:103FC0000135B442F6D32800F0BCBB46B246A94640
:103FD000A046F8BD0B9B0C9A934214D213005D4689
:103FE0000C000B9A9E1A76192A004B4601352100C7
:103FF0002020B847B542F7D10B9BA046002BC4D177
:10400000E1E71500CDE75E46002BBED15D46DAE75D
:10401000F0B54F46D6464646C0B584B09C460EAB7A
:104020001F78129B9146BA460D9C109E119D9B07CE
:104030004CD4002D41D1B44248D20123129F1F40DD
:10404000B8460C9B5F1E302303E001343B55A6426B
:1040500001D9202CF9D14346002B00D187E00C9BDD
:104060005F1E3023A54204D830E001343B55AC42FA
:104070002CD0202CF9D1129BDB060DD5129B5B05B1
:1040800057D4A64267D0A54265D00F9B102B53D0C2
:10409000022B5BD0202C36D12023129C01930C9B49
:1040A0004A460093039463460295FFF75DFF04B010
:1040B000E0BCBA46B146A846F0BD0123129A1340AF
:1040C0009846012313422DD1B442BAD3129BDB068A
:1040D0001ED5129B5B05D8D4002CD2D10F9B102B80
:1040E00060D00F9B022B71D0302301240C9A1370E7
:1040F0005346002B11D1129B5B0740D52B260C9AFF
:10410000631C1655C9E72300013430260C9AD65497
:10411000202CC1D05346002BEDD02D260C9A631CC9
:104120001655BAE7002F34D0013DB44200D288E7DB
:1041300095E70F9B102BAFD1129B9B063CD5202CF3
:10414000AAD058230C9A13550134A3E7202CA3D0EE
:104150002300013407E0631E012CBFD00F9A102A00
:1041600036D0022AD1D162260C9AD65492E7129BFD
:10417000DB06CDD5129B5B0500D482E785E7129A5A
:104180002300160700D488E720260C9A0133165521
:1041900083E70C2313405F1EBB41ED1AB44200D2EB
:1041A0004FE75CE7129B9B060ED478230C9A0224FF
:1041B0001370302353709BE7202C00D16CE77823D9
:1041C0000C9A1355013465E75823EFE76033EDE7A8
:1041D0000C9AA61EB618129A920602D55822327070
:1041E00093E77822327090E710B5002800D110BD17
:1041F00001F0C0FBFBE7C04610B5002803D04A68B9
:104200000B681100984710BDF0B54E46DE46574684
:104210004546E0B595B083468946924698461E9A33
:104220001F9B10001900209EFFF7E3FA002800D022
:10423000D2E11E981F990122C44B5242FFF7BEFAE9
:10424000002800D001E11E981F990122C04B524264
:10425000FFF7CAFA002800D0D6E01E981F99002266
:10426000BC4BFFF7C1FA002800D0B5E01E981F999B
:104270000022B94BFFF7A2FA002800D0ACE01E984C
:104280001F9900220023FFF799FA002800D0D1E0FF
:1042900000230B93229B5B0500D4062600243023C9
:1042A00006E006AA013417321355013E202C01D036
:1042B000092EF6D81E981F99FFF7C4FAA74BF200F3
:1042C0009B180CCB050008920993FFF7A3FA020094
:1042D0000B001E981F99FFF70EFA089A099BFFF72B
:1042E0002EFA06900791FFF7D1FA0700FFF78EFA32
:1042F00002000B0006980799FFF7FDF90022984B82
:1043000006900791FFF770FA002800D1E9E0013725
:104310003800FFF77BFA02000B0008980999FFF7B5
:1043200053FA002801D000270135002E00D1B7E054
:10433000069513E0172306AA9B180A2138000134BA
:104340001D19FEF79DFF3031297038000A21013E0A
:10435000FEF796FF092F00D8E1E00700202CE9D1F5
:10436000069D20240CAB0693172706ABFF180DE023
:1043700028000A21FEF75CFF01343031280039554E
:104380000A21FEF755FF051E00D1B7E0202CEFD122
:104390000323229A1340012B17D1219B002B14D009
:1043A0000B9B002B00D1E3E0219B013B2193202BB1
:1043B0000BD93023219A06E006A9013417310B5599
:1043C000944200D3A0E0202CF6D1229B01940393C9
:1043D000219B0293069B21E0229B52460493219B42
:1043E0004946039358461E9B1F9C029600930194D6
:1043F000434600F043F90400200015B0F0BCBB4672
:10440000B246A946A046F0BD229B5B070FD403220B
:10441000544B2299019203912199029100935246A3
:10442000434649465846FFF79FFD0400E4E704224F
:104430004D4BEEE71E9A1F9B00200021FFF75BF912
:1044400001231E901F910B9324E70223229A5446C6
:104450001A40229B06929B0700D1ACE02600434DF8
:1044600008942F1F3200E87843464946013DD8475B
:104470000136BD42F6D1089C069B0434002BBBD00C
:104480005746219AE31B9A42B6D9150022004346AB
:10449000494620200134D847E31BAB42F6D3ABE7B3
:1044A0002800FFF7B7F902000B001E981F99FFF7CD
:1044B00022F92B4B002206000F00FFF77FF90CAB0F
:1044C0000693002800D04FE7002230003900244B2B
:1044D000FFF78AF9002800D046E7012301359D4304
:1044E00042E70022069807991D4BFFF767F900285D
:1044F00000D01AE7002F59D1013716E70323229A7B
:104500001340012B00D1A6E0202C00D15DE70B9BCE
:10451000002B3AD02D23069A1355013455E7069DFA
:10452000202C00D11DE73023361906E006AA0134FD
:1045300017321355202C00D113E7A642F6D12E23B3
:104540000CAA0134069293550EE7C046FFFFEFFF19
:10455000FFFFEF7F65CDCD4165CDCDC1C018021005
:104560000000E03FECF30110E4F30110F4F301105C
:104570000C23229A134257D0219B013B2193A34243
:1045800000D916E7202C00D11FE7229B5B0704D53A
:104590002B23069A1355013417E7229B1B0700D4DF
:1045A00013E72023069A135501340EE7FB0700D4C6
:1045B000BBE60137B9E6219B042B00D84EE75546F0
:1045C0004F46043CE4182A004346013539002020B8
:1045D000D847AC42F7D141E70227229B55461F40FE
:1045E0009B0726D006975F46234EEC1C2A00B07826
:1045F000434649460135B847013EAC42F6D1069FD5
:10460000002F00D1F8E65746219AE31B9A4200D8C2
:10461000F2E6150022004346494620200134D847DF
:10462000E31BAB42F6D3E7E6219BA34200D9C0E6E9
:10463000CBE6219B032BD5D9069754464F46033D25
:10464000ED1822004346013439002020D847A54206
:10465000F7D1069FC6E7219B002B00D154E70B9BA7
:10466000002B85D0219B013B21939C4200D2A0E6E8
:10467000202C00D04EE7A8E6F0F30110F0B5454637
:10468000DE4657464E46E0B59BB0249C259D8246AB
:1046900088469346994622002B0020002900FFF708
:1046A000A8F8002800D0C1E00122200029007C4B9E
:1046B0005242FFF799F8002800D0B7E0012220000D
:1046C0002900784B5242FFF779F8002800D0ADE07E
:1046D0000022002320002900FFF770F8002800D0F6
:1046E000BBE108940995089809998023289ADB0072
:1046F0001A400F928022289E1201164032000E9618
:10470000289E0F000A901E4200D0A4E00B00034335
:1047100000D0CBE0002A00D012E23200063326930C
:10472000022313400C930223134200D00AE2279B7A
:10473000042B00D215E200270426043B0E9300222E
:10474000002320002900FFF739F8002800D0C8E135
:10475000554B289A134004930E9B0393269B029378
:10476000089B099C0093019441464B465A4650468B
:10477000FFF74AFD02002020289B002503405942F4
:104780004B415B421840531C089341464B46453011
:10479000D047FB17FC185C40FB0F1F270A93731EC2
:1047A0000E930AABFF1806E020000A21FEF768FD11
:1047B0000400202D08D00A212000FEF761FD0135FC
:1047C00030317955092CEFD8052306930E9B5646B8
:1047D0000593002304930A3303930A9B41460293F3
:1047E00012AB009330004B46089A0195FFF710FC7E
:1047F0000C9B002B28D05F46279BC41BA34223D9C8
:1048000082461D003A194B46414620200134B047EC
:10481000A542F7D850465946279C421A0132002338
:10482000944200D395E1013018180DE0289B0094C4
:1048300001950493279B0393269B02934B465A466C
:1048400041465046FFF7E0FC1BB0F0BCBB46B24609
:10485000A946A046F0BD01432AD10E9B3200002B91
:1048600000D15DE70027269B0026BB4200DD82E1E8
:104870000022002320002900FEF7A0FF002800D01E
:104880004BE1289B084A02961A408023DB00134321
:104890000493279B0393089B099C00930194CDE705
:1048A000FFFFEF7FFFFFEFFFFFF7FFFF06232693DA
:1048B000B24B7800400DC018FEF7ACFFB04AB14BC8
:1048C000FEF73DFFB04AB14BFEF71AFF3F03B04B76
:1048D0003F0B3B430C900D9100220A981900AD4B01
:1048E000FEF709FFAC4AAD4BFEF729FF02000B00B3
:1048F0000C980D99FEF704FFFEF7A4FF0700FEF7E2
:1049000089FFA74AA74B0A900B91FEF718FF0022D8
:10491000A54BFEF7F5FEFEF795FFA44A06000A98A0
:104920000B99A34BFEF70BFF0A900B913000FEF79B
:1049300071FFA04AA04BFEF702FF02000B000A988D
:104940000B99FEF7D8FE02000B000A900B91FEF7C0
:10495000F6FE0C900D910A980B9902000B00FEF7E1
:10496000CFFE0022109011910C980D99934BFEF7F9
:10497000CCFE0022924BFEF7C3FE02000B000C9807
:104980000D99FEF7C2FE00228E4BFEF7B9FE020023
:104990000B000C980D99FEF7B8FE0A9A0B9B0C9031
:1049A0000D9180210020C905FEF7A5FE02000B0035
:1049B0000C980D99FEF7A4FE02000B0010981199B7
:1049C000FEF7A3FE0022724BFEF79AFE7E4B0022FA
:1049D000F6183305FEF7B3FE02000B000A900B91A8
:1049E00008980999FEF7EAFE002808D00A980B9962
:1049F0000022734BFEF789FE0A900B91013F0A9942
:104A00000B9A0B0011003A006332C62A12D8022218
:104A10002898042610400E9A0C90002A26D1279B35
:104A2000042B05D9002800D0A1E0279B043B0E935E
:104A3000042642E00222289810400E9A0C90002A88
:104A400013D1279B052B00D889E0002800D084E0F3
:104A5000279B0526053B0E9332E080231B069C46D0
:104A6000AC446346089409933DE605260B4300D108
:104A7000F9E608980999554A554BFEF7ADFE00280E
:104A800008D0089809990022524BFEF797FE00289B
:104A900000D0E8E6269B002B34D00F9B002B31D0B2
:104AA000269B013B2693279BB34204D90C9B002BEA
:104AB00059D002230C9300230E93002F00D13EE621
:104AC0000A9A0B9B08980999FEF71FFE002208908E
:104AD0000991002320002900FEF770FE002800D174
:104AE00036E6089C099D289A80203B4B000613401F
:104AF000220004930E9B0393269B02932B18009293
:104B0000019331E6279BB342D5D90C9B002B2AD0C9
:104B100000230E9302330C93CFE7289B2E4A80206C
:104B2000089C099D1A408023DB0013432200049354
:104B3000279B000603932B180092019302967DE6B3
:104B4000052695E600230E930233002704260C93D6
:104B5000F5E54B1E1B191B1A65E602230C9305266F
:104B6000AEE70423E7E5279B9B1B0E93A5E70223F3
:104B700004260C93A1E7DB1B5E1E79E601FCFFFF18
:104B8000FB799F501344D33FB3C8608B288AC63F3C
:104B90000000F03F0000F83F61436F63A787D23FFA
:104BA00071A379094F930A400000E03F1655B5BB49
:104BB000B16B0240EF39FAFE422EE63F00002C4076
:104BC0000000244000001840FF0300002D431CEBB0
:104BD000E2361A3F80842E41FFF7FFFFF0B55746BB
:104BE000DE464E464546E0B5A3B01F002C9B9246DC
:104BF0000C93C94AC94B8B460B901A60002900D10F
:104C0000BFE1002338789946002800D1C1E1C44BA8
:104C10004C460993C34B0E935B460A9308E022006F
:104C200053460A990B9DA84701343878002876D05E
:104C300001372528F3D110239B46083B9946043BB6
:104C40009846033B002602259C463878791C0300D1
:104C5000203BDBB2102B03D8099A9B00D3589F4608
:104C60000300303B092B36D900252A2800D1A7E0C4
:104C700000230D932E283FD00300683BDBB2122B9C
:104C80001BD80E9A9B00D3589F4663460F001E43C5
:104C9000DBE70F002E43D8E743460F001E43D4E75F
:104CA0005B460F001E43D0E74B460F001E43CCE788
:104CB000802378785B001E4301310F00672845D8B8
:104CC0002428ACD90300253BDBB2422BA7D8964958
:104CD0009B00CB589F460025AB005D196D002D1839
:104CE00008780F000300303B303D0131092BF3D928
:104CF00000230D932E28BFD13022802052429046AF
:104D0000C000064378780B0080444246092A00D848
:104D100051E12A2800D15EE10F000131ACE70A9B86
:104D2000A1469B46CA4503D801235B42534499469A
:104D300053464A46594600200B9DA847200023B001
:104D4000F0BCBB46B246A946A046F0BD0300693B95
:104D5000DBB20F2B00D962E7012199408846734AE4
:104D600011408B46110042460A4200D013E10A2B43
:104D70002FD0072B00D052E70C9D01CD002800D189
:104D800034E121231E43B0461F260D9A12ABF618BC
:104D9000A14694465946340002E0000920290AD071
:104DA0000F26064032003732092E00D8073A01316B
:104DB00062540F28F1D863464C468B460D9322E18E
:104DC0000C9B20CB002D52DB78780C930F00013127
:104DD0004EE70C9B0D9904CB90469B46002900D1D1
:104DE00028E1434618784144002801D100F029FC0D
:104DF0000D9A94460A0004E059780133002900D145
:104E000095E19A42F8D163460D934346D31A0F9326
:104E1000730500D46CE10F9B0D9A934200D90F9259
:104E200002231A0032400C92334200D191E20C93DB
:104E30000D9BB9461E1943461B1BA84622001F00A6
:104E40000B9D08E0541C53460A99A847385D00287A
:104E500000D163E122009642F4D145464F4634002A
:104E60000C9B002B00D097E15B460C93DDE6022201
:104E7000787816430F006D420C930131F8E678788C
:104E80006C2800D159E180235B001E43013114E7F7
:104E900080239B0078781E4301310EE778786828DC
:104EA00000D150E1802301311E4306E7672800D17D
:104EB000C2E0472800D134E1452800D134E1072180
:104EC0000C9B0D9A07338B431900049603950292AD
:104ED0000CC90B98009201930C91220053460A9939
:104EE000FFF7CCFB0400A0E6462800D1A8E007218C
:104EF0000C9B0D9A07338B4319000496039502927D
:104F00000CC90B98009201930C91220053460A9908
:104F1000FFF77AF9040088E6DD4B0010D4B50020D5
:104F20002417021068170210B417021041900000F5
:104F30002200534625200A990B9DA847013474E6A8
:104F40000C9B04339B46631C9846B60700D4FFE0D5
:104F50000C9B220018780A9953460B9EB04764199F
:104F6000012D00D849E245460B9EB8460A9F2A000B
:104F70005346013539002020B047A542F7D14746B6
:104F800072E7DB4B38780B9300239946002800D05A
:104F90003DE60024C6E66F2855D000D8BCE21023B9
:104FA000782800D19EE09E430A239C4600230F935D
:104FB0000A339B464DE000218A005218520001330B
:104FC0001118187830390200303A092AF4D90D91B5
:104FD0001F00591C50E60C9BB87804CB0237D14314
:104FE000C9170A400D920C93791C45E61023300036
:104FF000984311331843802380463000DB0018406B
:105000001E4200D1C0E643460693082305930D9B3C
:105010002200049310230393002302935B46019321
:105020001AAB00930A9953460B98FEF7F1FF0C95C3
:105030000400FAE50139D4E680231B011E433EE754
:1050400020231E4353E708239C4600230F93083375
:105050009B4680233000DB0018401E4200D11AE13D
:105060000D233100994380230A009B001A4091468A
:10507000194200D0C3E180230A005B001A40904629
:105080000C9A04320F92194200D08FE24B0600D5E1
:1050900097E10B0600D4E5E20C9B1B8899464B4632
:1050A000002B00D005E210339943002800D100E224
:1050B000002398460D9B069104935B4603930023BF
:1050C000059502934346D9E0582808D0622878D144
:1050D00002239C4600230F9302339B46B9E720230B
:1050E0001E43103B9C4600230F9310339B46B0E7B2
:1050F00002231A0032400C92334200D105E20C9395
:105100004346B9460B9E0A9FA8461D1B22005346E4
:1051100039000134B047285D0028F7D145464F4695
:105120009EE680231B011E4320231E43C7E66246E2
:105130000D9242469B1A0F936AE6C0239B00B878F3
:105140001E43F91CB9E5C023B8781E43F91CB4E529
:10515000012D00D84AE1631E9946A9444B465246A8
:105160002600A146BA461C001700A8460B9D320037
:105170003B00013620200A99A847A642F7D13B0000
:1051800057469A464C460C9B320018780A9953466B
:105190000B9D4444A84767E6A0460F9B9D4200D85C
:1051A00062E62C190B9E4546B8460A9FE41A2A006F
:1051B0005346013539002020B047A542F7D1474674
:1051C00052E680233200DB001A4090461E4200D196
:1051D000F3E011218E43B4469846802362469B003B
:1051E0001A40934662461A4259D180235B001A4006
:1051F00091460C9A04320F9262461A4200D0A0E106
:1052000063465B0600D5D4E063461B0600D412E279
:105210000C9B00229B5ED8171918414089B2DA0F07
:105220000C92002B00D187E188461F2612ABBB46AB
:105230001495F71845464E46E046A14606E028007C
:105240000A21FEF71DF80500202E08D00A212800AB
:10525000FEF716F801363031B955092DEFD84C4616
:10526000C446B1465F46149D634606930D9B059563
:1052700004930A2303930C9B02934B4601931AABAE
:10528000220000930A9953460B98FEF7C1FE0F9B2C
:1052900004000C93C9E40C2331009943E3E608228F
:1052A000072191460C9B07338B4399444A460ACB0E
:1052B00008000C92DA0F9346184300D085E00023D3
:1052C00099464346002B2FD10022002310921193C0
:1052D00000231F26994612ABF6185B461495BB4671
:1052E000E04637000F934E46A146109C119D05E005
:1052F000653F001004000D00202E0CD00A22002370
:1053000020002900FDF7FAFF01363032BA55002D92
:10531000F0D1092CEED80F9B109411955F464C46A6
:10532000C446B1469B46149D634606930D9B059566
:1053300004930A2303935B4602934B4601931AABF3
:10534000220000930A9953460B98FEF761FE040071
:105350006BE40F9B9D4200D896E18023DB000C9309
:105360000F9B2E19F61A43460F930D9BA84699469C
:105370005346BA461F000B9D22003B0001342020FB
:105380000A99A847B442F7D10F9B454698464B4629
:105390000D933B0057469A4643461878002800D1A3
:1053A00062E56B1C0F930C9B002B00D1A8E6002339
:1053B0003DE50C9B1B78190031E710239E43B44652
:1053C0000BE70C9B1B78994669E6DA171292139249
:1053D0004A401092129813990A005A401192109A5A
:1053E000119B121A8B411092119371E70C9B2200B2
:1053F00018780A9953460B9CA047444634E5082286
:10540000072690460C9B0733B343984442460C92C0
:105410001A685B68149208931300089A134305D125
:105420001033994300239846002838D161208B0619
:1054300000D5412000231F2698465A4612ABF61885
:10544000030018920F9A0A3BB146169517941997C4
:105450004446664690469B46149F089D159103E07E
:1054600007000D00202C13D0320000233800290043
:10547000FDF744FF5B46D2B2D318092A01D81300C6
:1054800030334A4601341355A845E9D1BE42E7D925
:10549000189BA0469B461599169D179C199F0D9B1E
:1054A000069104935B4603930023059502934346BC
:1054B00044E761208B0600D541201F2612ABF2186D
:1054C00003000A3B0C934B464646A146A8461C00E7
:1054D0005D461491BB46170002E00400202E0DD05B
:1054E00029002000FDF7CCFE0C9BCB18092901D820
:1054F0000B0030330136BB55AC42EED25F464C4612
:10550000AB4614994546B046D4E50F9B9D4200D961
:1055100026E701330F93F3E5102332009A439446B4
:10552000692800D0A2E080233200DB001A409046B8
:105530001E4200D151E64CE64346002B00D093E6D4
:1055400073E60C9B1B68DA0F002B70D0D9175B1821
:105550004B4098461F2612ABF618A14614955C46A0
:105560004546BB46E04637000C9206E028000A217B
:10557000FDF786FE0500202C08D00A212800FDF743
:105580007FFE013430313955092DEFD85F46C446CE
:10559000A3464C46149D0C9A634606930D9B0595B5
:1055A00004930A23029203935B4667E60C9B1B68F5
:1055B0009846002B03D11033994300282DD1612048
:1055C0008B0600D541201F2612ABF61803000A3BBC
:1055D0004A460C93149143463100A846A1465E46C4
:1055E0001400BB461D000F0002E00500202C0DD06A
:1055F00031002800FDF744FE0C9BCB18092901D887
:105600000B00303301343B55B542EED223005F46E8
:105610004C464546B346994614990D9B0691049312
:105620005B4603930023059502934B4626E64346CB
:10563000002BB1D18EE70C9B1B68D817191841407D
:10564000EDE580233200DB001A400F921E420FD09E
:105650000230020032400F92304219D00023A0469F
:105660000F939AE50C9B1B68994618E516009BE47E
:1056700002231A0032400C92334200D08CE5002DF8
:1056800000D06DE6FFF7F0FB01330F93FFF7D0FB7F
:105690000C93F4E784460CB400B585B006AB0A0061
:1056A00002CB0548039300930B006146FFF796FA7F
:1056B00005B008BC02B018475D3F001000B585B0CA
:1056C0000391012102900093034813004A4202A96A
:1056D000FFF784FA05B000BDF941001010B5094A82
:1056E0000300146884B0002C08D001220091064801
:1056F000524203A9A047012004B010BD00F084F974
:105700000020F9E7D4B50020E941001000BEFDE714
:1057100010B5FFF7FBFFC04670B5FDF75DFC074D08
:10572000074EB54209D20024013E761BB608013669
:1057300008CD01349847B442FAD170BD34ED011060
:1057400040ED0110030010B5080011001B689847D8
:1057500010BDC046F8B5437D07000D001600002BB4
:1057600038D0002A1ADD0B780A2B18D00020012E21
:1057700009D0012421006B5C01340A2B1AD0B442F9
:10578000F8D1864203DD311A3B6828189847AD19D5
:10579000013D2B780D3B5A4253413B75F8BD037DCB
:1057A000002BE3D102210E483B689847012EEED032
:1057B0000120DEE76B1E5B5C0D2BE0D0884203DA34
:1057C000091A3B6828189847054802213B68984702
:1057D0002000D4E70368110028009847DEE7C046A0
:1057E00010190210F0B5C6460B6807000D0000B591
:1057F000802B06D05A1C2A60ED182F7180BCB84649
:10580000F0BD0F4B1C68002C16D00B1D98460D4E9A
:1058100002E02469002C0FD02368002BF9D03368F4
:10582000002B01D0A342F4D1200041462A68FFF7A3
:1058300091FF2469002CEFD101220023DBE7C04651
:10584000FCAC002034AD0020F0B54646D6464F46AD
:10585000C0B582B090461C0006000D00FDF7A8F907
:1058600000232F4A12184B41002B02DA01222D4B44
:1058700052422D4908008A4619F01EFA81466B1CD7
:1058800003D1300019F02CF90500002C27D0274F48
:10589000274B1C68002C18D04346002B21D1254BE8
:1058A000984602E02469002C0FD02368002BF9D021
:1058B00043461B68002B01D09C42F3D120002A00F4
:1058C0003100B8472469002CEFD14B46002B23D17F
:1058D000280002B0E0BCBA46B146A846F0BD164F5B
:1058E000D6E7144B984602E02469002CEDD02368DB
:1058F000002BF9D043461B68002B01D0A342F3D103
:105900002A0031002000B8476B460A222000DA71D5
:10591000D91D093AB847E7E7504619F085F9D7E7A6
:1059200040420F00FFFFFF7FF41100205557001089
:10593000FCAC002034AD0020455700100A4A136823
:10594000002B05D10CE01A001B691032002B07D088
:105950008342F8D1002902D118691060196170479B
:105960000029FCD01060FAE7FCAC002010B500F074
:10597000EBFA10BDF0B5CE46474680B583B06B4616
:105980000600DD1D2870FDF713F90023194A1218CF
:105990004B41002B02DA0122174B524217490800F3
:1059A000894619F089F9164B80461C68002C14D0E2
:1059B000144F02E02469002C0FD02368002BF9D08B
:1059C0003B68002B01D09C42F4D120000122290029
:1059D000FFF7C0FE2469002CEFD14346002B05D110
:1059E000300003B0C0BCB946B046F0BD484619F01F
:1059F0001BF9F5E740420F00FFFFFF7FF411002085
:105A0000FCAC002034AD002070B5040019F068F83B
:105A100001230100050001222000FFF715FF084BBC
:105A20001C68002C06D06368002B05D098472469B9
:105A3000002CF8D1280070BD2469002CF3D1F9E7BF
:105A4000FCAC0020F0B5CE46474680B5A3B00400BC
:105A50000E00FDF7ADF80023264A12184B41002B2B
:105A600002DA0122244B5242244819F025F900237E
:105A70002200019380463300214801A9FFF71EFE52
:105A8000204F019B81463C68002B19D0002C2FD061
:105A90001D4E02E02469002C0FD02368002BF9D0A2
:105AA0003368002B01D0A342F4D12000019A02A94F
:105AB000FFF750FE2469002CEFD100233C680193CE
:105AC000002C06D06368002B0CD098472469002C6A
:105AD000F8D14346002B07D1484623B0C0BCB94695
