:020000041000EA
:1000000000B5324B212058609868022188439860DF
:10001000D860186158612E4B002199600221596106
:100020000121F02299502B49196001219960352056
:1000300000F044F80222904214D00621196600F024
:1000400034F8196E01211966002018661A6600F04E
:100050002CF8196E196E196E052000F02FF8012189
:100060000842F9D1002199601B49196000215960AB
:100070001A491B48016001219960EB211966A021F2
:10008000196600F012F800219960164914480160C1
:100090000121996001BC002800D000471248134993
:1000A000086003C880F30888084703B5996A0420EC
:1000B0000142FBD001200142F8D103BD02B5186610
:1000C0001866FFF7F2FF186E186E02BD00000240BE
:1000D000000000180000070000035F00212200005C
:1000E000F4000018222000A00001001008ED00E03C
:1000F00000000000000000000000000074B24E7A12
:1001000000200420F7010010CB010010CD010010E9
:10011000C9010010C9010010C9010010C901001077
:10012000C9010010C9010010C9010010CF01001061
:10013000C9010010C9010010D1010010D301001045
:10014000C1010010C1010010C1010010C101001067
:10015000C1010010C1010010C1010010C101001057
:10016000C1010010C1010010C1010010C101001047
:10017000C1010010C1010010C1010010C101001037
:10018000C1010010C1010010C1010010C101001027
:10019000C1010010C1010010C1010010C101001017
:1001A000C1010010C1010010C1010010C101001007
:1001B000C1010010C1010010C1010010C1010010F7
:1001C000EFF30580103800BE00BE00BE00BE00BECA
:1001D00000BE00BEF2EB887194400510C0400510CF
:1001E0003802001090A31AE71E481F49086006C88D
:1001F00081F3088810471D480068002801D019487D
:10020000F3E70DA40ECC002902D000F012F8F9E7B4
:100210001749184A002000E001C19142FCD116495B
:100220008847164988471649884700BEFDE701C937
:1002300001C29A42FBD37047C0400510E000002085
:1002400080120020605205100000042000000420ED
:10025000605205100010042000100420000000006F
:10026000704700000000000008ED00E0000000D032
:100270008012002050DC0020E1530010D502001055
:10028000D9530010F8B5C04606480749091A8B1023
:10029000C90FC91810B5491003D0044B002B00D06A
:1002A000984710BD8012002080120020000000003E
:1002B000054B10B5002B03D00449054800E000BFF2
:1002C000FFF7E2FF10BDC04600000000B0CA0020EA
:1002D0000C9C0110F0B5DE4657464E464546E0B54B
:1002E0009FB005F0A7F9FA20C00001F0D3FDDD4969
:1002F000DD4808F077F80321042000F067FD0321B2
:10030000052000F063FD07F037FF00F0E1F900F091
:1003100065FAD64C200005F0DFF90022002120000C
:1003200000F04AFA00F03EFB1A2000F0C9FB0F2152
:100330001B2000F053FCCE4C200005F0CDF900222C
:100340000121200000F038FA14F052FC002800D0FF
:1003500071E114F0EFFBC74805F0BEF9002202215D
:10036000C44800F029FAC34805F0B6F9002202217A
:10037000C04800F021FAC049C048C14BC14A14F03E
:10038000E7FB041E00D0F0E0BF4805F0A5F922000D
:100390000221BD4800F010FABC4805F09DF9BC48A8
:1003A00014F03EF816AB9A460200BA49180004F061
:1003B000C1FF504605F090F922000321504600F09D
:1003C000FBF900F063FAB44805F086F92200042135
:1003D000B14800F0F1F9B14801F05CFD00F0FEF920
:1003E000AF4805F079F90022AD48110000F0E4F9BA
:1003F00000F076FB00F0A2FB0F90AA4805F06CF924
:1004000000220121A74800F0D7F9FA20C00001F02E
:1004100041FD00F0E3F901F04DFE002900D11BE1A0
:10042000FA220023920002F0AFFA0C9000239B46C0
:1004300000230D939C4B0E939C4B10939C4B11935C
:100440009C4B12939C4B139384E0FA22002392005E
:1004500002F09AFA814615A914A800F0DBFA00F020
:100460003FFB0F9900F088FB5B46051C002B00D07A
:100470008AE0002000F0E6FB4B460C998F4A5B1A9D
:10048000934200D9CCE089460024149803F066FB1F
:10049000060015980F0003F061FB3B00320000904E
:1004A00001911099504604F045FF0022002150466A
:1004B00000F082F9281C03F051FB0B0002000890A9
:1004C00009911199504604F035FF0022022150464F
:1004D00000F072F95346139A43CA43C312681A6074
:1004E000002398464B460C9300239B460022042190
:1004F000504600F061F94146159B149A281C009162
:10050000211C00F0FFF9201C03F028FB0A900B913E
:10051000149803F023FB060015980F0003F01EFB50
:1005200004000D0000F038FA4246330004940595AB
:100530003C000790029303940A9B0B9C0692009345
:100540000194089A099B0E9805F048F9FA20C0001A
:1005500001F0A0FC01F0AEFD002900D075E7FA2102
:10056000890002F0D3F9814675E72100544805F06F
:1005700035F9544805F0B0F800220221514800F046
:100580001BF916AB9A4626E7012000F05BFB00F052
:100590009DFB0021041C0D9803F0A8FA002843D10C
:1005A000159B149A201C0D9900F0DCFB4B460C9A0D
:1005B000041C9B1A444A934200D966E7149803F03E
:1005C000CDFA060015980F0003F0C8FA3B00009022
:1005D000019132001099504604F0ACFE0022002137
:1005E000504600F0E9F8281C03F0B8FA0B000200AE
:1005F000089009911199504604F09CFE00220221B6
:10060000504600F0D9F8201C03F0A8FA0B000200B5
:100610001299504604F08EFE012398469B4665E7EA
:100620004B4600240C93C9E7159A1499201C00F03E
:100630007BFB0D90B4E7254805F04EF8002202211F
:10064000224800F0B9F8012040421FB0F0BCBB4680
:10065000B246A946A046F0BDFA21890002F056F93B
:100660000C90E3E6801A060010120020109C011086
:10067000209C0110409C0110549C0110609C0110B2
:100680003075000004004000949C0110A49C0110EF
:1006900048260020BC9C0110C49C0110B80B00002F
:1006A000D49C0110E49C0110F09C0110349D0110B9
:1006B000489D0110589D0110689D01105FEA0000DF
:1006C000689C0110889C01108F5F0100309C011014
:1006D000F0B5C64600B588B004AC22000E4B00262B
:1006E00023CB23C219880D4F11809B7803AD9370E3
:1006F0001F236B44984623782E706B702A000223C8
:100700003C2138000096013407F094FE4445F2D1B4
:1007100008B080BCB846F0BDD4BF01101012002054
:10072000F0B5C64600B52038C3B2170084B03A2BE6
:100730003AD81F4A83001B189B18984600251D4E67
:1007400002AC503961702200257002233C21300038
:10075000009507F06FFE0F233B403F0963702200B6
:10076000257002233C2130000095103707F062FE0F
:1007700022002570677002233C213000009507F0AD
:1007800059FE40230920414623700522684403F0A6
:100790002FFA062322003C213000009507F04AFE84
:1007A00004B080BCB846F0BD014B9846C6E7C046D1
:1007B000ACBE01101012002070B505000E00140030
:1007C00008E0220006343100E4B2FFF7A9FF01354A
:1007D0007A2C02D828780028F3D170BD80235B01E1
:1007E000F0B5CE46994640234746B02600259846A8
:1007F00080B51A4FA5B003AC6670022322003C21DD
:1008000025703800009507F015FE022322003C21D8
:1008100025803800009507F00DFE4B46220023800E
:100820003C2102233800009507F004FE81220021BC
:10083000200003F0D7F943460136237022008123BC
:100840003C2138000095F6B207F0F4FDB82ED3D164
:1008500025B0C0BCB946B046F0BDC046101200205D
:1008600010B5002A06D1064804F036FF0122054BD8
:100870001A7010BD1100044804F0B0FF0022F6E722
:10088000789D01103CDC0020989D011030B58DB0A2
:1008900008F0CEFC134C206000281DD0124803A99C
:1008A00013F0EEFC002819D01E200E22002168440F
:1008B00003F098F90D4B002204930D4B04AD059302
:1008C0000C4B206806933C2303A9AB8100920A4B92
:1008D0000A4A019508F0B4FC0DB030BD084804F098
:1008E000FBFEF9E79CCA0020CC9D0110FC9D011085
:1008F000109E0110189E0110610800105B07000097
:10090000D89D0110F0B5151C1E4AB1B01278071C15
:100910000E1C002A2ED01C4C2268002A2AD0369A9F
:10092000181C089203F01AF906900791281C03F08E
:1009300015F904900591301C03F010F90290039111
:10094000381C03F00BF9114A0090019196210AA876
:1009500004F004FD0AA819F07BF8002283B20C49C8
:10096000206803920292019200920AAA08F0C2FA49
:10097000002801D131B0F0BD0100064804F02EFF7F
:10098000F8E7C0463CDC00209CCA0020289E0110ED
:10099000649E0110789E0110014B18787047C04684
:1009A0003CDC002030B5282085B001F073FA7123BB
:1009B0006A46D3720B22154C703B382100936A446F
:1009C00020000A2507F036FD00236D442A00382157
:1009D00000932000013307F037FD082211002B7827
:1009E00019401A4201D005B030BD094B03AA18883E
:1009F00010809B782000937000910323382107F02A
:100A000019FD0A2001F046FAEDE7C0461012002059
:100A10009C9E0110F0B5C646002500B5234B86B05C
:100A20000E00198803AA11809B78214F937080468D
:100A3000032338213800009507F0FCFC04AC50205B
:100A400001F028FA2200062338213800009507F02B
:100A5000FBFCF023E2781B0311041940A3886078A3
:100A60005BBA9FB2A37800031B011843120910431D
:100A70000F4303F04BF80F4903F009F8D62189051D
:100A800003F005F83060380003F040F80A4902F03E
:100A9000FEFFD621890502F0FAFF084902F0DDFFCA
:100AA0004346186006B080BCB846F0BDA09E011059
:100AB000101200200000C8420000484300004842D5
:100AC00010B504001F2100F081F900222000002150
:100AD00000F094F90021200000F00EFA10BDC0468D
:100AE000802170B5402000250426104C104A490092
:100AF000266013680B42FCD0536801381B041B0CA2
:100B0000ED180028F4D1280003F000F8F22189053F
:100B100002F0BDFF074902F0BAFF074902F0A3FF48
:100B2000FF21890502F0B3FF70BDC04600E004401C
:100B300000C004403333534000F07F4510B50949ED
:100B4000041C02F0DBFF00280AD1211C064802F039
:100B50008AFF064902F081FF054902F084FF10BDBB
:100B60000448FCE7CDCCCC3D00E8994500407644F4
:100B70000000A0400050434870B50C1C051C00212B
:100B8000201C02F0BBFF002805D10F49281C02F0F1
:100B9000B5FF002801D0002070BD291C0B4802F0D1
:100BA00062FF0B4902F059FF211C02F05CFF02F0CA
:100BB000D5FF0022074B02F077FD0022064B02F022
:100BC00004F902F0B9F9E7E7CDCCCC3D00E899454E
:100BD000004076448195E7BF0000594070B504009D
:100BE0000D001F2100F0F2F800222000002100F08B
:100BF00005F92000002100F07FF90F4C04212800A6
:100C0000256000F0E3F8236859081F2B0FD807224E
:100C10000A40FF2193009B18084A9B009A18116113
:100C2000116801228A4306495B181A6070BD0322CD
:100C30000A400832EDE7C046FC16002000000540DF
:100C4000001005401D4B1A68530800280FD11F2AB9
:100C500030D90321194008318B005B1818499B00DB
:100C6000FF205B18D2070FD5164A00040DE01F2A9B
:100C700013D90321194008318B005B1810499B00E0
:100C80005B18D20712D44D200F4A196841400A4020
:100C9000802149015B181A607047072119408B00B9
:100CA0005B1807499B005B18D207ECD59A20054AD0
:100CB000C003EAE707211940CEE7C046FC16002032
:100CC0000C0005400000FFFFFFFF0000802170B511
:100CD000402000250426104C104A49002660136865
:100CE0000B42FCD0536801381B041B0CED18002884
:100CF000F4D1280002F00AFFF221890502F0C7FEB4
:100D0000074902F0C4FE074902F0ADFEFF21890544
:100D100002F0BDFE70BDC04600E0044000C00440CB
:100D20003333534000F07F4510B50949041C02F0ED
:100D3000E5FE00280AD1211C064802F094FE06496F
:100D400002F08BFE054902F08EFE10BD0448FCE760
:100D5000CDCCCC3D00209945000075440000A0405A
:100D60000050434870B50C1C051C0021201C02F0EB
:100D7000C5FE002805D11049281C02F0BFFE00283E
:100D800001D0002070BD291C0C4802F06CFE0C49FB
:100D900002F063FE211C02F066FE02F0DFFEC022BC
:100DA000084BD20502F080FC0022074B02F00DF840
:100DB00002F0C2F8E6E7C046CDCCCC3D0020994514
:100DC000000075448FC2DDBF0000594010B54024BB
:100DD000074A83009A181268C0005440C02222407B
:100DE000044C1B191A60044BC018416010BDC0466A
:100DF00004C0014004D0014000400140064B800087
:100E0000C3181B68C90092000A435A400C231340C0
:100E1000024A80180360704704C0014004D00140BA
:100E20008000002904D0054BC018022303607047DE
:100E3000034BC01802230360F9E7C04604E00140F9
:100E400004F00140D0231B061B6810B514005A4261
:100E500053412F225B4293430D4A9B18C20894468C
:100E6000072210406246800081403C3209489200CF
:100E70001150604680001B18002C04D08022920183
:100E80009B18196010BDC02292019B181960F9E7E8
:100E90003041014000400140F0B5D026C64636063C
:100EA00033680C4D9B009046EA5804000F0000B5D3
:100EB000104209D1390014430D204246EC5000F095
:100EC000B9F980BCB846F0BD01F0C6FB33689B00A1
:100ED000EA58EFE79CDA002010B504000D2000F07E
:100EE0008FFAD0231B061B6802499B005A58A24365
:100EF0005A5010BD9CDA00208000002904D0054B18
:100F0000C018402303607047034BC01840230360A0
:100F1000F9E7C04604E0014004F001400123D0227B
:100F20008340120693629361084A83009A181168FD
:100F30004022514080320A400549C0005B181A60C7
:100F4000044BC018052343607047C04604C00140ED
:100F500004D00140004001408023DB051868000FE9
:100F60007047C0460FB400B5084883B004F0B4FB26
:100F7000049B002B07D005A91800019104F012FA78
:100F8000034804F0A9FB012004F024FAA49E0110F8
:100F900074BD0110EFF3108072B6034A1368002B82
:100FA000FCD0BFF35F8F70472C0100D0BFF35F8F81
:100FB0000022024B1A6080F3108870472C0100D089
:100FC00070B58C461600EFF3108472B60F490B68AB
:100FD000002BFCD0BFF35F8F6346DB08C5180722E8
:100FE000C05C63461A40012393401A00024003424A
:100FF00007D118432870BFF35F8F0A6084F310880D
:1010000070BD61463000FFF7ADFFC0462C0100D037
:10101000F8B5CE4647468C4680B51C00EFF31088E5
:1010200072B61C490B68002BFCD0BFF35F8FA24245
:1010300021D80723994602E00132944218D3494649
:10104000012611408E40D308C718C35C1E42F3D15D
:10105000100033433B70BFF35F8F00220D4B1A60CB
:1010600088F3108800280EDBC0BCB946B046F8BD36
:1010700001204042EFE7BFF35F8F00230B6088F34E
:101080001088012040426346002BEDD00898FFF7FE
:1010900069FFC0462C0100D010B584460A00EFF36A
:1010A000108472B60B490B68002BFCD0BFF35F8F26
:1010B0000723D008134001229A4063461B5C9343E8
:1010C00062461354BFF35F8F00230B6084F31088D4
:1010D00010BDC0462C0100D0044A1078431CDBB27E
:1010E000172B00D9102313707047C0463811002009
:1010F00000B5054B83B00100009318221F2303485D
:10110000FFF786FF03B000BDB49E01102C1D002028
:101110000021044B044ABFF35F8F02C39342FAD10C
:101120007047C046000100D0800100D0084B094A3A
:101130001360094A1360094A1360094A1360094A97
:101140001360094A1360094A1360094A1360704723
:101150008080808000E400E004E400E008E400E037
:101160000CE400E010E400E014E400E018E400E027
:101170001CE400E01F2318401E3B8340002905D0DB
:10118000C021044A4900535013607047802201492E
:101190008B50FAE700E100E001228240034B1B681C
:1011A00013405A1E9341D8B27047C04600E100E098
:1011B00001238340014A13607047C04600E200E00B
:1011C000054B10309B688000C358044A00209B1ACE
:1011D0002F229A424041704700ED00E03C11002070
:1011E00070B50D00EFF3108672B60F4A1368002B2E
:1011F000FCD0BFF35F8F0D4B10309B6884001B59F0
:101200000B4A934203D09D4201D001F025FA074BCF
:101210009B681D51BFF35F8FBFF35F8F0022024BAE
:101220001A6086F3108870BD240100D000ED00E044
:10123000C1010010F0B5DE4657464E464546E0B5C2
:10124000824683B08B461700EFF3108872B6604A6F
:101250001368002BFCD0BFF35F8F00255D4B5D57FB
:101260009946002D00DA9AE04A466B005A4C5E1906
:10127000B6000193A31900939B791370574B9A689A
:10128000534610339B00D15899460B1B2F2B32D954
:10129000534B994200D098E0019B0236ED18514B18
:1012A000AD006353504BA619043B9B1B4F4A1B05D3
:1012B0005B0D651913436B804D4B0121AB80FF2300
:1012C000AB715B46AB60009BEF710B4319004A4664
:1012D000424B9B689950BFF35F8FBFF35F8F002233
:1012E0003B4B1A6088F3108803B0F0BCBB46B24693
:1012F000A946A046F0BD01200A008243D379B44636
:10130000BB422DD83B4BB51C190013001B1B5B4186
:101310005943090D8C46334B6519A353324B009941
:10132000043B5B1B1B05314D5B0D2B4304364B808F
:10133000A619131F9B1B1B055B0D1D4363468B7179
:101340005B468B602C4B8D80CF7113600143BEE7F1
:101350005800C01880002018C679BE4225D9020066
:101360000623D356002BF3DA9A46131D9C462348D6
:101370006346009E9571043EF61A36051B4B760DAA
:101380001E43019B96805A1953469200A418A371DC
:101390005B46194AA0802260E771A36097E701F0DD
:1013A0005BF900254B465D575EE766469A46131D7E
:1013B0009C469088043640050015A6196044801BA1
:1013C00000050A4E400D3043D2E701F045F963E7CE
:1013D000240100D041DC00203C11002000ED00E0A1
:1013E000C101001000A1FFFF6C11002000E0FFFF11
:1013F00001BDFFFFAAAA00000148804701BD00000F
:10140000F0B54546DE4657464E46E0B50D0083B082
:10141000EFF3108872B6604A1368002BFCD0BFF35C
:101420005F8F5E4B5E499A68030010339F00D4596A
:1014300099468C423ED0AC424FD05A4EA21B2F2A26
:1014400038D8594B1A689C46130001228240134039
:101450001F22024001209A46904063468022834624
:101460009850BFF35F8FEFF305830193002B36D0C5
:10147000994501D001F0F0F8012322009A439068C9
:10148000854208D176E04B005B189B00F318986802
:10149000854236D01A00062151560029F3DA8542DA
:1014A00054D05346002B27D0C02259463E4B520001
:1014B00099501960394B9B68DC51BFF35F8FBFF3C4
:1014C0005F8F0022344B1A6088F3108803B0F0BCA1
:1014D000BB46B246A946A046F0BD0C00EAE7220092
:1014E00001339A4390688542D5D1062010561300E7
:1014F00000280ADA0C0031E0802359462A4AD150EC
:10150000D8E706201856002821DB42001118890070
:1015100075188946A9689960E979D97106216956D3
:101520009971002924DBAD88F11A6D052D154D4404
:10153000491909051D4D490D2943998013181C4A65
:101540009B001178F31899711070AAE713000199A4
:10155000002914D1FF3191711649918014490A78FC
:101560009A71154A9B1B5B415A43120D0A7098E70A
:101570001049E2E70620105613000028C5DA0F4A8A
:101580000F49D21A083A5002400D014399800D4983
:1015900052080A43DA8084E7240100D000ED00E01D
:1015A000C10100103C11002000E100E000E0FFFF5D
:1015B00041DC002001BDFFFFAAAA00007611002037
:1015C00000F0FFFF00F8FFFF084A83089B009B180C
:1015D0001A6810B5140003221040C000FC3282408B
:1015E0009443220081400A431A6010BD00E400E0E9
:1015F0000123034370B59C46EFF30581EFF310859B
:1016000072B6214A1368002BFCD0BFF35F8F1F4BCB
:1016100004001F4AE41A64416243120D1D4C890004
:10162000A66852B2765866451CD00621595691429A
:101630001CD012215956914222D01E215956914256
:1016400020D02A2159560324914210D0124B1978E8
:101650001A708171BFF35F8F00220B4B1A6085F304
:10166000108870BDA3680D4C5C50EFE7002461004A
:10167000091989005B18FF21997109499980E5E7EB
:101680000124F4E70224F2E7240100D03C110020F9
:10169000AAAA000000ED00E041DC0020C10100101A
:1016A00001BDFFFF1F2110B5091A0248FFF7F4FC26
:1016B00010BDC0464CDC002000B5074B83B00100D4
:1016C0000093002205230548FFF7A2FC002801DB58
:1016D0001F23181A03B000BDD09E01104CDC00205F
:1016E00070B504000E001500FFF7F6FC01002000A5
:1016F00000F006F8A680E580BFF35F8F70BDC0469E
:10170000024BC918890001607047C0464000003490
:1017100070B5114C114DAC420FD2FF262368002B3F
:101720000CD0FFF7D9FC01002000FFF7E9FFA680ED
:10173000BFF35F8F0834AC42F0D370BDFFF7CCFC31
:1017400001002000FFF7DCFF2671BFF35F8F083434
:10175000AC42E3D3F1E7C0467812002080120020AB
:1017600010B50400FFF7B8FC01002000FFF7C8FF28
:10177000FF232371BFF35F8F10BDC04610B5040077
:10178000FFF7AAFC01002000FFF7BAFFFF23A380A8
:10179000BFF35F8F10BDC04610B504000120FFF7F6
:1017A000A7FC034BC01880002060BFF35F8F10BD03
:1017B00040000034034BC91889000160BFF35F8FFC
:1017C0007047C046400000340A4B1968EFF31080A0
:1017D00072B60A68002AFCD0BFF35F8F1B68BFF3A4
:1017E0005F8F00221A6080F3108840BF0020002124
:1017F0007047C046C0DB0020F0B5DE4657464E4677
:101800004546E0B585B0EFF3058303221A40B34B9C
:1018100091005F58012393409B4602925A468846A6
:10182000AF4B1A60AF4B03935B46AF48436308234B
:10183000FE5E002E37DABB881BB2002B00DBA4E073
:10184000BB79002B00D0E5E00823F95E002920DBFE
:101850004B007A695B18DB00D3189D68DC686B1C51
:1018600000D104E1A04801004144826A0B69AE1A2C
:101870009B1A9E4215D30123026A029883401A42A2
:101880000FD0994800F00EFC8C4202DCCCD185428E
:10189000CAD940BF05B0F0BCBB46B246A946A04677
:1018A000F0BD0D61EDE77A69730091469B19DB008D
:1018B00099444B469C68DD6800F0F4FB8D42BADC2D
:1018C00000D1F6E0002D00DADBE04A464B465269D3
:1018D0001B699246039A934200D1CCE04A46082104
:1018E000785E528800045146104398470090019159
:1018F0000099019A0B00134300D1C2E013000A00C3
:10190000002B00DBD9E020002900801A99414B46CA
:101910009860D96000229B5E002B00DA8BE75D00A7
:101920007C69EA18D200A21800949468D268A24692
:101930008A4200DD7FE702D1844200D97BE7082498
:10194000A4463B81BC44009C00972F006546B446EA
:101950003E0006E05E00F218D200A2189768D26836
:10196000BA468A4207DC00D1B4E0F318DB00E51880
:10197000E35E002BEEDA66464A46009F13802E8017
:10198000BB881BB2002B00DA5AE73A69EFF31081EB
:1019900072B61368002BFCD0BFF35F8F0123BE88A3
:1019A0005B42BB8036B23B69BFF35F8F00221A6097
:1019B00081F31088002E00DA42E73B0008333A003A
:1019C00099467D6973009B190824115FDB00484626
:1019D000EB18002913DB9C680093A446DC6806E042
:1019E000A34240D00023F95E3800002906DB4F00F7
:1019F0007F18FF00EF19FB68A342F1DD009B068012
:101A000000201E5E1980002EDCDA1700BB79002B47
:101A100000D119E70023BB710823F95E4B1C00D1EC
:101A200037E73D000835AC467C6903E084464B1C33
:101A300000D109E74B005B18DB00E0180A00E15E0B
:101A400043881BB2002BF1DA01256D42EE17856049
:101A5000C66008257B5F9342E9D0634619803B89C5
:101A600003803A81E3E7BB686345BBD9C6E7631CE3
:101A700000D0F7E605E7534650461B699847002813
:101A800023D14B461B883A693B81EFF3108372B632
:101A900011680029FCD0BFF35F8F49467A880A801D
:101AA0003A697E80BFF35F8F0021116083F3108855
:101AB000C1E6844200D805E7BDE60B4800F0F2FA23
:101AC000009B019CC018614121E753460CCB00925A
:101AD00001930DE7824500D847E74CE7D0CA0020C4
:101AE0003C700540F91700100040054070B52D4CC2
:101AF0002569002D04D00A212B48FFF701FE70BD97
:101B00002A4E0321294800F0C3FAE660FFF7E4FA01
:101B1000274B0322C018D02322701B061B6801210B
:101B20006370244B8000A3600F2320610220638038
:101B300063694942A18019800231198647311D83AA
:101B4000585218315A5275325C3999521832013153
:101B5000995218320131995218320131995208358F
:101B600018329D520231183299521832013199526D
:101B7000183201319952183201319952183201311B
:101B800099521832013199520B4B0C49DC600130EB
:101B90003562FFF725FB01210320FFF7EBFA084B25
:101BA0001D60A8E784110020C0DB00200040054034
:101BB00040000034FFFF1000D0CA0020F9170010C9
:101BC000386005400048704784110020F8B51F00B8
:101BD00008AB1B7804001600002B07D100F06AFA4E
:101BE00032003B00121A8B41002B51DB2269EFF3CC
:101BF000108C72B61368002BFCD0BFF35F8F0223EA
:101C0000E15E256900293ADB4B0060695B18DB0067
:101C1000C218C35A6380BFF35F8F00232B608CF31D
:101C20001088069B9660D7601361079B53615388A9
:101C300001335B045B0C181C002B1ED083B2508058
:101C4000080418432569EFF3108672B62B68002B41
:101C5000FCD0BFF35F8FA3881380A1802369BFF3FB
:101C60005F8F00221A6086F31088237801329A4031
:101C70000849E3685B181A60F8BD0120DEE7BFF38E
:101C80005F8F00232B608CF3108801204042F3E724
:101C90000020F1E73C20000070B582B00092019373
:101CA00001000269EFF3108472B61368002BFCD0B8
:101CB000BFF35F8F0223C85E0D6900283FDB4A69CE
:101CC000430016001B18DB00D218F35A4B80BFF3F9
:101CD0005F8F00232B6084F31088069B1361079BA2
:101CE0005361009B019C9360D460538801335B0473
:101CF0005B0C1D1C002B20D0ACB203045580234389
:101D00000D69EFF3108C72B62C68002CFCD0BFF379
:101D10005F8F8C88148088800A69BFF35F8F0020F2
:101D200010608CF310880A7801309040CA68084926
:101D300052181060180002B070BD0125DCE7BFF337
:101D40005F8F00232B6084F31088013BF2E7C046CD
:101D50003C20000010B543890A1493421ADD530059
:101D60009B184269DB00D3180469EFF3108C72B63C
:101D70002268002AFCD0BFF35F8F5A88090494B20E
:101D8000090C8A4208D00369BFF35F8F00221A60F2
:101D90008CF31088002010BD094A22435A80012389
:101DA00002698371BFF35F8F002111608CF310888B
:101DB000027804499340C268012052181360EAE790
:101DC0000080FFFF3C20000040787047F0B506001F
:101DD0000F0006246442E517A4197D4183B08D42AB
:101DE00012D80FD000F066F922002B00121A8B4196
:101DF000002B13DC002B41D03000390000F09AF9A1
:101E000003B0F0BD8442EDD90024002500F052F962
:101E100022002B00121A8B41002BEBDD00F04AF957
:101E200022002B00121A8B41002B0ADB00230193A6
:101E3000144B2200009314482B00FFF72DFF0130B4
:101E4000DAD02900114A1248536A994204D8956A97
:101E5000A542D1D29942CFD10568EFF3108C72B66A
:101E60002B68002BFCD0BFF35F8F0368BFF35F8F3D
:101E700000251D608CF3108820BFE5E7002ABBD049
:101E8000CCE7C046C917001084110020004005406F
:101E9000C0DB0020F0B5C64600B582B0040000F0FB
:101EA00009F9FA2206000F00200000230021920009
:101EB00001F0B6FD8019794104000D1E02DA0124FB
:101EC0002E4D644206267642F71736196F41AF420F
:101ED00014D811D000F0EEF832003B00121A8B41FA
:101EE000002B15DC002B46D02000290000F022F941
:101EF00002B080BCB846F0BDA642EBD90026002750
:101F000000F0D8F832003B00121A8B41002BE9DDBB
:101F100000F0D0F832003B00121A8B41002B0ADB94
:101F200000230193164B3200009316483B00FFF745
:101F3000B3FE0130D8D000233900B0469C46124A87
:101F40001248536A994204D8966A4645CCD29942BF
:101F5000CAD10668EFF3108772B63368002BFCD045
:101F6000BFF35F8F0368BFF35F8F66461E6087F322
:101F7000108820BFE5E7002AB6D0C9E7FFFFFF7F42
:101F8000C91700108411002000400540C0DB00206C
:101F9000F0B5CE46474680B504000D0085B0EFF39E
:101FA00005868946002E10D0364900204B6AAB4288
:101FB00006D38A6A5B1B591E8B41A24240411843DB
:101FC00005B0C0BCB946B046F0BD2F4FFB683A78AB
:101FD00098461800039200F065F8039A131D4246D4
:101FE0009B009B5822001B1A9C462B00121A8B4107
:101FF0009E4210DC0DD020BF224A0020536A4B4580
:10200000DED3926A5B1B591E8B41A24240411843AA
:10201000D6E79445EFD900F04DF822002B00121AB4
:102020008B41002B1BDB00230193184B22000093F4
:1020300038002B00FFF730FE002810DD114B5A6AE4
:102040004A451CD39B6AA34217D301003800FFF70F
:1020500081FE0C4A0020536A4B45B1D3D1E7094AAF
:102060000020536A4B45ABD30020926A5B1BA2420F
:1020700040415A1E93411843A2E74A45E5D120BF8B
:10208000E3E7C0460040054084110020C917001056
:1020900010B5024A0248FEF793FF10BDEC9E0110F6
:1020A000301D00200300416A0A00986A596A8A427A
:1020B000FAD17047034B596A0A00986A596A9142EB
:1020C000FAD170470040054070B505000E00184A6F
:1020D000536A1900946A536A8B42FAD1200019009E
:1020E0002C00350024184D41AB4216D813D0104BAC
:1020F0002A005B6A9D4203D90D494B6A9342FCD387
:10210000934207D10A4A02E0516A994202D1916A88
:10211000A142F9D370BDA042E9D9054B5B6A1C000E
:102120005A1CEFD0012201246442E5175242E3E732
:1021300000400540064A536A9942FCD807D1044B37
:1021400002E05A6A914202D19A6A9042F9D87047E5
:1021500000400540F8B5040006200D0000F06EF9BF
:10216000002843D0364B3749E3185A1E934180224A
:102170005B429B0D12049B059B18334A1360334A44
:10218000136018000A689043FBD12D4B304AE318C6
:1021900059424B4180215B0049000620995200F0D2
:1021A0004DF92900C00000F0B1FB0130C3091ED178
:1021B000402701226262A362266BF30722D4E36AFE
:1021C000244B0620E51800232B60266300F036F927
:1021D0003900800000F09AFB7023E26A5A400E3307
:1021E00013402B601C4B23630323A364F8BD1B4ADD
:1021F00093421DD900231A4A1A4F6262A362266BCA
:10220000F307DCD5184B144AE3181A60656AA36A11
:102210000620AD01ED1800F011F9144900F076FB2D
:102220000100A80200F072FB0021FFF74DFFC6E796
:1022300040069A01800E17181A000300BAE7C0463C
:102240000080FCBF08C0004000E0004000F00040FB
:1022500000DC00202C10000001030000FEFF000045
:10226000FFFF0000C0FF3F00303000004E0E0000B6
:10227000F8B5DE464E4645465746E0B505008B4666
:1022800018000A99914600F041FB0A9B6C001E025F
:102290006419304BA400E418636880469E4200D95C
:1022A00066602F1FFBB29A46012B2FD9C0238022D4
:1022B000294FAD009B0179591201E3181A600029DA
:1022C0001BD14B4622685B015340E0221340802221
:1022D0005201A21813605346012B2FD9802380226C
:1022E0009B01E31812011A60434666607B51F0BC03
:1022F000BB46B246A946A046F8BD786900F006FB89
:10230000013043001B18033BFDD2DAE75B46012B8B
:10231000CCD1C02303229B01E3181A60023AA368C0
:102320001A42FCD04A46236852015A40E023134027
:1023300080225201A218084F1360AD0058460323B3
:10234000216841400B40136001228240A3681A4279
:10235000FCD0C3E700800040381D0020F0B5D64611
:102360004F464646440098462418324BA400E418D1
:1023700063688A469146C0B5FF2B02D880235B0074
:102380006360061FF6B2012E2FD9C02380222A4F88
:1023900085009B0179591201E3181A6000291BD1AD
:1023A0004B4622685B015340E022134080225201D9
:1023B000A2181360012E30D9802380229B01E318DC
:1023C00012011A6080235B00636043467B51E0BCCE
:1023D000BA46B146A846F0BD786900F097FA0130D8
:1023E00043001B18033BFDD2DAE75346012BCCD147
:1023F000C02303229B01E3181A60023AA3681A4221
:10240000FCD04A46236852015A40E0231340802200
:102410005201A218084F136085005046032321681B
:1024200041400B40136001228240A3681A42FCD055
:10243000C2E7C04600800040381D0020014B8000EC
:10244000C0587047381D0020F0B5C646040000B5DE
:102450002348160098460D0000F058FA010030009D
:1024600000F054FA4346069A1B04120313439C4699
:1024700023680600002B22DB1A4B1B48E218531E70
:102480009A4180235242120B9B011203D218174B20
:102490001A60174B1A60130001688B43FBD121228D
:1024A000144B2560E318A6601A602268002AFCDA43
:1024B0006246E26008221A6080BCB846F0BD3F2345
:1024C00022681340AB42D7D1A3681B051B0D834282
:1024D000D2D1EE22E368D20213406345CCD1EBE7C0
:1024E000001BB7000040FDBF08C0004000E00040F6
:1024F00000F000400430000010B580241C4BE405BF
:102500001C6000281AD001231A4C18431A4BDC61B6
:102510001A4C44401C62596298628021144BC905D0
:102520001960174817490860E021C9041960002A9A
:1025300007D18022144B12061A6010BD0E4BD861D1
:10254000EBE753019B1A9B009A18802312015B044E
:102550009A4209D213000D490B60074B5A60802242
:10256000094BD2051A60E8E7094B1A00F3E7C046A9
:1025700000B00540D3C007B0008005402D3FF84FA4
:10258000FCFF01000820014000A00540A42B002012
:10259000FFFFFF008023024A9B000B43D36270477A
:1025A00000800540002310B50100988A1B8B9847D6
:1025B00010BDC046162310B5010018885B889847E7
:1025C00010BDC046F8B54746CE4680B50F1E18D0A0
:1025D00014239946043304000025012698464B46EF
:1025E0001888434621681B88984701C4431E9841B8
:1025F00001350640AF42F2D13000C0BCB946B0460A
:10260000F8BD0126F8E7C046002370B504000D00B0
:10261000988A05491B8B984703000020002C01DB9A
:102620000130A0402900984755420000AA23064ADD
:102630001B0113608D235B00D3600449044B1960B8
:102640005368002BFCDA70470040024000B0FA00EB
:10265000006002407047C04610B50148FEF782FC9A
:10266000109F011070B5074D074EB54209D20024E6
:10267000013E761BB608013608CD01349847B442B6
:10268000FAD170BDC89B0110049C0110054B064A8D
:1026900006491A60064A074B1A6010000B689843F7
:1026A000FBD1704700E00040BFCDFBFE08C00040FA
:1026B000FE7F3C0000F00040044BDB6C002B03D19C
:1026C0008022034BD2021A607047C04600001150AE
:1026D0004C201150044A054B1A60054A1368DB016F
:1026E0008033FBD17047C046FFFFFF0100F0004080
:1026F00008C000404022034B9A675A671A67DA669F
:102700007047C04600F0014010B5FEF701FD10BD56
:1027100070B52849284D294E6D1AAC102200302C76
:1027200000D930223000920001F062FABC2D3DD871
:1027300023002A3B224A052B1DD9302075196D072D
:10274000A446001BEB0F002D03DA611C8C46A10090
:102750007250C01AE3189B004108F318C900C91849
:102760001A605A6008339942FAD1012303421DD0FE
:10277000984360440400A300F250631C2F2C15D032
:102780009B00F250A31C2E2C10D09B00F250E31C97
:102790002D2C0BD09B00F250231D2C2C06D09B001F
:1027A000F250631D2B2C01D09B00F250054B9E6014
:1027B00070BDC04600010010C001001000000020E4
:1027C000C101001000ED00E0002310B5294C82B0DB
:1027D000A367FFF72BFF0122274B1A60636C012BC5
:1027E000FCD10322254B1A60224A936B012BFCD1AA
:1027F000013300930121224A22480433FFF724FECB
:10280000052301210093204A2048FFF71DFE0022E6
:10281000022104201E4BFFF7A1FD0022012105200B
:102820001C4BFFF79BFD0022002107201A4BFFF7EE
:1028300095FD002200210820174BFFF78FFD802314
:10284000DB000093002200210920134BFFF710FD4D
:102850000022104B00210620FFF780FD0420FFF727
:10286000EDFD0E4900F052F801000020FFF792FE46
:1028700002B010BD008000403CB0004030B00040CD
:10288000002F685900800240008C864700C002403B
:10289000001BB70040597307006CDC0240420F0078
:1028A00001480421014B1847A0110020C525001044
:1028B000014B9B6818470000A0110020124A936F3B
:1028C0009B0815D29066D166002905D0FFE7FFE787
:1028D000FFE7516F106F704704B580210906C217DA
:1028E0005140002800D0C84317F016F9002104BD5C
:1028F000F0B5146E556E576F166FFFF7E3FF146651
:10290000556657671667F0BD000000D0114A936FF7
:102910009B0813D210665166002905D0FFE7FFE738
:10292000FFE7516F106F704704B5002801D00020F9
:10293000C04317F0F1F8002104BDC046F0B5146E95
:10294000556E576F166FFFF7E5FF146655665767AC
:102950001667F0BD000000D094464A4A926F920874
:10296000624601D228E0C046F0B5464E346E756E20
:10297000776F366F00F020F89446424A1466556629
:10298000576716676246F0BD94463E4A926F9208BA
:10299000624601D254E0C046F0B53A4E346E756ED0
:1029A000776F366F00F04CF89446364A14665566D9
:1029B000576716676246F0BD002B24DB11D0002953
:1029C0003EDA00B5C943404200D1013100F038F889
:1029D000C943404200D10131DB43524200D10133AF
:1029E00000BD002AEBD1002801D1002905D000202C
:1029F000C90FC90701D1C043410800B517F074F8E9
:102A00000022002300BD00B500290ADBDB4352424F
:102A100000D1013300F014F8C943404200D1013124
:102A200000BDC943404200D10131DB43524200D1D5
:102A3000013300F005F8DB43524200D1013300BD01
:102A4000002923D1002B18D1002A0CD0BC460D4FF1
:102A500038667A6600210023FFE7FFE7FFE77A6F19
:102A6000386F67467047002801D00748010000B55D
:102A700017F03AF80022002300BD02000B000020EE
:102A800000217047000000D0FFFFFFFF002B00D0A7
:102A9000BFE0130C28D1002AE7D080B4114F39666B
:102AA0007A66FFE7FFE730B4040C7B6F396F1B04D5
:102AB00023433B667A66FFE7FFE7FFE7C04684B241
:102AC0007B6F3D6F1B0423433B667A66FFE7FFE79E
:102AD000C04600232C042D0C7A6F386F0019694111
:102AE000B0BC7047000000D0F0B594460025140E2D
:102AF00001D112020835140F01D112010435940FCF
:102B000001D192000235D40F01D152000135D40B0E
:102B10000134254F7C66254C3C660E0C93B2FFE7D2
:102B2000FFE7FFE73C6F6643360C7703BE4673430F
:102B3000DF0B5B04C01AB941130C7343DB18C91ACD
:102B4000CE086643360CB64493B273431F0F1B0185
:102B5000C01AB941130C73431F0B1B05C01AB941AE
:102B6000860D8F023E436643360C092D24DB520A44
:102B70007243801A7703460A6643360C16235B1BA2
:102B8000DE40DF40BF1964466643821B7046043551
:102B900006330100D940A840C01900D30131A24238
:102BA00006D20023F0BD0000000000D0FFFFFFFFB1
:102BB000121B0130F3D3F1E709277F1BFE40644667
:102BC000A2B27243801A00D20139220C7243130C54
:102BD0001204821A99410B00704604351337010024
:102BE000F940A840801900D30131002B02D1A24244
:102BF0000AD2F0BD013000D30131121BFAD2013BE1
:102C0000F8D1A24200D2F0BD013000D30131121B35
:102C1000F7E7F0B51C0C00D080E00CB400251C0ACE
:102C200004D11B02160E3343120208351C0B04D1CB
:102C30001B01160F3343120104359C0B04D19B007A
:102C4000960F334392000235DC0B02D192185B41A0
:102C500001351C00971864410134464F7C66464C90
:102C60003C660E0CFFE7FFE7FFE7C0463C6F66439C
:102C7000360C7703BE4697B27743C01B00D20139AA
:102C8000C01B00D201399FB27743C91BC91B170C67
:102C900077437E04FF0B801BB941CE086643360C98
:102CA0000C2D33DBB644120B1F053A431B0B97B2B6
:102CB0007743C01B00D201399FB27743C91B170C61
:102CC00077433E043F0C801BB941860D8F023E4383
:102CD000664329277F1BFE400C3D7746AF40BF1956
:102CE00030BCA2B2ABB272437343801A9941220C3A
:102CF0007243130C1204801A994102000B00013731
:102D0000001BA941F9D2781E0021F0BD0C277F1BC2
:102D1000FE4077467F0BAF40FF19E0E700245D1CC3
:102D200007D0144F7D663966FFE7FFE7FFE7FFE74F
:102D30003C6F95B29EB265436643401BB141150C92
:102D40001E0C6543664336042F0C3E432D04401B86
:102D5000B141994204D202000B0020000021F0BDD5
:102D600001D19042F7D3801A994101349942F2D3AC
:102D7000F6E70000000000D0FFFFFFFF48404140A1
:102D8000484018B4134B5B68019308BD18B4114B4D
:102D90001B68019308BD94460F4A926F920805D2B2
:102DA000624618B40B4BDB68019308BD0A4AF0B5C4
:102DB000146E556E576F166F6246FFF7F2FF064AA4
:102DC0001466556657671667F0BD18B4014B9B68CB
:102DD000019308BD20150020000000D0FFB5504031
:102DE0004240504059404B40594000E0FFB5154F1C
:102DF0004C00640D03D0BC4204D10C0314D8002055
:102E0000090D09055C00640D03D0BC4204D11C030C
:102E10000AD800221B0D1B0501264B4009D44B404C
:102E200003D58B4200D18242FFBD9942FCD1904232
:102E3000FFBD0B43DB1803431343F5D0C9434918C7
:102E4000FFBD0000FF07000000B5FFF7CFFF01D076
:102E5000002000BD012000BD00B5FFF7C7FF804185
:102E600000BDC04600B5FFF7C1FF01D9002000BD7D
:102E7000012000BD00B5FFF7B1FF01D9002000BD62
:102E8000012000BD00B5FFF7A9FF804100BD012072
:102E900040054A00121804D85A00121801D8002020
:102EA00070470120704700000021002805D17047BD
:102EB000C1174840401AFAD0C90713B5064B1B6822
:102EC00098470CBC441CA2401005120B0349091B77
:102ED00009051943114310BDBCDA00201F0400008E
:102EE00010B54C00620D8023D218DB00D21A5B05AE
:102EF0007E2A10DD9E3A13DACC17090349081943DC
:102F00005242D140640001341532202A05DAD04003
:102F10000843604310BD002010BD0846604310BD4B
:102F2000C80FC018013810BD18B4024B5B6A01937A
:102F300008BD00002015002018B4024BDB6F019380
:102F400008BD00002015002018B4024BDB6C019373
:102F500008BD00002015002018B4024B1B6D019322
:102F600008BD00002015002010B50148FDF7FAFF4C
:102F70001C9F0110132370B51D78012D19D014DD8D
:102F80001D48FFF717FB06001C48FFF713FB1C4CFE
:102F900080223100200000F02BFE022D06D01948BF
:102FA000FFF700FB184B186070BD154C174BA3645E
:102FB000F5E7174B124C23606360A360E360236165
:102FC0006361A361E36123626362A362E3622363DB
:102FD0006363A363E36323646364A364E3642365BB
:102FE0006365A365E36523666366A366E36623679B
:102FF0006367A367E367D9E75344000053460000C3
:10300000201500204C330000BCDA0020F5390010F8
:10301000692F0010F0B5CE46474680B589B00092C2
:103020000193924B4C009C46640DA444E146002C55
:1030300051D08F4B9C424ED000228E4E361B330512
:1030400080185941FFF788FF8B4A8C4BFFF7A3FE8E
:1030500000228B4B06000F00FFF714FF00280AD058
:10306000002230003900874BFFF78BFE864A0600AE
:10307000A3180F0099464B46002B21D000980199C8
:103080000022824BFFF7F6FE00280DD1009801992F
:1030900000227F4BFFF7E6FE002836D04B46002487
:1030A000002B05DB002504E04B460024002BF9DB58
:1030B000784D2000290009B0C0BCB946B046F0BD2B
:1030C000009A019B30003900FFF77FFE00F08EFA76
:1030D00004000D00EDE7FFF73FFF674A674BFFF77E
:1030E0005AFE0022664B06000F00FFF7CBFE0028B9
:1030F000C4D0002230003900624BFFF742FE624A22
:103100000600A3180F009946B8E7009C019D200017
:10311000290000F017FA0B0002002900200002929B
:103120000393FFF72EFE1A220090019100F0E2F9BE
:1031300000F008FA4B0004000D005B0D09D04C4A6A
:10314000934206D01A2B00DC84E00022524BA418D4
:103150005D4102980399FFF7C3FE80464846FFF79A
:10316000A7FE2B00220002900391FFF72EFE0A001B
:10317000010004910592110000F0E4F902000B0037
:103180000498059906920793FFF7FBFD22002B0098
:103190000490059100980199FFF7F3FD029A039BB3
:1031A000FFF713FE049A059BFFF7F0FD04900591CD
:1031B0004046FFF77DFE32003B00FFF706FE0400AD
:1031C0000D0000F0BFF90A00010013000291039204
:1031D000020029002000FFF7D4FD049A059BFFF7A9
:1031E000D5FD04000D000098019932003B00FFF767
:1031F000ECFD22002B00FFF7C9FD00F0F7F90400F9
:103200000D004E0000940195760D00D151E7184B4A
:103210009E4200D14DE70698079943464F465F43CB
:10322000FFF75EFEC71902980399FFF759FEC01910
:103230008619002E09DD194B9E420FDDEB0F154A52
:10324000DB071A430024150033E7019B0024DB0F42
:10325000DD072EE7C90F0024CD077AE722002B00F7
:1032600000240505A4185D4123E7C04601FCFFFFCB
:10327000FF070000FF030000EF39FAFE422EE63F91
:103280000000E03F0000F03F02FCFFFF0000B04004
:103290000000B0C00000F07F000060FEFE070000EC
:1032A000F8B54E464546DE4657460400E0B50D00EB
:1032B0001600012A5FD0D30F9B185B109846012B94
:1032C0004FD0D31703221A40921992109146012A27
:1032D0003CD007221A409219D2109246012A2ED0D1
:1032E0000F221A40921912119346012A1CD01F2254
:1032F0001A4092195711012F0BD03F221A409219F0
:103300009211FFF7CDFF0B000200FFF75EFDFB07F8
:103310003CD40B000200FFF758FD5B46DB0703D5EA
:1033200022002B00FFF751FD0B000200FFF74DFDBF
:103330005346DB0703D522002B00FFF746FD0B00A9
:103340000200FFF742FD4B46DB071AD40B000200D8
:10335000FFF73BFD4346DB0703D522002B00FFF7B9
:1033600034FD02000B00FFF730FDF60703D5220005
:103370002B00FFF72AFDF0BCBB46B246A946A0468B
:10338000F8BD22002B00FFF720FDDFE722002B0015
:10339000FFF71BFDBDE7C046F0B583B004000D008C
:1033A00006000F0000920193002926DA4A4A5B00CA
:1033B0005B0D9B18342B1AD83422D21A1400203CEF
:1033C00037D401214942A140012040429040009D54
:1033D00085432800019D8D432900014307D1002B1F
:1033E00030D0002C3ADB019BE340DB072AD480235A
:1033F0001B06F9180F0034000D0000980199FFF723
:103400006FFD3B0D0200002B06D034498B4203D0E8
:103410003903090B314335D0061E29D00300203370
:10342000402B28D8002847DB20002900FFF738FF71
:1034300012E00121202049420D00801AC540914030
:103440006918C1E78024009A019B240630003919CD
:10345000FFF7A2FF0B19190003B0F0BD2023009C59
:10346000019D29009B1A99402300D340CB18BCE74B
:1034700000201B49F0E72000009A019B2900FFF77C
:10348000C9FDE9E71749884200DA0A0080210901ED
:103490008A4200DB114A104959185143124BCB188C
:1034A000002B13DD114A934213DC002200200B0590
:1034B0000B4980185941CFE722002B000020084912
:1034C000FFF769FC724204000D00ADE70020002107
:1034D000C2E700200649BFE701FCFFFFFF0700002D
:1034E0000000F03F00F8FFFFFF030000FE070000B0
:1034F0000000F07F4B0070B55B0D04000D00002B49
:103500000ED00D4EB3420BD0D318002B0BDD0B4C5D
:10351000A3420CDD0A4ACB0FDB071A430024150037
:103520002900200070BDCB0F0024DD07F8E7002440
:10353000150524184D41F3E7FF070000FE070000C2
:103540000000F07F274A4B005B0D9B1870B55A1C9A
:1035500028DB5A1C3FD004000D00332B1FDC332224
:10356000D31A9C46203B21D401249C401E00654672
:1035700023000124AC40220012184B41002E24DB12
:103580000221B1400D006046022181400C0016006E
:1035900000216042A94106400B4034001D00290073
:1035A000200070BDCB0F0024DD07F8E71E002024AB
:1035B00063460125E41AE54001242B006546AC4032
:1035C000220012184B41002EDADA20210220491B7A
:1035D000C8400500D7E7044ACB0FDB071A43002495
:1035E0001500DCE701FCFFFF0000F03F264B70B543
:1035F0000A0D04000D009A423AD00022234BFFF737
:1036000031FC002834D1002220002900204BFFF794
:1036100031FC002802D000201E4970BD2000290086
:10362000FFF790FFFFF75CFC0600FFF741FC02008C
:103630000B0020002900FFF7A4FB174B174AFFF7E8
:10364000C4FBFFF781FC4B0004000D005B0DE4D0D0
:10365000134A9342E1D09B19002B0CDD114A93428F
:103660000DDDCB0F0B4ADB071A4300201100D4E716
:1036700000200021D1E7CB0F0020D907CDE70020A3
:10368000310500196941C8E7FF0F00000000B0C014
:103690000000B0400000F07F422EE63FEF39FAFE16
:1036A000FF070000FE070000F0B5CE4647461600B3
:1036B00080B51F000022BF4B83B004000D000096B0
:1036C0000197FFF7C1FB22002B0000283DD13B0DE5
:1036D00098465B055E0D37000022002B3DD0200090
:1036E0002900B54BFFF7B0FB002838D0B34B9E4202
:1036F00032D0984500D175E0B14AAF48B14B9845FA
:1037000000D16CE0B04ABA1800D503E1332A14DCCA
:1037100034239B1A1900203900D518E101225242A6
:103720008A40009E019F01214942994033008B430A
:10373000390091430B4300D0ECE0009A019B20003C
:103740002900FFF729FE02000B001000190003B04A
:10375000C0BCB946B046F0BD0022964BF5E72A0D35
:1037600053052800590D002B30D1974BF118019BC0
:10377000002B3ADB342926D83420401A0300203BA2
:103780006CD49C46012362465B4293409846009E5F
:10379000019F0122524282403300934399464246A0
:1037A0003B0093434A4613430DD122002B000029CE
:1037B000CBD06346002B00DAB8E03900D9402200B4
:1037C0002B00C907C1D400220023BEE77B4B9A42DD
:1037D0004FD1019B0022002B05DA0023B5E77B4B7C
:1037E0009A42F0DC00227A4BAFE73429FAD834232E
:1037F0005B1A1A00203A26D49446012260465242AF
:1038000082409046009E019F012040429840320035
:103810008243914640463A00824348460243E1D102
:10382000002907D06246002A00DA87E03B00D34037
:10383000DB07D7D5664AEB0FDB071A4311000020E0
:103840000B00020081E7944601222020524216001C
:103850009A40C01AC6409046B044D3E79C46012324
:1038600020225B421E008340121AD6409846B04484
:103870008DE7544EB24200D0AEE0534ABB18019AD5
:10388000002A21DB342BADD83420C01A0400203CA0
:103890006FD401225242A240009D019E0121494263
:1038A00081402F008F433900370097433A000A4385
:1038B00098D1002B66D0002C73DB3300E34000224C
:1038C000DB0790D5434B40E7342B00D97BE734200E
:1038D000C01A0400203C43D401225242A240009D61
:1038E000019E0121494281402F008F43390037005A
:1038F00097433A000A4300D065E7002B45D0002CDF
:1039000047DB3300E3400022DB0700D465E7802378
:103910001B061AE7002800DA64E7009A019B2000E2
:103920002900FFF777FB02000B000EE72023310090
:103930003E001B1A9E40C140711840E73000202213
:103940003E000100D21A9640D940731870E7012258
:10395000202152421600C91ACE409A40B218E0E621
:103960000122202152421500091ACD408240AA1896
:10397000B5E70122202152421500091ACD408240AC
:10398000AA1889E70022134BDFE6802300221B06DA
:10399000DBE6202332001B1A9A402B00C340D318C9
:1039A000B1E7202332001B1A9A402B00C340D318E2
:1039B00085E7C0460000F03F0000F0BFFF070000B1
:1039C000FF030000FF0F000001FCFFFFFE030000EB
:1039D0000000F07F0000F0FF0A00984500D08DE65F
:1039E000034B0022994200DDFDE60023ADE6C04610
:1039F000FE03000007B5604601880A0A0230DF2A8C
:103A0000FAD1C9B2820804D3028840880004104366
:103A100000E00068014A5050039007BD20150020C7
:103A200051434343C9188C46110C83B24B4310B425
:103A3000040C614392B280B2504362431C041B0CDD
:103A4000001910BC59411304120CC01851416144B3
:103A5000704700004840414048400E4B5B681847A3
:103A60000C4B1B6818470C4A936F9B0802D2094BFA
:103A7000DB681847F0B5146E556E576F166FFFF779
:103A8000F6FF054A1466556657671667F0BD014B89
:103A90009B681847C0DA0020000000D007B54840F6
:103AA0004140484001E0C04607B54200120E03D035
:103AB000FF2A03D1420218D8C00DC0054A00120ED9
:103AC00003D0FF2A03D14A020FD8C90DC90501222C
:103AD000414005D4414001D5814207BD884207BD20
:103AE0000143491801D0C043001807BD00B5FFF7D6
:103AF000DBFF01D0002000BD012000BD00B5FFF7B5
:103B0000D3FF01D9002000BD012000BD491A0028C3
:103B100008D1084670470000C10FC90700D54042D0
:103B2000002817D0F44603B40B4B1B68984706BC1B
:103B300081409E384042803107D20B0607D04900B1
:103B4000490AC0051043084360470130F8E7490AB5
:103B50008902F5E770470000BCDA0020014BDB6FFB
:103B600018470000C0DA002010B50148FDF7FAF947
:103B7000989E0110132310B51C781148FEF71AFD0A
:103B8000012C0BD004DD010080220E4800F030F83B
:103B90000D48FEF707FD0D4B186010BD094C0100E4
:103BA0005422200000F024F822002000084980322E
:103BB0000368002B00D1016004309042F8D1E7E7A0
:103BC00053460000C0DA00204C330000BCDA00206D
:103BD000693B001001480421014B1847B011002037
:103BE000C5250010014B1B6818470000B0110020CC
:103BF000014B5B6818470000B01100209A4200D2C8
:103C0000885470477047C046F8B5DE4657464E4662
:103C10004546E0B599460D9B0700884693469B07AD
:103C200028D00B9B002B3CD016000B9C0A9D36190C
:103C3000321B013C4B464146285DB847002CF7D16A
:103C400035000D9B9B070ED55B46EC1A0C9BA342DF
:103C500009D91E002A004B46414620200134B847AE
:103C60000135B442F6D32800F0BCBB46B246A946A3
:103C7000A046F8BD0B9B0C9A934214D213005D46EC
:103C80000C000B9A9E1A76192A004B46013521002A
:103C90002020B847B542F7D10B9BA046002BC4D1DA
:103CA000E1E71500CDE75E46002BBED15D46DAE7C1
:103CB000F0B54F46D6464646C0B584B09C460EABDE
:103CC0001F78129B9146BA460D9C109E119D9B0732
:103CD0004CD4002D41D1B44248D20123129F1F4041
:103CE000B8460C9B5F1E302303E001343B55A642CF
:103CF00001D9202CF9D14346002B00D187E00C9B41
:103D00005F1E3023A54204D830E001343B55AC425D
:103D10002CD0202CF9D1129BDB060DD5129B5B0514
:103D200057D4A64267D0A54265D00F9B102B53D025
:103D3000022B5BD0202C36D12023129C01930C9BAC
:103D40004A460093039463460295FFF75DFF04B073
:103D5000E0BCBA46B146A846F0BD0123129A134012
:103D60009846012313422DD1B442BAD3129BDB06ED
:103D70001ED5129B5B05D8D4002CD2D10F9B102BE3
:103D800060D00F9B022B71D0302301240C9A13704A
:103D90005346002B11D1129B5B0740D52B260C9A62
:103DA000631C1655C9E72300013430260C9AD654FB
:103DB000202CC1D05346002BEDD02D260C9A631C2D
:103DC0001655BAE7002F34D0013DB44200D288E73F
:103DD00095E70F9B102BAFD1129B9B063CD5202C57
:103DE000AAD058230C9A13550134A3E7202CA3D052
:103DF0002300013407E0631E012CBFD00F9A102A64
:103E000036D0022AD1D162260C9AD65492E7129B60
:103E1000DB06CDD5129B5B0500D482E785E7129ABD
:103E20002300160700D488E720260C9A0133165584
:103E300083E70C2313405F1EBB41ED1AB44200D24E
:103E40004FE75CE7129B9B060ED478230C9A022462
:103E50001370302353709BE7202C00D16CE778233C
:103E60000C9A1355013465E75823EFE76033EDE70B
:103E70000C9AA61EB618129A920602D558223270D3
:103E800093E77822327090E710B5002800D110BD7A
:103E900001F0D8FBFBE7C04610B5002803D04A6804
:103EA0000B681100984710BDF0B54E46DE465746E8
:103EB0004546E0B595B083468946924698461E9A97
:103EC0001F9B10001900209EFEF7E1FF002800D084
:103ED000D2E11E981F990122C44B5242FEF7BCFF4B
:103EE000002800D001E11E981F990122C04B5242C8
:103EF000FEF7C8FF002800D0D6E01E981F990022C8
:103F0000BC4BFEF7BFFF002800D0B5E01E981F99FC
:103F10000022B94BFEF7A0FF002800D0ACE01E98AD
:103F20001F9900220023FEF797FF002800D0D1E060
:103F300000230B93229B5B0500D40626002430232C
:103F400006E006AA013417321355013E202C01D099
:103F5000092EF6D81E981F99FEF7C2FFA74BF20054
:103F60009B180CCB050008920993FEF7A1FF0200F5
:103F70000B001E981F99FEF704FF089A099BFEF795
:103F800024FF06900791FEF7CFFF0700FEF78CFF96
:103F900002000B0006980799FEF7F3FE0022984BEB
:103FA00006900791FEF76EFF002800D1E9E0013787
:103FB0003800FEF779FF02000B0008980999FEF718
:103FC00051FF002801D000270135002E00D1B7E0B5
:103FD000069513E0172306AA9B180A21380001341E
:103FE0001D19FEF793FC3031297038000A21013E7B
:103FF000FEF78CFC092F00D8E1E00700202CE9D166
:10400000069D20240CAB0693172706ABFF180DE086
:1040100028000A21FEF752FC0134303128003955BE
:104020000A21FEF74BFC051E00D1B7E0202CEFD192
:104030000323229A1340012B17D1219B002B14D06C
:104040000B9B002B00D1E3E0219B013B2193202B14
:104050000BD93023219A06E006A9013417310B55FC
:10406000944200D3A0E0202CF6D1229B019403932C
:10407000219B0293069B21E0229B52460493219BA5
:104080004946039358461E9B1F9C02960093019439
:10409000434600F043F90400200015B0F0BCBB46D5
:1040A000B246A946A046F0BD229B5B070FD403226F
:1040B000544B229901920391219902910093524607
:1040C000434649465846FFF79FFD0400E4E70422B3
:1040D0004D4BEEE71E9A1F9B00200021FEF751FE7C
:1040E00001231E901F910B9324E70223229A54462A
:1040F0001A40229B06929B0700D1ACE02600434D5C
:1041000008942F1F3200E87843464946013DD847BE
:104110000136BD42F6D1089C069B0434002BBBD06F
:104120005746219AE31B9A42B6D91500220043460E
:10413000494620200134D847E31BAB42F6D3ABE716
:104140002800FEF7B5FE02000B001E981F99FEF72F
:1041500018FE2B4B002206000F00FEF77DFE0CAB75
:104160000693002800D04FE7002230003900244B8E
:10417000FEF788FE002800D046E7012301359D4365
:1041800042E70022069807991D4BFEF765FE0028BE
:1041900000D01AE7002F59D1013716E70323229ADE
:1041A0001340012B00D1A6E0202C00D15DE70B9B32
:1041B000002B3AD02D23069A1355013455E7069D5E
:1041C000202C00D11DE73023361906E006AA013461
:1041D00017321355202C00D113E7A642F6D12E2317
:1041E0000CAA0134069293550EE7C046FFFFEFFF7D
:1041F000FFFFEF7F65CDCD4165CDCDC1E0C10110A1
:104200000000E03F809F0110789F0110889F0110FF
:104210000C23229A134257D0219B013B2193A342A6
:1042200000D916E7202C00D11FE7229B5B0704D59D
:104230002B23069A1355013417E7229B1B0700D442
:1042400013E72023069A135501340EE7FB0700D429
:10425000BBE60137B9E6219B042B00D84EE7554653
:104260004F46043CE4182A0043460135390020201B
:10427000D847AC42F7D141E70227229B55461F4061
:104280009B0726D006975F46234EEC1C2A00B07889
:10429000434649460135B847013EAC42F6D1069F38
:1042A000002F00D1F8E65746219AE31B9A4200D826
:1042B000F2E6150022004346494620200134D84743
:1042C000E31BAB42F6D3E7E6219BA34200D9C0E64D
:1042D000CBE6219B032BD5D9069754464F46033D89
:1042E000ED1822004346013439002020D847A5426A
:1042F000F7D1069FC6E7219B002B00D154E70B9B0B
:10430000002B85D0219B013B21939C4200D2A0E64B
:10431000202C00D04EE7A8E6849F0110F0B545465A
:10432000DE4657464E46E0B59BB0249C259D82460E
:1043300088469346994622002B0020002900FEF76C
:10434000A6FD002800D0C1E00122200029007C4BFE
:104350005242FEF797FD002800D0B7E0012220006E
:104360002900784B5242FEF777FD002800D0ADE0DF
:104370000022002320002900FEF76EFD002800D057
:10438000BBE108940995089809998023289ADB00D5
:104390001A400F928022289E1201164032000E967B
:1043A000289E0F000A901E4200D0A4E00B00034399
:1043B00000D0CBE0002A00D012E232000633269370
:1043C000022313400C930223134200D00AE2279BDE
:1043D000042B00D215E200270426043B0E93002292
:1043E000002320002900FEF737FD002800D0C8E197
:1043F000554B289A134004930E9B0393269B0293DC
:10440000089B099C0093019441464B465A465046EE
:10441000FFF74AFD02002020289B00250340594257
:104420004B415B421840531C089341464B46453074
:10443000D047FB17FC185C40FB0F1F270A93731E25
:104440000E930AABFF1806E020000A21FEF75EFA81
:104450000400202D08D00A212000FEF757FA01356C
:1044600030317955092CEFD8052306930E9B56461B
:104470000593002304930A3303930A9B4146029356
:1044800012AB009330004B46089A0195FFF710FCE1
:104490000C9B002B28D05F46279BC41BA34223D92B
:1044A00082461D003A194B46414620200134B04750
:1044B000A542F7D850465946279C421A013200239C
:1044C000944200D395E1013018180DE0289B009428
:1044D00001950493279B0393269B02934B465A46D0
:1044E00041465046FFF7E0FC1BB0F0BCBB46B2466D
:1044F000A946A046F0BD01432AD10E9B3200002BF5
:1045000000D15DE70027269B0026BB4200DD82E14B
:104510000022002320002900FEF79EFC002800D086
:104520004BE1289B084A02961A408023DB00134384
:104530000493279B0393089B099C00930194CDE768
:10454000FFFFEF7FFFFFEFFFFFF7FFFF062326933D
:10455000B24B7800400DC018FEF7AAFCB04AB14B30
:10456000FEF733FCB04AB14BFEF710FC3F03B04BF3
:104570003F0B3B430C900D9100220A981900AD4B64
:10458000FEF7FFFBAC4AAD4BFEF71FFC02000B0031
:104590000C980D99FEF7FAFBFEF7A2FC0700FEF758
:1045A00087FCA74AA74B0A900B91FEF70EFC00224E
:1045B000A54BFEF7EBFBFEF793FCA44A06000A9816
:1045C0000B99A34BFEF701FC0A900B913000FEF70C
:1045D0006FFCA04AA04BFEF7F8FB02000B000A9804
:1045E0000B99FEF7CEFB02000B000A900B91FEF731
:1045F000ECFB0C900D910A980B9902000B00FEF752
:10460000C5FB0022109011910C980D99934BFEF769
:10461000C2FB0022924BFEF7B9FB02000B000C9884
:104620000D99FEF7B8FB00228E4BFEF7AFFB0200A0
:104630000B000C980D99FEF7AEFB0A9A0B9B0C90A1
:104640000D9180210020C905FEF79BFB02000B00A5
:104650000C980D99FEF79AFB02000B001098119927
:10466000FEF799FB0022724BFEF790FB7E4B002277
:10467000F6183305FEF7A9FB02000B000A900B9118
:1046800008980999FEF7E8FB002808D00A980B99CA
:104690000022734BFEF77FFB0A900B91013F0A99B2
:1046A0000B9A0B0011003A006332C62A12D802227C
:1046B0002898042610400E9A0C90002A26D1279B99
:1046C000042B05D9002800D0A1E0279B043B0E93C2
:1046D000042642E00222289810400E9A0C90002AEC
:1046E00013D1279B052B00D889E0002800D084E057
:1046F000279B0526053B0E9332E080231B069C4634
:10470000AC446346089409933DE605260B4300D16B
:10471000F9E608980999554A554BFEF7ABFB002876
:1047200008D0089809990022524BFEF795FB002803
:1047300000D0E8E6269B002B34D00F9B002B31D015
:10474000269B013B2693279BB34204D90C9B002B4D
:1047500059D002230C9300230E93002F00D13EE684
:104760000A9A0B9B08980999FEF715FB00220890FE
:104770000991002320002900FEF76EFB002800D1DC
:1047800036E6089C099D289A80203B4B0006134082
:10479000220004930E9B0393269B02932B180092F6
:1047A000019331E6279BB342D5D90C9B002B2AD02D
:1047B00000230E9302330C93CFE7289B2E4A8020D0
:1047C000089C099D1A408023DB00134322000493B8
:1047D000279B000603932B180092019302967DE617
:1047E000052695E600230E930233002704260C933A
:1047F000F5E54B1E1B191B1A65E602230C930526D3
:10480000AEE70423E7E5279B9B1B0E93A5E7022356
:1048100004260C93A1E7DB1B5E1E79E601FCFFFF7B
:10482000FB799F501344D33FB3C8608B288AC63F9F
:104830000000F03F0000F83F61436F63A787D23F5D
:1048400071A379094F930A400000E03F1655B5BBAC
:10485000B16B0240EF39FAFE422EE63F00002C40D9
:104860000000244000001840FF0300002D431CEB13
:10487000E2361A3F80842E41FFF7FFFFF0B557461E
:10488000DE464E464546E0B5A3B01F002C9B92463F
:104890000C93C94AC94B8B460B901A60002900D172
:1048A000BFE1002338789946002800D1C1E1C44B0C
:1048B0004C460993C34B0E935B460A9308E02200D3
:1048C00053460A990B9DA84701343878002876D0C2
:1048D00001372528F3D110239B46083B9946043B1A
:1048E0009846033B002602259C463878791C030035
:1048F000203BDBB2102B03D8099A9B00D3589F466C
:104900000300303B092B36D900252A2800D1A7E027
:1049100000230D932E283FD00300683BDBB2122BFF
:104920001BD80E9A9B00D3589F4663460F001E4328
:10493000DBE70F002E43D8E743460F001E43D4E7C2
:104940005B460F001E43D0E74B460F001E43CCE7EB
:10495000802378785B001E4301310F00672845D81B
:104960002428ACD90300253BDBB2422BA7D89649BB
:104970009B00CB589F460025AB005D196D002D189C
:1049800008780F000300303B303D0131092BF3D98B
:1049900000230D932E28BFD1302280205242904612
:1049A000C000064378780B0080444246092A00D8AC
:1049B00051E12A2800D15EE10F000131ACE70A9BEA
:1049C000A1469B46CA4503D801235B4253449946FE
:1049D00053464A46594600200B9DA847200023B065
:1049E000F0BCBB46B246A946A046F0BD0300693BF9
:1049F000DBB20F2B00D962E7012199408846734A48
:104A000011408B46110042460A4200D013E10A2BA6
:104A10002FD0072B00D052E70C9D01CD002800D1EC
:104A200034E121231E43B0461F260D9A12ABF6181F
:104A3000A14694465946340002E0000920290AD0D4
:104A40000F26064032003732092E00D8073A0131CE
:104A500062540F28F1D863464C468B460D9322E1F1
:104A60000C9B20CB002D52DB78780C930F0001318A
:104A70004EE70C9B0D9904CB90469B46002900D134
:104A800028E1434618784144002801D100F029FC70
:104A90000D9A94460A0004E059780133002900D1A8
:104AA00095E19A42F8D163460D934346D31A0F938A
:104AB000730500D46CE10F9B0D9A934200D90F92BD
:104AC00002231A0032400C92334200D191E20C933F
:104AD0000D9BB9461E1943461B1BA84622001F000A
:104AE0000B9D08E0541C53460A99A847385D0028DE
:104AF00000D163E122009642F4D145464F4634008E
:104B00000C9B002B00D097E15B460C93DDE6022264
:104B1000787816430F006D420C930131F8E67878EF
:104B20006C2800D159E180235B001E43013114E75A
:104B300080239B0078781E4301310EE7787868283F
:104B400000D150E1802301311E4306E7672800D1E0
:104B5000C2E0472800D134E1452800D134E10721E3
:104B60000C9B0D9A07338B43190004960395029210
:104B70000CC90B98009201930C91220053460A999C
:104B8000FFF7CCFB0400A0E6462800D1A8E00721EF
:104B90000C9B0D9A07338B431900049603950292E0
:104BA0000CC90B98009201930C91220053460A996C
:104BB000FFF77AF9040088E67D4800109C2B00205E
:104BC00044C0011088C00110D4C001104190000001
:104BD0002200534625200A990B9DA847013474E60C
:104BE0000C9B04339B46631C9846B60700D4FFE039
:104BF0000C9B220018780A9953460B9EB047641903
:104C0000012D00D849E245460B9EB8460A9F2A006E
:104C10005346013539002020B047A542F7D1474619
:104C200072E7DB4B38780B9300239946002800D0BD
:104C30003DE60024C6E66F2855D000D8BCE210231C
:104C4000782800D19EE09E430A239C4600230F93C0
:104C50000A339B464DE000218A005218520001336E
:104C60001118187830390200303A092AF4D90D9118
:104C70001F00591C50E60C9BB87804CB0237D14377
:104C8000C9170A400D920C93791C45E61023300099
:104C9000984311331843802380463000DB001840CE
:104CA0001E4200D1C0E643460693082305930D9BA0
:104CB0002200049310230393002302935B46019385
:104CC0001AAB00930A9953460B98FEF7F1FF0C9527
:104CD0000400FAE50139D4E680231B011E433EE7B8
:104CE00020231E4353E708239C4600230F930833D9
:104CF0009B4680233000DB0018401E4200D11AE1A1
:104D00000D233100994380230A009B001A409146ED
:104D1000194200D0C3E180230A005B001A4090468C
:104D20000C9A04320F92194200D08FE24B0600D544
:104D300097E10B0600D4E5E20C9B1B8899464B4695
:104D4000002B00D005E210339943002800D100E287
:104D5000002398460D9B069104935B460393002322
:104D6000059502934346D9E0582808D0622878D1A7
:104D700002239C4600230F9302339B46B9E720236E
:104D80001E43103B9C4600230F9310339B46B0E715
:104D900002231A0032400C92334200D105E20C93F8
:104DA0004346B9460B9E0A9FA8461D1B2200534648
:104DB00039000134B047285D0028F7D145464F46F9
:104DC0009EE680231B011E4320231E43C7E6624646
:104DD0000D9242469B1A0F936AE6C0239B00B87857
:104DE0001E43F91CB9E5C023B8781E43F91CB4E58D
:104DF000012D00D84AE1631E9946A9444B4652460C
:104E00002600A146BA461C001700A8460B9D32009A
:104E10003B00013620200A99A847A642F7D13B0063
:104E200057469A464C460C9B320018780A995346CE
:104E30000B9D4444A84767E6A0460F9B9D4200D8BF
:104E400062E62C190B9E4546B8460A9FE41A2A00D2
:104E50005346013539002020B047A542F7D14746D7
:104E600052E680233200DB001A4090461E4200D1F9
:104E7000F3E011218E43B4469846802362469B009E
:104E80001A40934662461A4259D180235B001A4069
:104E900091460C9A04320F9262461A4200D0A0E169
:104EA00063465B0600D5D4E063461B0600D412E2DD
:104EB0000C9B00229B5ED8171918414089B2DA0F6B
:104EC0000C92002B00D187E188461F2612ABBB460F
:104ED0001495F71845464E46E046A14606E02800E0
:104EE0000A21FDF713FD0500202E08D00A21280015
:104EF000FDF70CFD01363031B955092DEFD84C4680
:104F0000C446B1465F46149D634606930D9B0595C6
:104F100004930A2303930C9B02934B4601931AAB11
:104F2000220000930A9953460B98FEF7C1FE0F9B8F
:104F300004000C93C9E40C2331009943E3E60822F2
:104F4000072191460C9B07338B4399444A460ACB71
:104F500008000C92DA0F9346184300D085E0002336
:104F600099464346002B2FD1002200231092119323
:104F700000231F26994612ABF6185B461495BB46D4
:104F8000E04637000F934E46A146109C119D05E068
:104F9000053C001004000D00202E0CD00A22002336
:104FA00020002900FDF7F0FC01363032BA55002D03
:104FB000F0D1092CEED80F9B109411955F464C460A
:104FC000C446B1469B46149D634606930D9B0595CA
:104FD00004930A2303935B4602934B4601931AAB57
:104FE000220000930A9953460B98FEF761FE0400D5
:104FF0006BE40F9B9D4200D896E18023DB000C936D
:105000000F9B2E19F61A43460F930D9BA8469946FF
:105010005346BA461F000B9D22003B00013420205E
:105020000A99A847B442F7D10F9B454698464B468C
:105030000D933B0057469A4643461878002800D106
:1050400062E56B1C0F930C9B002B00D1A8E600239C
:105050003DE50C9B1B78190031E710239E43B446B5
:105060000BE70C9B1B78994669E6DA1712921392AC
:105070004A401092129813990A005A401192109ABD
:10508000119B121A8B411092119371E70C9B220015
:1050900018780A9953460B9CA047444634E50822E9
:1050A000072690460C9B0733B343984442460C9224
:1050B0001A685B68149208931300089A134305D189
:1050C0001033994300239846002838D161208B067D
:1050D00000D5412000231F2698465A4612ABF618E9
:1050E000030018920F9A0A3BB14616951794199728
:1050F0004446664690469B46149F089D159103E0E2
:1051000007000D00202C13D03200002338002900A6
:10511000FDF73AFC5B46D2B2D318092A01D8130036
:1051200030334A4601341355A845E9D1BE42E7D988
:10513000189BA0469B461599169D179C199F0D9B81
:10514000069104935B46039300230595029343461F
:1051500044E761208B0600D541201F2612ABF218D0
:1051600003000A3B0C934B464646A146A8461C004A
:105170005D461491BB46170002E00400202E0DD0BE
:1051800029002000FDF7C2FB0C9BCB18092901D890
:105190000B0030330136BB55AC42EED25F464C4675
:1051A000AB4614994546B046D4E50F9B9D4200D9C5
:1051B00026E701330F93F3E5102332009A43944618
:1051C000692800D0A2E080233200DB001A4090461C
:1051D0001E4200D151E64CE64346002B00D093E638
:1051E00073E60C9B1B68DA0F002B70D0D9175B1885
:1051F0004B4098461F2612ABF618A14614955C4604
:105200004546BB46E04637000C9206E028000A21DE
:10521000FDF77CFB0500202C08D00A212800FDF7B3
:1052200075FB013430313955092DEFD85F46C4463E
:10523000A3464C46149D0C9A634606930D9B059518
:1052400004930A23029203935B4667E60C9B1B6858
:105250009846002B03D11033994300282DD16120AB
:105260008B0600D541201F2612ABF61803000A3B1F
:105270004A460C93149143463100A846A1465E4627
:105280001400BB461D000F0002E00500202C0DD0CD
:1052900031002800FDF73AFB0C9BCB18092901D8F7
:1052A0000B00303301343B55B542EED223005F464C
:1052B0004C464546B346994614990D9B0691049376
:1052C0005B4603930023059502934B4626E643462F
:1052D000002BB1D18EE70C9B1B68D81719184140E1
:1052E000EDE580233200DB001A400F921E420FD002
:1052F0000230020032400F92304219D00023A04603
:105300000F939AE50C9B1B68994618E516009BE4E1
:1053100002231A0032400C92334200D08CE5002D5B
:1053200000D06DE6FFF7F0FB01330F93FFF7D0FBE2
:105330000C93F4E70EB410B5012485B007AA08CA8F
:1053400001000392009204486242FFF797FA05B009
:1053500010BC08BC03B01847FD3B001084460CB4D9
:1053600000B585B006AB0A0002CB05480393009355
:105370000B006146FFF782FA05B008BC02B018477F
:10538000FD3B001000B585B0039101210290009310
:10539000034813004A4202A9FFF770FA05B000BDA6
:1053A000993E001010B5094A0300146884B0002C1F
:1053B00008D0012200910648524203A9A0470120CB
:1053C00004B010BD00F088F90020F9E79C2B002004
:1053D000893E001000BEFDE710B5FFF7FBFFC04699
:1053E00070B5FDF73FF9074D074EB54209D20024CD
:1053F000013E761BB608013608CD01349847B44209
:10540000FAD170BD049C01100C9C0110030010B572
:10541000080011001B68984710BDC046F8B5437DD1
:1054200007000D001600002B38D0002A1ADD0B787B
:105430000A2B18D00020012E09D0012421006B5C1A
:1054400001340A2B1AD0B442F8D1864203DD311A56
:105450003B6828189847AD19013D2B780D3B5A42FF
:1054600053413B75F8BD037D002BE3D102210E486B
:105470003B689847012EEED00120DEE76B1E5B5C97
:105480000D2BE0D0884203DA091A3B6828189847A8
:10549000054802213B6898472000D4E703681100C3
:1054A00028009847DEE7C04630C20110F0B5C64676
:1054B0000B6807000D0000B5802B06D05A1C2A602F
:1054C000ED182F7180BCB846F0BD0F4B1C68002C46
:1054D00016D00B1D98460D4E02E02469002C0FD00B
:1054E0002368002BF9D03368002B01D0A342F4D1FC
:1054F000200041462A68FFF791FF2469002CEFD174
:1055000001220023DBE7C046682700207027002027
:10551000F0B54646D6464F46C0B582B090461C0010
:1055200006000D00FCF7C6FD00232F4A12184B4160
:10553000002B02DA01222D4B52422D4908008A46E7
:1055400014F012FB81466B1C03D1300014F080FA7A
:105550000500002C27D0274F274B1C68002C18D0A3
:105560004346002B21D1254B984602E02469002CAC
:105570000FD02368002BF9D043461B68002B01D0C5
:105580009C42F3D120002A003100B8472469002C46
:10559000EFD14B46002B23D1280002B0E0BCBA4625
:1055A000B146A846F0BD164FD6E7144B984602E028
:1055B0002469002CEDD02368002BF9D043461B68EA
:1055C000002B01D0A342F3D12A0031002000B847BC
:1055D0006B460A222000DA71D91D093AB847E7E77D
:1055E000504614F079FAD7E740420F00FFFFFF7FE3
:1055F000781200201D54001068270020702700201A
:105600000D5400100A4A1368002B05D10CE01A0053
:105610001B691032002B07D08342F8D1002902D138
:1056200018691060196170470029FCD01060FAE712
:105630006827002010B500F0A9F900F0E1FB012077
:1056400010BDC046F0B5CE46474680B583B06B4628
:105650000600DD1D2870FCF72DFD0023194A1218E5
:105660004B41002B02DA0122174B52421749080026
:10567000894614F079FA164B80461C68002C14D029
:10568000144F02E02469002C0FD02368002BF9D0BE
:105690003B68002B01D09C42F4D12000012229005C
:1056A000FFF7BCFE2469002CEFD14346002B05D147
:1056B000300003B0C0BCB946B046F0BD484614F057
:1056C0000BFAF5E740420F00FFFFFF7F7812002042
:1056D000682700207027002070B5040014F0B8F986
:1056E00001230100050001222000FFF711FF084BF4
:1056F0001C68002C06D06368002B05D098472469ED
:10570000002CF8D1280070BD2469002CF3D1F9E7F2
:1057100068270020F0B5CE46474680B5A3B0040008
:105720000E00FCF7C7FC0023264A12184B41002B41
:1057300002DA0122244B5242244814F015FA0023C5
:105740002200019380463300214801A9FFF71AFE89
:10575000204F019B81463C68002B19D0002C2FD094
:105760001D4E02E02469002C0FD02368002BF9D0D5
:105770003368002B01D0A342F4D12000019A02A982
:10578000FFF74CFE2469002CEFD100233C68019305
:10579000002C06D06368002B0CD098472469002C9D
:1057A000F8D14346002B07D1484623B0C0BCB946C8
:1057B000B046F0BD2469EBE7044814F08DF9F3E737
:1057C0000194EEE740420F00FFFFFF7F78120020B8
:1057D000AD54001068270020702700200FB400B5DA
:1057E00083B004A901C90191FFF794FF03B008BC7D
:1057F00004B01847F0B5002915DD0E4B0D271A68C7
:105800000D4B0E4CD3185D426B41451820215B00B7
:105810001E5F0478A64207D093691942FCD101307B
:105820001460A842F5D1F0BD93691942FCD117600C
:10583000F2E7C04604DC00200080FCBF00DC002052
:105840001F4B30B51B680D1E9C462ADD441E1021DF
:1058500000201C4B1A689369194214D101309369D6
:105860001942FCD1136823548542F4D16346002BBE
:1058700007D050239363516B183B0B4012495218C9
:105880001360280030BD6346002B07D0502393637C
:10589000516B183B0B400C49521813600028F1D192
:1058A0000BE0002B09D05022064B1B689A63596B02
:1058B000183A0A4004495B181A6003204042E1E7A5
:1058C0001C1D002004DC002034100000064B10B525
:1058D0001B68002B06D00021044A12689163044A19
:1058E0001068984710BDC0461C1D002004DC002035
:1058F000241D00200822034B19688B691A42FCD131
:105900007047C04604DC002070B51A4E1A4B32684E
:105910000400D31858424341184D143318002B6823
:10592000002C02D0002B0FD070BD002BFCD0060045
:1059300000219463FBF71EFC30001149FBF760FD6A
:10594000104B2C601C60EFE72C6004000D4B1960BD
:105950000B49FBF745FC01212000FBF70BFC502213
:1059600033689A63596B183A0A4007495B181A6002
:10597000DAE7C04604DC00200080FCBF1C1D0020CC
:10598000CD580010241D0020341000000D4B10B520
:105990001B780D4B0D4C1B780D4B02211B780D4BCA
:1059A00000202360FBF712FA02210120FBF70EFA18
:1059B000E12120684902FCF7CDFB01210648FFF7F1
:1059C00021FE10BDB8400510B440051004DC0020D5
:1059D000B040051000400340C01100207047C04691
:1059E0000022014B1A70704742DC00204B790020E6
:1059F000FF2B0BD18B79002B08D1CB79012B05D153
:105A0000082A03D9024B8A7809301A707047C046B9
:105A100042DC00200120704710B5012913D1124942
:105A20005379107909781B0203430020994200D072
:105A300010BD5378012B08D0022BF9D1642200212C
:105A40000020FCF759FD0120F2E7D37891781B0282
:105A50001943480ADB0501D4012040427F238A050F
:105A6000D20F1940FCF7D0FD42DC002000487047FF
:105A700018C301109446012310B501290AD15278A8
:105A80000023012A06D162461179527912020A4393
:105A9000072A01D0180010BDA6336146024A01F062
:105AA0006BFA0300F6E7C04670C2011001230370D1
:105AB0000048704750C201104B780A781B0213430C
:105AC0008A7810B512041A43CB781B06134396222A
:105AD000D200934200D010BD0022012011004042AC
